{
  "_format": "hh3-artifact-1",
  "contractName": "Arbitrators",
  "sourceName": "contracts/escrow/Arbitrators.sol",
  "abi": [
    {
      "inputs": [],
      "stateMutability": "nonpayable",
      "type": "constructor"
    },
    {
      "inputs": [],
      "name": "ArbiterIsEngaged",
      "type": "error"
    },
    {
      "inputs": [],
      "name": "AribterAlreadyApproved",
      "type": "error"
    },
    {
      "inputs": [],
      "name": "CooldownMode",
      "type": "error"
    },
    {
      "inputs": [],
      "name": "EnforcedPause",
      "type": "error"
    },
    {
      "inputs": [],
      "name": "ExpectedPause",
      "type": "error"
    },
    {
      "inputs": [],
      "name": "FactoryNotSet",
      "type": "error"
    },
    {
      "inputs": [],
      "name": "MinimumAbiterHoldingExceedAllowance",
      "type": "error"
    },
    {
      "inputs": [],
      "name": "NoBalance",
      "type": "error"
    },
    {
      "inputs": [],
      "name": "NoRequestFound",
      "type": "error"
    },
    {
      "inputs": [],
      "name": "NotApproved",
      "type": "error"
    },
    {
      "inputs": [
        {
          "internalType": "address",
          "name": "owner",
          "type": "address"
        }
      ],
      "name": "OwnableInvalidOwner",
      "type": "error"
    },
    {
      "inputs": [
        {
          "internalType": "address",
          "name": "account",
          "type": "address"
        }
      ],
      "name": "OwnableUnauthorizedAccount",
      "type": "error"
    },
    {
      "inputs": [],
      "name": "Requested",
      "type": "error"
    },
    {
      "inputs": [
        {
          "internalType": "address",
          "name": "token",
          "type": "address"
        }
      ],
      "name": "SafeERC20FailedOperation",
      "type": "error"
    },
    {
      "inputs": [],
      "name": "VerseTokenNotSet",
      "type": "error"
    },
    {
      "anonymous": false,
      "inputs": [
        {
          "indexed": true,
          "internalType": "address",
          "name": "previousOwner",
          "type": "address"
        },
        {
          "indexed": true,
          "internalType": "address",
          "name": "newOwner",
          "type": "address"
        }
      ],
      "name": "OwnershipTransferred",
      "type": "event"
    },
    {
      "anonymous": false,
      "inputs": [
        {
          "indexed": false,
          "internalType": "address",
          "name": "account",
          "type": "address"
        }
      ],
      "name": "Paused",
      "type": "event"
    },
    {
      "anonymous": false,
      "inputs": [
        {
          "indexed": false,
          "internalType": "address",
          "name": "account",
          "type": "address"
        }
      ],
      "name": "Unpaused",
      "type": "event"
    },
    {
      "inputs": [
        {
          "internalType": "address",
          "name": "arbiter",
          "type": "address"
        }
      ],
      "name": "approveArbiter",
      "outputs": [
        {
          "internalType": "bool",
          "name": "",
          "type": "bool"
        }
      ],
      "stateMutability": "nonpayable",
      "type": "function"
    },
    {
      "inputs": [
        {
          "internalType": "bytes32",
          "name": "arbiterId",
          "type": "bytes32"
        }
      ],
      "name": "getArbiter",
      "outputs": [
        {
          "components": [
            {
              "internalType": "bytes32",
              "name": "id",
              "type": "bytes32"
            },
            {
              "internalType": "uint256",
              "name": "lockedBalance",
              "type": "uint256"
            },
            {
              "internalType": "bool",
              "name": "isApproved",
              "type": "bool"
            },
            {
              "internalType": "uint256",
              "name": "lastSeen",
              "type": "uint256"
            },
            {
              "internalType": "address",
              "name": "identifier",
              "type": "address"
            }
          ],
          "internalType": "struct IArbitrators.Arbiter",
          "name": "_result",
          "type": "tuple"
        }
      ],
      "stateMutability": "view",
      "type": "function"
    },
    {
      "inputs": [
        {
          "internalType": "address",
          "name": "arbiter",
          "type": "address"
        }
      ],
      "name": "isApprovedArbiter",
      "outputs": [
        {
          "internalType": "bool",
          "name": "",
          "type": "bool"
        }
      ],
      "stateMutability": "view",
      "type": "function"
    },
    {
      "inputs": [],
      "name": "owner",
      "outputs": [
        {
          "internalType": "address",
          "name": "",
          "type": "address"
        }
      ],
      "stateMutability": "view",
      "type": "function"
    },
    {
      "inputs": [],
      "name": "paused",
      "outputs": [
        {
          "internalType": "bool",
          "name": "",
          "type": "bool"
        }
      ],
      "stateMutability": "view",
      "type": "function"
    },
    {
      "inputs": [],
      "name": "readData",
      "outputs": [
        {
          "components": [
            {
              "components": [
                {
                  "internalType": "bytes32",
                  "name": "id",
                  "type": "bytes32"
                },
                {
                  "internalType": "uint256",
                  "name": "lockedBalance",
                  "type": "uint256"
                },
                {
                  "internalType": "bool",
                  "name": "isApproved",
                  "type": "bool"
                },
                {
                  "internalType": "uint256",
                  "name": "lastSeen",
                  "type": "uint256"
                },
                {
                  "internalType": "address",
                  "name": "identifier",
                  "type": "address"
                }
              ],
              "internalType": "struct IArbitrators.Arbiter[]",
              "name": "arbiters",
              "type": "tuple[]"
            },
            {
              "internalType": "contract IERC20",
              "name": "verseToken",
              "type": "address"
            },
            {
              "internalType": "contract IEscrowFactory",
              "name": "factory",
              "type": "address"
            },
            {
              "internalType": "uint256",
              "name": "minimumAbiterHolding",
              "type": "uint256"
            }
          ],
          "internalType": "struct IArbitrators.ReadData",
          "name": "",
          "type": "tuple"
        }
      ],
      "stateMutability": "view",
      "type": "function"
    },
    {
      "inputs": [],
      "name": "renounceOwnership",
      "outputs": [],
      "stateMutability": "nonpayable",
      "type": "function"
    },
    {
      "inputs": [],
      "name": "requestToBeAnArbiter",
      "outputs": [
        {
          "internalType": "bool",
          "name": "",
          "type": "bool"
        }
      ],
      "stateMutability": "nonpayable",
      "type": "function"
    },
    {
      "inputs": [
        {
          "internalType": "address",
          "name": "_factory",
          "type": "address"
        }
      ],
      "name": "setFactory",
      "outputs": [],
      "stateMutability": "nonpayable",
      "type": "function"
    },
    {
      "inputs": [
        {
          "internalType": "uint256",
          "name": "_minimumHolding",
          "type": "uint256"
        }
      ],
      "name": "setMinimumAbiterHolding",
      "outputs": [],
      "stateMutability": "nonpayable",
      "type": "function"
    },
    {
      "inputs": [
        {
          "internalType": "address",
          "name": "_verseToken",
          "type": "address"
        }
      ],
      "name": "setVerseToken",
      "outputs": [],
      "stateMutability": "nonpayable",
      "type": "function"
    },
    {
      "inputs": [
        {
          "internalType": "address",
          "name": "newOwner",
          "type": "address"
        }
      ],
      "name": "transferOwnership",
      "outputs": [],
      "stateMutability": "nonpayable",
      "type": "function"
    },
    {
      "inputs": [],
      "name": "unlock",
      "outputs": [
        {
          "internalType": "bool",
          "name": "",
          "type": "bool"
        }
      ],
      "stateMutability": "nonpayable",
      "type": "function"
    }
  ],
  "bytecode": "0x608080604052346075573315605f5760008054336001600160a01b0319821681178355916001600160a01b03909116907f8be0079c531659141344cd1fd0a4f28419497f9722a3daafe3b4186f6b6457e09080a3610d57908161007b8239f35b631e4fbdf760e01b600052600060045260246000fd5b600080fdfe608080604052600436101561001357600080fd5b60003560e01c90816318a6a30514610843575080631ce2f06f1461080a5780634ef269dd146107c45780635bb478081461077e5780635c975abb14610758578063715018a6146106ff5780638da5cb5b146106d6578063a69df4b5146104af578063b2f66bd8146103df578063b592d3a114610310578063bef55ef314610161578063f2fde38b146100d45763f359f575146100ae57600080fd5b346100cf5760203660031901126100cf576100c7610c9d565b600435600355005b600080fd5b346100cf5760203660031901126100cf576004356001600160a01b038116908190036100cf57610102610c9d565b801561014b57600080546001600160a01b03198116831782556001600160a01b0316907f8be0079c531659141344cd1fd0a4f28419497f9722a3daafe3b4186f6b6457e09080a3005b631e4fbdf760e01b600052600060045260246000fd5b346100cf5760003660031901126100cf576000606060405161018281610b8b565b818152826020820152826040820152015260018060a01b036001541660018060a01b036002541660035491604051926101ba84610b8b565b60045467ffffffffffffffff81116102fa57604051906101e060208260051b0183610ba7565b8082526020820160046000527f8a35acfbc15ff81a39ae7d344fd709f28e8600b4aa8c65c6b64bfe7fe36bd19b6000915b8383106102dc57505050508452602084019182526040840192835260608401908152604051926020845260a08401945192608060208601528351809652602060c0860194016000965b808810610289575050516001600160a01b03908116604086015290511660608401525160808301528190039150f35b9094602060a0826102d06001948a516080908051835260208101516020840152604081015115156040840152606081015160608401528160018060a01b0391015116910152565b0196019701969061025a565b600560206001926102ec85610bfe565b815201920192019190610211565b634e487b7160e01b600052604160045260246000fd5b346100cf5760203660031901126100cf576004356001600160a01b038116908190036100cf5761033e610c9d565b600052600560205260406000206040519061035882610b53565b6020600160ff835416159283158552015492019182526103ce5760ff60026103808351610bc9565b500154166103bd578060026103986103ab9351610bc9565b5001805460ff1916600117905551610bc9565b50600342910155602060405160018152f35b639d504c5f60e01b60005260046000fd5b6308ae297960e31b60005260046000fd5b346100cf5760203660031901126100cf5760a060006040519061040182610b6f565b808252806020830152806040830152806060830152608082015260043560005260066020526020604060002060405161043981610b53565b600160ff83541615159283835201549283910152610495575b5061049360405180926080908051835260208101516020840152604081015115156040840152606081015160608401528160018060a01b0391015116910152565bf35b6104a991506104a390610bc9565b50610bfe565b82610452565b346100cf5760003660031901126100cf576001546001600160a01b0316156106c5576002546001600160a01b031680156106b457336000526005602052604060002060246040600181519361050385610b53565b60ff81541615158552015493602084019485528151928380926316d5f47360e11b82523360048301525afa9081156106a857600091610657575b50610646575115610635576105556104a38251610bc9565b6040810151156106245760208101908151156106135760606202a3009101514203106106025760026105ac8361058e6105f79551610bc9565b50600342910155600060016105a38351610bc9565b50015551610bc9565b5001805460ff19169055600154905160405163a9059cbb60e01b6020820152336024820152604480820192909252908152906001600160a01b03166105f2606483610ba7565b610cc6565b602060405160018152f35b631e598c5b60e31b60005260046000fd5b636165515360e11b60005260046000fd5b63c19f17a960e01b60005260046000fd5b631f501ef760e21b60005260046000fd5b637ab8f4d760e11b60005260046000fd5b906040823d6040116106a0575b8161067160409383610ba7565b8101031261069957815191821515830361069c576020015160ff81160361069957508361053d565b80fd5b5080fd5b3d9150610664565b6040513d6000823e3d90fd5b6329f7dfeb60e21b60005260046000fd5b637fd41a2760e11b60005260046000fd5b346100cf5760003660031901126100cf576000546040516001600160a01b039091168152602090f35b346100cf5760003660031901126100cf57610718610c9d565b600080546001600160a01b0319811682556001600160a01b03167f8be0079c531659141344cd1fd0a4f28419497f9722a3daafe3b4186f6b6457e08280a3005b346100cf5760003660031901126100cf57602060ff60005460a01c166040519015158152f35b346100cf5760203660031901126100cf576004356001600160a01b038116908190036100cf576107ac610c9d565b6001600160601b0360a01b6002541617600255600080f35b346100cf5760203660031901126100cf576004356001600160a01b038116908190036100cf576107f2610c9d565b6001600160601b0360a01b6001541617600155600080f35b346100cf5760203660031901126100cf576004356001600160a01b03811681036100cf57610839602091610c48565b6040519015158152f35b346100cf5760003660031901126100cf5760ff60005460a01c16610b42576001546001600160a01b031680156106c5576002546001600160a01b0316156106b4573360005260056020526001604060002061089d84610b53565b805460ff161515845201546020808401918252604051636eb1769f60e11b8152336004820152306024820152929083604481845afa9283156106a857600093610b0e575b50600354808410610afd5780610ac1575b505060405160208101903360601b82528360348201524260548201526054815261091d607482610ba7565b5190208351610a7d57600184526004548252336000526005602052604060002061095685511515829060ff801983541691151516179055565b60018351910155806000526006602052604060002061098485511515829060ff801983541691151516179055565b6001835191015560405161099781610b6f565b8181526020810193845260408101936000855260608201914283526080810192338452600454680100000000000000008110156102fa578060016109de9201600455610bc9565b929092610a6757600197600494610a0f925185555189850155511515600284019060ff801983541691151516179055565b5160038201550190848060a01b039051166001600160601b0360a01b8254161790555b6000526006602052610a58604060002093511515849060ff801983541691151516179055565b51910155602060405160018152f35b634e487b7160e01b600052600060045260246000fd5b91506040610a8e6104a38351610bc9565b01516103bd576001916002610aa38351610bc9565b50018360ff1982541617905580610aba8351610bc9565b5055610a32565b610af691604051916323b872dd60e01b60208401523360248401523060448401526064830152606482526105f2608483610ba7565b83806108f2565b63639106c360e11b60005260046000fd5b90926020823d602011610b3a575b81610b2960209383610ba7565b8101031261069957505191846108e1565b3d9150610b1c565b63d93c066560e01b60005260046000fd5b6040810190811067ffffffffffffffff8211176102fa57604052565b60a0810190811067ffffffffffffffff8211176102fa57604052565b6080810190811067ffffffffffffffff8211176102fa57604052565b90601f8019910116810190811067ffffffffffffffff8211176102fa57604052565b600454811015610be85760046000526005602060002091020190600090565b634e487b7160e01b600052603260045260246000fd5b90604051610c0b81610b6f565b8254815260018301546020820152600283015460ff1615156040820152600383015460608201526004909201546001600160a01b03166080830152565b60018060a01b0316600052600560205260206040600020604051610c6b81610b53565b600160ff83541615928315835201549283910152610c97576002610c9060ff92610bc9565b5001541690565b50600090565b6000546001600160a01b03163303610cb157565b63118cdaa760e01b6000523360045260246000fd5b906000602091828151910182855af1156106a8576000513d610d1857506001600160a01b0381163b155b610cf75750565b635274afe760e01b60009081526001600160a01b0391909116600452602490fd5b60011415610cf056fea2646970667358221220a828cd21dbac5daef04b6cfe67df05fc752d9d85c9528df81ad5c66c1914fe2f64736f6c634300081e0033",
  "linkReferences": {},
  "deployedLinkReferences": {},
  "immutableReferences": {},
  "inputSourceName": "project/contracts/escrow/Arbitrators.sol",
  "buildInfoId": "solc-0_8_30-4ec5e690bb0903808fa11d68eb66940e8efcf66d"
}