{
  "_format": "hh3-artifact-1",
  "contractName": "Escrow",
  "sourceName": "contracts/escrow/Escrow.sol",
  "abi": [
    {
      "inputs": [
        {
          "internalType": "address",
          "name": "_buyer",
          "type": "address"
        },
        {
          "internalType": "address",
          "name": "_seller",
          "type": "address"
        },
        {
          "internalType": "address",
          "name": "_assetToken",
          "type": "address"
        },
        {
          "internalType": "uint256",
          "name": "_assetAmount",
          "type": "uint256"
        },
        {
          "internalType": "uint256",
          "name": "_deadline",
          "type": "uint256"
        },
        {
          "internalType": "string",
          "name": "_description",
          "type": "string"
        },
        {
          "internalType": "uint256",
          "name": "_disputeWindowHours",
          "type": "uint256"
        },
        {
          "internalType": "address",
          "name": "_platformFeeRecipient",
          "type": "address"
        }
      ],
      "stateMutability": "nonpayable",
      "type": "constructor"
    },
    {
      "inputs": [],
      "name": "ArbiterSwapWindowNotOpen",
      "type": "error"
    },
    {
      "inputs": [],
      "name": "AssetAmountMustBeGreaterThanZero",
      "type": "error"
    },
    {
      "inputs": [],
      "name": "CallerIsTheArbiter",
      "type": "error"
    },
    {
      "inputs": [],
      "name": "ContractMustBePaused",
      "type": "error"
    },
    {
      "inputs": [],
      "name": "DeadlineMustBeInTheFuture",
      "type": "error"
    },
    {
      "inputs": [],
      "name": "DeadlineNotReached",
      "type": "error"
    },
    {
      "inputs": [],
      "name": "DisputeReasonCannotBeEmpty",
      "type": "error"
    },
    {
      "inputs": [],
      "name": "DisputeWindowMustBeGreaterThanZero",
      "type": "error"
    },
    {
      "inputs": [],
      "name": "ETHNotAcceptedForERC20Escrow",
      "type": "error"
    },
    {
      "inputs": [],
      "name": "EmergencyWithdrawFailed",
      "type": "error"
    },
    {
      "inputs": [],
      "name": "EnforcedPause",
      "type": "error"
    },
    {
      "inputs": [],
      "name": "EscrowHasExpired",
      "type": "error"
    },
    {
      "inputs": [],
      "name": "EscrowHasNotExpired",
      "type": "error"
    },
    {
      "inputs": [],
      "name": "EscrowWasResolved",
      "type": "error"
    },
    {
      "inputs": [],
      "name": "ExpectedPause",
      "type": "error"
    },
    {
      "inputs": [],
      "name": "IncorrectETHAmount",
      "type": "error"
    },
    {
      "inputs": [],
      "name": "InsufficientTokenAllowance",
      "type": "error"
    },
    {
      "inputs": [],
      "name": "InsufficientTokenBalance",
      "type": "error"
    },
    {
      "inputs": [],
      "name": "InvalidAgentAddress",
      "type": "error"
    },
    {
      "inputs": [],
      "name": "InvalidArbiterAddress",
      "type": "error"
    },
    {
      "inputs": [],
      "name": "InvalidBuyerAddress",
      "type": "error"
    },
    {
      "inputs": [],
      "name": "InvalidEscrowState",
      "type": "error"
    },
    {
      "inputs": [],
      "name": "InvalidPlatformFeeRecipient",
      "type": "error"
    },
    {
      "inputs": [],
      "name": "InvalidSellerAddress",
      "type": "error"
    },
    {
      "inputs": [],
      "name": "InvalidStateForFundRelease",
      "type": "error"
    },
    {
      "inputs": [],
      "name": "NoActiveDispute",
      "type": "error"
    },
    {
      "inputs": [],
      "name": "NotApproved",
      "type": "error"
    },
    {
      "inputs": [],
      "name": "OnlyArbiterCanCall",
      "type": "error"
    },
    {
      "inputs": [],
      "name": "OnlyAuthorizedAgentsCanCall",
      "type": "error"
    },
    {
      "inputs": [],
      "name": "OnlyBuyerCanCall",
      "type": "error"
    },
    {
      "inputs": [],
      "name": "OnlyBuyerOrArbiterCanRefundFunds",
      "type": "error"
    },
    {
      "inputs": [],
      "name": "OnlyBuyerOrArbiterCanReleaseFunds",
      "type": "error"
    },
    {
      "inputs": [],
      "name": "OnlyBuyerOrSellerCanCall",
      "type": "error"
    },
    {
      "inputs": [],
      "name": "OnlySellerCanCall",
      "type": "error"
    },
    {
      "inputs": [
        {
          "internalType": "address",
          "name": "owner",
          "type": "address"
        }
      ],
      "name": "OwnableInvalidOwner",
      "type": "error"
    },
    {
      "inputs": [
        {
          "internalType": "address",
          "name": "account",
          "type": "address"
        }
      ],
      "name": "OwnableUnauthorizedAccount",
      "type": "error"
    },
    {
      "inputs": [],
      "name": "ReasoningCannotBeEmpty",
      "type": "error"
    },
    {
      "inputs": [],
      "name": "ReentrancyGuardReentrantCall",
      "type": "error"
    },
    {
      "inputs": [
        {
          "internalType": "address",
          "name": "token",
          "type": "address"
        }
      ],
      "name": "SafeERC20FailedOperation",
      "type": "error"
    },
    {
      "inputs": [],
      "name": "TransferToArbiterFailed",
      "type": "error"
    },
    {
      "inputs": [],
      "name": "TransferToPlatformFailed",
      "type": "error"
    },
    {
      "inputs": [],
      "name": "TransferToRecipientFailed",
      "type": "error"
    },
    {
      "anonymous": false,
      "inputs": [
        {
          "indexed": true,
          "internalType": "address",
          "name": "oldArbiter",
          "type": "address"
        },
        {
          "indexed": true,
          "internalType": "address",
          "name": "newArbiter",
          "type": "address"
        }
      ],
      "name": "ArbiterSwapped",
      "type": "event"
    },
    {
      "anonymous": false,
      "inputs": [
        {
          "indexed": true,
          "internalType": "address",
          "name": "depositor",
          "type": "address"
        },
        {
          "indexed": true,
          "internalType": "address",
          "name": "assetToken",
          "type": "address"
        },
        {
          "indexed": false,
          "internalType": "uint256",
          "name": "amount",
          "type": "uint256"
        },
        {
          "indexed": false,
          "internalType": "uint256",
          "name": "timestamp",
          "type": "uint256"
        }
      ],
      "name": "AssetDeposited",
      "type": "event"
    },
    {
      "anonymous": false,
      "inputs": [
        {
          "indexed": true,
          "internalType": "address",
          "name": "disputer",
          "type": "address"
        },
        {
          "indexed": false,
          "internalType": "string",
          "name": "reason",
          "type": "string"
        },
        {
          "indexed": false,
          "internalType": "uint256",
          "name": "timestamp",
          "type": "uint256"
        }
      ],
      "name": "DisputeRaised",
      "type": "event"
    },
    {
      "anonymous": false,
      "inputs": [
        {
          "indexed": true,
          "internalType": "address",
          "name": "arbiter",
          "type": "address"
        },
        {
          "indexed": false,
          "internalType": "bool",
          "name": "releaseFunds",
          "type": "bool"
        },
        {
          "indexed": false,
          "internalType": "string",
          "name": "reasoning",
          "type": "string"
        },
        {
          "indexed": false,
          "internalType": "uint256",
          "name": "timestamp",
          "type": "uint256"
        }
      ],
      "name": "DisputeResolved",
      "type": "event"
    },
    {
      "anonymous": false,
      "inputs": [
        {
          "indexed": true,
          "internalType": "address",
          "name": "buyer",
          "type": "address"
        },
        {
          "indexed": true,
          "internalType": "address",
          "name": "seller",
          "type": "address"
        },
        {
          "indexed": true,
          "internalType": "address",
          "name": "arbiter",
          "type": "address"
        },
        {
          "indexed": false,
          "internalType": "address",
          "name": "assetToken",
          "type": "address"
        },
        {
          "indexed": false,
          "internalType": "uint256",
          "name": "assetAmount",
          "type": "uint256"
        },
        {
          "indexed": false,
          "internalType": "uint256",
          "name": "deadline",
          "type": "uint256"
        }
      ],
      "name": "EscrowCreated",
      "type": "event"
    },
    {
      "anonymous": false,
      "inputs": [
        {
          "indexed": true,
          "internalType": "address",
          "name": "confirmer",
          "type": "address"
        },
        {
          "indexed": false,
          "internalType": "uint256",
          "name": "timestamp",
          "type": "uint256"
        }
      ],
      "name": "FulfillmentConfirmed",
      "type": "event"
    },
    {
      "anonymous": false,
      "inputs": [
        {
          "indexed": true,
          "internalType": "address",
          "name": "recipient",
          "type": "address"
        },
        {
          "indexed": true,
          "internalType": "address",
          "name": "assetToken",
          "type": "address"
        },
        {
          "indexed": false,
          "internalType": "uint256",
          "name": "amount",
          "type": "uint256"
        },
        {
          "indexed": false,
          "internalType": "uint256",
          "name": "timestamp",
          "type": "uint256"
        }
      ],
      "name": "FundsRefunded",
      "type": "event"
    },
    {
      "anonymous": false,
      "inputs": [
        {
          "indexed": true,
          "internalType": "address",
          "name": "recipient",
          "type": "address"
        },
        {
          "indexed": true,
          "internalType": "address",
          "name": "assetToken",
          "type": "address"
        },
        {
          "indexed": false,
          "internalType": "uint256",
          "name": "amount",
          "type": "uint256"
        },
        {
          "indexed": false,
          "internalType": "uint256",
          "name": "timestamp",
          "type": "uint256"
        }
      ],
      "name": "FundsReleased",
      "type": "event"
    },
    {
      "anonymous": false,
      "inputs": [
        {
          "indexed": true,
          "internalType": "address",
          "name": "previousOwner",
          "type": "address"
        },
        {
          "indexed": true,
          "internalType": "address",
          "name": "newOwner",
          "type": "address"
        }
      ],
      "name": "OwnershipTransferred",
      "type": "event"
    },
    {
      "anonymous": false,
      "inputs": [
        {
          "indexed": false,
          "internalType": "address",
          "name": "account",
          "type": "address"
        }
      ],
      "name": "Paused",
      "type": "event"
    },
    {
      "anonymous": false,
      "inputs": [
        {
          "indexed": false,
          "internalType": "address",
          "name": "account",
          "type": "address"
        }
      ],
      "name": "Unpaused",
      "type": "event"
    },
    {
      "inputs": [],
      "name": "agentConfirmFulfillment",
      "outputs": [],
      "stateMutability": "nonpayable",
      "type": "function"
    },
    {
      "inputs": [],
      "name": "agentDeposit",
      "outputs": [],
      "stateMutability": "nonpayable",
      "type": "function"
    },
    {
      "inputs": [
        {
          "internalType": "bool",
          "name": "_releazeFunds",
          "type": "bool"
        },
        {
          "internalType": "string",
          "name": "_reasoning",
          "type": "string"
        }
      ],
      "name": "agentResolveDispute",
      "outputs": [],
      "stateMutability": "nonpayable",
      "type": "function"
    },
    {
      "inputs": [
        {
          "internalType": "address",
          "name": "_agent",
          "type": "address"
        }
      ],
      "name": "authorizeAgent",
      "outputs": [],
      "stateMutability": "nonpayable",
      "type": "function"
    },
    {
      "inputs": [
        {
          "internalType": "address",
          "name": "",
          "type": "address"
        }
      ],
      "name": "authorizedAgents",
      "outputs": [
        {
          "internalType": "bool",
          "name": "",
          "type": "bool"
        }
      ],
      "stateMutability": "view",
      "type": "function"
    },
    {
      "inputs": [],
      "name": "becomeArbiter",
      "outputs": [
        {
          "internalType": "bool",
          "name": "",
          "type": "bool"
        }
      ],
      "stateMutability": "nonpayable",
      "type": "function"
    },
    {
      "inputs": [],
      "name": "confirmFulfillment",
      "outputs": [],
      "stateMutability": "nonpayable",
      "type": "function"
    },
    {
      "inputs": [],
      "name": "deposit",
      "outputs": [],
      "stateMutability": "payable",
      "type": "function"
    },
    {
      "inputs": [],
      "name": "emergencyWithdraw",
      "outputs": [],
      "stateMutability": "nonpayable",
      "type": "function"
    },
    {
      "inputs": [],
      "name": "getBalance",
      "outputs": [
        {
          "internalType": "uint256",
          "name": "",
          "type": "uint256"
        }
      ],
      "stateMutability": "view",
      "type": "function"
    },
    {
      "inputs": [],
      "name": "getEscrowData",
      "outputs": [
        {
          "components": [
            {
              "components": [
                {
                  "internalType": "address",
                  "name": "buyer",
                  "type": "address"
                },
                {
                  "internalType": "address",
                  "name": "seller",
                  "type": "address"
                },
                {
                  "internalType": "address",
                  "name": "arbiter",
                  "type": "address"
                },
                {
                  "internalType": "address",
                  "name": "assetToken",
                  "type": "address"
                },
                {
                  "internalType": "uint256",
                  "name": "assetAmount",
                  "type": "uint256"
                },
                {
                  "internalType": "uint256",
                  "name": "deadline",
                  "type": "uint256"
                },
                {
                  "internalType": "enum IEscrow.EscrowState",
                  "name": "state",
                  "type": "uint8"
                },
                {
                  "internalType": "uint256",
                  "name": "createdAt",
                  "type": "uint256"
                },
                {
                  "internalType": "uint256",
                  "name": "updatedAt",
                  "type": "uint256"
                },
                {
                  "internalType": "string",
                  "name": "description",
                  "type": "string"
                },
                {
                  "internalType": "uint256",
                  "name": "disputeWindowHours",
                  "type": "uint256"
                }
              ],
              "internalType": "struct IEscrow.EscrowDetails",
              "name": "escrowDetails",
              "type": "tuple"
            },
            {
              "components": [
                {
                  "internalType": "bool",
                  "name": "isActive",
                  "type": "bool"
                },
                {
                  "internalType": "address",
                  "name": "disputer",
                  "type": "address"
                },
                {
                  "internalType": "bytes",
                  "name": "reason",
                  "type": "bytes"
                },
                {
                  "internalType": "uint256",
                  "name": "raisedAt",
                  "type": "uint256"
                },
                {
                  "internalType": "address",
                  "name": "arbiter",
                  "type": "address"
                },
                {
                  "internalType": "bool",
                  "name": "arbiterDecision",
                  "type": "bool"
                },
                {
                  "internalType": "bytes",
                  "name": "arbiterReasoning",
                  "type": "bytes"
                },
                {
                  "internalType": "uint256",
                  "name": "resolvedAt",
                  "type": "uint256"
                }
              ],
              "internalType": "struct IEscrow.DisputeInfo",
              "name": "disputeInfo",
              "type": "tuple"
            },
            {
              "internalType": "uint256",
              "name": "platformFeePercentage",
              "type": "uint256"
            },
            {
              "internalType": "uint256",
              "name": "arbiterFeePercentage",
              "type": "uint256"
            },
            {
              "internalType": "uint256",
              "name": "feeDenominator",
              "type": "uint256"
            },
            {
              "internalType": "address",
              "name": "platformFeeRecipient",
              "type": "address"
            }
          ],
          "internalType": "struct IEscrow.EscrowData",
          "name": "",
          "type": "tuple"
        }
      ],
      "stateMutability": "view",
      "type": "function"
    },
    {
      "inputs": [],
      "name": "isExpired",
      "outputs": [
        {
          "internalType": "bool",
          "name": "",
          "type": "bool"
        }
      ],
      "stateMutability": "view",
      "type": "function"
    },
    {
      "inputs": [],
      "name": "owner",
      "outputs": [
        {
          "internalType": "address",
          "name": "",
          "type": "address"
        }
      ],
      "stateMutability": "view",
      "type": "function"
    },
    {
      "inputs": [],
      "name": "pause",
      "outputs": [],
      "stateMutability": "nonpayable",
      "type": "function"
    },
    {
      "inputs": [],
      "name": "paused",
      "outputs": [
        {
          "internalType": "bool",
          "name": "",
          "type": "bool"
        }
      ],
      "stateMutability": "view",
      "type": "function"
    },
    {
      "inputs": [
        {
          "internalType": "string",
          "name": "_reason",
          "type": "string"
        }
      ],
      "name": "raiseDispute",
      "outputs": [],
      "stateMutability": "nonpayable",
      "type": "function"
    },
    {
      "inputs": [],
      "name": "refundFunds",
      "outputs": [],
      "stateMutability": "nonpayable",
      "type": "function"
    },
    {
      "inputs": [],
      "name": "releaseFunds",
      "outputs": [],
      "stateMutability": "nonpayable",
      "type": "function"
    },
    {
      "inputs": [],
      "name": "renounceOwnership",
      "outputs": [],
      "stateMutability": "nonpayable",
      "type": "function"
    },
    {
      "inputs": [
        {
          "internalType": "bool",
          "name": "_releazeFunds",
          "type": "bool"
        },
        {
          "internalType": "string",
          "name": "_reasoning",
          "type": "string"
        }
      ],
      "name": "resolveDispute",
      "outputs": [],
      "stateMutability": "nonpayable",
      "type": "function"
    },
    {
      "inputs": [
        {
          "internalType": "address",
          "name": "_agent",
          "type": "address"
        }
      ],
      "name": "revokeAgent",
      "outputs": [],
      "stateMutability": "nonpayable",
      "type": "function"
    },
    {
      "inputs": [
        {
          "internalType": "address",
          "name": "newOwner",
          "type": "address"
        }
      ],
      "name": "transferOwnership",
      "outputs": [],
      "stateMutability": "nonpayable",
      "type": "function"
    },
    {
      "inputs": [],
      "name": "unpause",
      "outputs": [],
      "stateMutability": "nonpayable",
      "type": "function"
    },
    {
      "stateMutability": "payable",
      "type": "receive"
    }
  ],
  "bytecode": "0x608060405234801561000f575f5ffd5b506040516129bf3803806129bf83398101604081905261002e91610393565b60015f55338061005757604051631e4fbdf760e01b81525f600482015260240160405180910390fd5b61006081610313565b506001600160a01b03881661008857604051634324b9cf60e01b815260040160405180910390fd5b6001600160a01b0387166100af576040516341c37f5f60e11b815260040160405180910390fd5b845f036100cf57604051631bcdac3d60e21b815260040160405180910390fd5b4284116100ef576040516305d169e960e11b815260040160405180910390fd5b815f0361010f5760405163268b000760e01b815260040160405180910390fd5b6001600160a01b03811661013657604051637be1c5fb60e01b815260040160405180910390fd5b604051806101600160405280896001600160a01b03168152602001886001600160a01b031681526020015f6001600160a01b03168152602001876001600160a01b031681526020018681526020018581526020015f600481111561019c5761019c6104a4565b8152602001428152602001428152602080820186905260409182018590528251600280546001600160a01b03199081166001600160a01b039384161782559285015160038054851691841691909117905592840151600480548416918316919091178155606085015160058054909416921691909117909155608083015160065560a083015160075560c0830151600880549192909160ff191690600190849081111561024b5761024b6104a4565b021790555060e082015160078201556101008201516008820155610120820151600982019061027a908261053c565b506101409190910151600a90910155601680546001600160a01b0319166001600160a01b038381169190911790915560326013556064601455612710601555604080518883168152602081018890529081018690525f9189811691908b16907fae4afeae517547c89e021ef11c8647b223ef2849e6a4929e9e238dc5945c4e7c9060600160405180910390a450505050505050506105f6565b600180546001600160a01b038381166001600160a01b0319831681179093556040519116919082907f8be0079c531659141344cd1fd0a4f28419497f9722a3daafe3b4186f6b6457e0905f90a35050565b80516001600160a01b038116811461037a575f5ffd5b919050565b634e487b7160e01b5f52604160045260245ffd5b5f5f5f5f5f5f5f5f610100898b0312156103ab575f5ffd5b6103b489610364565b97506103c260208a01610364565b96506103d060408a01610364565b60608a015160808b015160a08c015192985090965094506001600160401b038111156103fa575f5ffd5b8901601f81018b1361040a575f5ffd5b80516001600160401b038111156104235761042361037f565b604051601f8201601f19908116603f011681016001600160401b03811182821017156104515761045161037f565b6040528181528282016020018d1015610468575f5ffd5b8160208401602083015e5f9181016020019190915260c08b01519094509250610495905060e08a01610364565b90509295985092959890939650565b634e487b7160e01b5f52602160045260245ffd5b600181811c908216806104cc57607f821691505b6020821081036104ea57634e487b7160e01b5f52602260045260245ffd5b50919050565b601f82111561053757805f5260205f20601f840160051c810160208510156105155750805b601f840160051c820191505b81811015610534575f8155600101610521565b50505b505050565b81516001600160401b038111156105555761055561037f565b6105698161056384546104b8565b846104f0565b6020601f82116001811461059b575f83156105845750848201515b5f19600385901b1c1916600184901b178455610534565b5f84815260208120601f198516915b828110156105ca57878501518255602094850194600190920191016105aa565b50848210156105e757868401515f19600387901b60f8161c191681555b50505050600190811b01905550565b6123bc806106035f395ff3fe60806040526004361061013f575f3560e01c80638456cb59116100b3578063d2c9ea031161006d578063d2c9ea0314610316578063db2e21bc1461032a578063dd35dabf1461033e578063efd7606514610352578063f2fde38b14610380578063fd3d3b421461039f575f5ffd5b80638456cb59146102745780638da5cb5b1461028857806393dd201d146102af578063a7b4f4ea146102ce578063a978b370146102ed578063d0e30db01461030e575f5ffd5b806369d895751161010457806369d89575146101db5780636d88b24d146101ef578063715018a61461020e578063725a3b4b146102225780637323f71e146102415780637da6ac0d14610255575f5ffd5b806312065fe01461014a5780632f13b60c146101715780633f4ba83a1461019357806349569b82146101a95780635c975abb146101bd575f5ffd5b3661014657005b5f5ffd5b348015610155575f5ffd5b5061015e6103b3565b6040519081526020015b60405180910390f35b34801561017c575f5ffd5b5060075442115b6040519015158152602001610168565b34801561019e575f5ffd5b506101a7610439565b005b3480156101b4575f5ffd5b506101a761044b565b3480156101c8575f5ffd5b50600154600160a01b900460ff16610183565b3480156101e6575f5ffd5b506101a761053c565b3480156101fa575f5ffd5b506101a7610209366004611dcf565b610612565b348015610219575f5ffd5b506101a7610664565b34801561022d575f5ffd5b506101a761023c366004611e9b565b610675565b34801561024c575f5ffd5b506101836108e5565b348015610260575f5ffd5b506101a761026f366004611dcf565b610a77565b34801561027f575f5ffd5b506101a7610a9f565b348015610293575f5ffd5b506001546040516001600160a01b039091168152602001610168565b3480156102ba575f5ffd5b506101a76102c9366004611ee2565b610aaf565b3480156102d9575f5ffd5b506101a76102e8366004611ee2565b610c3b565b3480156102f8575f5ffd5b50610301610c7a565b6040516101689190612037565b6101a7610f91565b348015610321575f5ffd5b506101a761124a565b348015610335575f5ffd5b506101a7611345565b348015610349575f5ffd5b506101a76114a0565b34801561035d575f5ffd5b5061018361036c366004611dcf565b60176020525f908152604090205460ff1681565b34801561038b575f5ffd5b506101a761039a366004611dcf565b61159b565b3480156103aa575f5ffd5b506101a76115da565b6005545f906001600160a01b03166103ca57504790565b6005546040516370a0823160e01b81523060048201526001600160a01b03909116906370a0823190602401602060405180830381865afa158015610410573d5f5f3e3d5ffd5b505050506040513d601f19601f820116820180604052508101906104349190612156565b905090565b610441611619565b610449611646565b565b61045361169b565b61045b6116c3565b60018060085460ff16600481111561047557610475611f2f565b1461049357604051635448814d60e11b815260040160405180910390fd5b6002546001600160a01b0316336001600160a01b0316141580156104cb57506004546001600160a01b0316336001600160a01b031614155b156104e9576040516316f238dd60e01b815260040160405180910390fd5b6002546001600160a01b0316330361051d57600754421161051d57604051633376277360e11b815260040160405180910390fd5b600254610532906001600160a01b03166116ee565b5061044960015f55565b61054461169b565b61054c6116c3565b60018060085460ff16600481111561056657610566611f2f565b1461058457604051635448814d60e11b815260040160405180910390fd5b6007544211156105a7576040516390331c3b60e01b815260040160405180910390fd5b6002546001600160a01b0316336001600160a01b0316141580156105df57506004546001600160a01b0316336001600160a01b031614155b156105fd576040516336d8077160e21b815260040160405180910390fd5b600354610532906001600160a01b03166116ee565b61061a611619565b6001600160a01b03811661064157604051635697b36760e01b815260040160405180910390fd5b6001600160a01b03165f908152601760205260409020805460ff19166001179055565b61066c611619565b6104495f611aef565b61067d61169b565b6106856116c3565b6002546001600160a01b0316336001600160a01b0316141580156106bd57506003546001600160a01b0316336001600160a01b031614155b156106db576040516304a31a6b60e11b815260040160405180910390fd5b60018060085460ff1660048111156106f5576106f5611f2f565b1461071357604051635448814d60e11b815260040160405180910390fd5b600754421115610736576040516390331c3b60e01b815260040160405180910390fd5b81515f0361075757604051630ae1727760e41b815260040160405180910390fd5b6008805460ff1916600217905542600a81905560408051610100810182526001815233602082015290810161078b85611b40565b815260208082018490526004546001600160a01b03166040808401919091525f6060840152805180820190915260028152614e4160f01b918101919091526080909101906107d890611b40565b81525f6020918201528151600d8054928401516001600160a01b031661010002610100600160a81b0319921515929092166001600160a81b0319909316929092171781556040820151600e9061082e90826121f0565b5060608201516002820155608082015160038201805460a08501511515600160a01b026001600160a81b03199091166001600160a01b039093169290921791909117905560c0820151600482019061088690826121f0565b5060e09190910151600590910155336001600160a01b03167fd4882c6b71dfbb8df0a01fa4cd97676f243a56dd525df6b891b2e1700e514e8984836040516108cf9291906122ab565b60405180910390a250506108e260015f55565b50565b6001545f9033906001600160a01b0316604051630e6816db60e01b81526001600160a01b038381166004830152600160248301529190911690630e6816db906044016020604051808303815f875af1158015610943573d5f5f3e3d5ffd5b505050506040513d601f19601f8201168201806040525081019061096791906122cc565b6109845760405163c19f17a960e01b815260040160405180910390fd5b6004546001600160a01b03908116908216036109b357604051631b62144360e31b815260040160405180910390fd5b6004546001600160a01b031615610a1857600d5460ff16156109f757600f544210156109f25760405163e33f4dbf60e01b815260040160405180910390fd5b610a18565b60125415610a185760405163e54a2f1b60e01b815260040160405180910390fd5b6004546040516001600160a01b038084169216907f3c10faad3dc661fd434eb5a5f0d4266ae861fb97b12573d8c1914015746b33c3905f90a3600480546001600160a01b0319166001600160a01b039290921691909117905550600190565b610a7f611619565b6001600160a01b03165f908152601760205260409020805460ff19169055565b610aa7611619565b610449611b69565b610ab761169b565b610abf6116c3565b6004546001600160a01b0316336001600160a01b031614610af35760405163e90ca8f760e01b815260040160405180910390fd5b60028060085460ff166004811115610b0d57610b0d611f2f565b14610b2b57604051635448814d60e11b815260040160405180910390fd5b600d5460ff16610b4e57604051633f902c5560e01b815260040160405180910390fd5b81515f03610b6f57604051634b699e6f60e01b815260040160405180910390fd5b6010805460ff60a01b1916600160a01b8515150217905542610b9083611b40565b601190610b9d90826121f0565b506012819055600d805460ff19169055600a8190558315610bd257600354610bcd906001600160a01b03166116ee565b610be7565b600254610be7906001600160a01b03166116ee565b336001600160a01b03167f31965f570dee6f4e7e90e64d5d983d6ec3ac08f7cd7324907daa56cb53efe3dd858584604051610c24939291906122e7565b60405180910390a25050610c3760015f55565b5050565b610c4361169b565b610c4b6116c3565b335f9081526017602052604090205460ff16610af35760405163446bb9e160e11b815260040160405180910390fd5b610c82611ce5565b604080516102208101909152600280546001600160a01b0390811660c08401908152600354821660e08501526004805483166101008601526005549092166101208501526006546101408501526007546101608501526008548492849161018085019160ff90911690811115610cfa57610cfa611f2f565b6004811115610d0b57610d0b611f2f565b81526020016007820154815260200160088201548152602001600982018054610d339061216d565b80601f0160208091040260200160405190810160405280929190818152602001828054610d5f9061216d565b8015610daa5780601f10610d8157610100808354040283529160200191610daa565b820191905f5260205f20905b815481529060010190602001808311610d8d57829003601f168201915b5050509183525050600a9190910154602091820152908252604080516101008082018352600b8601805460ff811615158452919091046001600160a01b031682850152600c86018054959094019491939092840191610e089061216d565b80601f0160208091040260200160405190810160405280929190818152602001828054610e349061216d565b8015610e7f5780601f10610e5657610100808354040283529160200191610e7f565b820191905f5260205f20905b815481529060010190602001808311610e6257829003601f168201915b50505091835250506002820154602082015260038201546001600160a01b0381166040830152600160a01b900460ff1615156060820152600482018054608090920191610ecb9061216d565b80601f0160208091040260200160405190810160405280929190818152602001828054610ef79061216d565b8015610f425780601f10610f1957610100808354040283529160200191610f42565b820191905f5260205f20905b815481529060010190602001808311610f2557829003601f168201915b50505091835250506005919091015460209182015290825260118301549082015260128201546040820152601382015460608201526014909101546001600160a01b0316608090910152919050565b610f9961169b565b610fa16116c3565b6002546001600160a01b0316336001600160a01b031614610fd557604051630cc633f560e21b815260040160405180910390fd5b5f8060085460ff166004811115610fee57610fee611f2f565b1461100c57604051635448814d60e11b815260040160405180910390fd5b60075442111561102f576040516390331c3b60e01b815260040160405180910390fd5b6005546001600160a01b0316611067576006543410156110625760405163201c04ab60e01b815260040160405180910390fd5b6111de565b341561108657604051635d48ab7b60e11b815260040160405180910390fd5b6005546006546001600160a01b0390911690816370a08231336040516001600160e01b031960e084901b1681526001600160a01b039091166004820152602401602060405180830381865afa1580156110e1573d5f5f3e3d5ffd5b505050506040513d601f19601f820116820180604052508101906111059190612156565b101561112457604051637222ae5760e11b815260040160405180910390fd5b6006546001600160a01b03821663dd62ed3e336040516001600160e01b031960e084901b1681526001600160a01b039091166004820152306024820152604401602060405180830381865afa15801561117f573d5f5f3e3d5ffd5b505050506040513d601f19601f820116820180604052508101906111a39190612156565b10156111c25760405163a085b77b60e01b815260040160405180910390fd5b6111dc336006546001600160a01b03841691903090611bac565b505b6008805460ff1916600117905542600a81905560055460065460408051918252602082018490526001600160a01b039092169133917f5b002da8d5c2ef25521ad3b170995c1632b4a32f8e09e03999004ae2e5763d5791015b60405180910390a3505061044960015f55565b61125261169b565b61125a6116c3565b6002546001600160a01b0316336001600160a01b03161461128e57604051630cc633f560e21b815260040160405180910390fd5b60018060085460ff1660048111156112a8576112a8611f2f565b146112c657604051635448814d60e11b815260040160405180910390fd5b6007544211156112e9576040516390331c3b60e01b815260040160405180910390fd5b6003546112fe906001600160a01b03166116ee565b336001600160a01b03167f56eac3f4507c7d844ba38c829b5a76e42fb6a4f532b2e390e5a257f909834d614260405190815260200160405180910390a25061044960015f55565b61134d611619565b600154600160a01b900460ff16611377576040516338ea52e560e11b815260040160405180910390fd5b6005546001600160a01b0316611408575f61139a6001546001600160a01b031690565b6001600160a01b0316476040515f6040518083038185875af1925050503d805f81146113e1576040519150601f19603f3d011682016040523d82523d5f602084013e6113e6565b606091505b50509050806108e25760405163801d5b7d60e01b815260040160405180910390fd5b6005546001600160a01b03166108e26114296001546001600160a01b031690565b6040516370a0823160e01b81523060048201526001600160a01b038416906370a0823190602401602060405180830381865afa15801561146b573d5f5f3e3d5ffd5b505050506040513d601f19601f8201168201806040525081019061148f9190612156565b6001600160a01b0384169190611c19565b6114a861169b565b6114b06116c3565b335f9081526017602052604090205460ff166114df5760405163446bb9e160e11b815260040160405180910390fd5b5f8060085460ff1660048111156114f8576114f8611f2f565b1461151657604051635448814d60e11b815260040160405180910390fd5b600754421115611539576040516390331c3b60e01b815260040160405180910390fd5b6008805460ff1916600117905542600a81905560055460025460065460408051918252602082018590526001600160a01b0393841693909216917f5b002da8d5c2ef25521ad3b170995c1632b4a32f8e09e03999004ae2e5763d579101611237565b6115a3611619565b6001600160a01b0381166115d157604051631e4fbdf760e01b81525f60048201526024015b60405180910390fd5b6108e281611aef565b6115e261169b565b6115ea6116c3565b335f9081526017602052604090205460ff1661128e5760405163446bb9e160e11b815260040160405180910390fd5b6001546001600160a01b031633146104495760405163118cdaa760e01b81523360048201526024016115c8565b61164e611c4f565b6001805460ff60a01b191690557f5db9ee0a495bf2e6ff9c91a7834c1ba4fdd244a5e8aa4e537bd38aeae4b073aa335b6040516001600160a01b03909116815260200160405180910390a1565b60025f54036116bd57604051633ee5aeb560e01b815260040160405180910390fd5b60025f55565b600154600160a01b900460ff16156104495760405163d93c066560e01b815260040160405180910390fd5b600160085460ff16600481111561170757611707611f2f565b1415801561172c5750600260085460ff16600481111561172957611729611f2f565b14155b1561174a57604051630318d33960e11b815260040160405180910390fd5b6006546015546013545f91906117609084612325565b61176a9190612342565b6015546014549192505f9161177f9085612325565b6117899190612342565b90505f816117978486612361565b6117a19190612361565b60035490915042906001600160a01b038781169116146117c25760046117c5565b60035b6008805460ff191660018360048111156117e1576117e1611f2f565b0217905550600a8190556005546001600160a01b031661196a578115611873575f866001600160a01b0316836040515f6040518083038185875af1925050503d805f811461184a576040519150601f19603f3d011682016040523d82523d5f602084013e61184f565b606091505b50509050806118715760405163263b8f0b60e01b815260040160405180910390fd5b505b83156118ec576016546040515f916001600160a01b03169086908381818185875af1925050503d805f81146118c3576040519150601f19603f3d011682016040523d82523d5f602084013e6118c8565b606091505b50509050806118ea5760405163075b552d60e01b815260040160405180910390fd5b505b8215611965576004546040515f916001600160a01b03169085908381818185875af1925050503d805f811461193c576040519150601f19603f3d011682016040523d82523d5f602084013e611941565b606091505b505090508061196357604051639935678b60e01b815260040160405180910390fd5b505b6119d2565b6005546001600160a01b03168215611990576119906001600160a01b0382168885611c19565b84156119b0576016546119b0906001600160a01b03838116911687611c19565b83156119d0576004546119d0906001600160a01b03838116911686611c19565b505b6004546001600160a01b031615611a9c576001546001600160a01b03166004805460405163768163b560e01b81526001600160a01b0391821692810192909252919091169063768163b5906024016020604051808303815f875af1158015611a3c573d5f5f3e3d5ffd5b505050506040513d601f19601f82011682018060405250810190611a6091906122cc565b611a9c5760405162461bcd60e51b815260206004820152600d60248201526c155c19185d194819985a5b1959609a1b60448201526064016115c8565b60055460408051848152602081018490526001600160a01b03928316928916917f156a4978af062770a3b6956fc1ac116b21bff165eaa8d67a555927fd1384c27e910160405180910390a3505050505050565b600180546001600160a01b038381166001600160a01b0319831681179093556040519116919082907f8be0079c531659141344cd1fd0a4f28419497f9722a3daafe3b4186f6b6457e0905f90a35050565b606081604051602001611b539190612374565b6040516020818303038152906040529050919050565b611b716116c3565b6001805460ff60a01b1916600160a01b1790557f62e78cea01bee320cd4e420270b5ea74000d11b0c9f74754ebdbfc544b05a25861167e3390565b6040516001600160a01b038481166024830152838116604483015260648201839052611c139186918216906323b872dd906084015b604051602081830303815290604052915060e01b6020820180516001600160e01b038381831617835250505050611c79565b50505050565b6040516001600160a01b03838116602483015260448201839052611c4a91859182169063a9059cbb90606401611be1565b505050565b600154600160a01b900460ff1661044957604051638dfc202b60e01b815260040160405180910390fd5b5f5f60205f8451602086015f885af180611c98576040513d5f823e3d81fd5b50505f513d91508115611caf578060011415611cbc565b6001600160a01b0384163b155b15611c1357604051635274afe760e01b81526001600160a01b03851660048201526024016115c8565b6040805161022081019091525f60c0820181815260e08301829052610100830182905261012083018290526101408301829052610160830182905261018083018290526101a083018290526101c0830182905260606101e084015261020083019190915281908152602001611da86040518061010001604052805f151581526020015f6001600160a01b03168152602001606081526020015f81526020015f6001600160a01b031681526020015f15158152602001606081526020015f81525090565b81526020015f81526020015f81526020015f81526020015f6001600160a01b031681525090565b5f60208284031215611ddf575f5ffd5b81356001600160a01b0381168114611df5575f5ffd5b9392505050565b634e487b7160e01b5f52604160045260245ffd5b5f82601f830112611e1f575f5ffd5b813567ffffffffffffffff811115611e3957611e39611dfc565b604051601f8201601f19908116603f0116810167ffffffffffffffff81118282101715611e6857611e68611dfc565b604052818152838201602001851015611e7f575f5ffd5b816020850160208301375f918101602001919091529392505050565b5f60208284031215611eab575f5ffd5b813567ffffffffffffffff811115611ec1575f5ffd5b611ecd84828501611e10565b949350505050565b80151581146108e2575f5ffd5b5f5f60408385031215611ef3575f5ffd5b8235611efe81611ed5565b9150602083013567ffffffffffffffff811115611f19575f5ffd5b611f2585828601611e10565b9150509250929050565b634e487b7160e01b5f52602160045260245ffd5b60058110611f5f57634e487b7160e01b5f52602160045260245ffd5b9052565b5f81518084528060208401602086015e5f602082860101526020601f19601f83011685010191505092915050565b8051151582525f6020820151611fb260208501826001600160a01b03169052565b5060408201516101006040850152611fce610100850182611f63565b9050606083015160608501526080830151611ff460808601826001600160a01b03169052565b5060a083015161200860a086018215159052565b5060c083015184820360c08601526120208282611f63565b91505060e083015160e08501528091505092915050565b602081525f825160c0602084015261205b60e0840182516001600160a01b03169052565b60208101516001600160a01b0390811661010085015260408201518116610120850152606082015116610140840152608081015161016084015260a081015161018084015260c08101516120b36101a0850182611f43565b5060e08101516101c08401526101008101516101e08401526101208101516101606102008501526120e8610240850182611f63565b6101409290920151610220850152506020840151838203601f19016040850152906121138183611f91565b9150506040840151606084015260608401516080840152608084015160a084015260a084015161214e60c08501826001600160a01b03169052565b509392505050565b5f60208284031215612166575f5ffd5b5051919050565b600181811c9082168061218157607f821691505b60208210810361219f57634e487b7160e01b5f52602260045260245ffd5b50919050565b601f821115611c4a57805f5260205f20601f840160051c810160208510156121ca5750805b601f840160051c820191505b818110156121e9575f81556001016121d6565b5050505050565b815167ffffffffffffffff81111561220a5761220a611dfc565b61221e81612218845461216d565b846121a5565b6020601f821160018114612250575f83156122395750848201515b5f19600385901b1c1916600184901b1784556121e9565b5f84815260208120601f198516915b8281101561227f578785015182556020948501946001909201910161225f565b508482101561229c57868401515f19600387901b60f8161c191681555b50505050600190811b01905550565b604081525f6122bd6040830185611f63565b90508260208301529392505050565b5f602082840312156122dc575f5ffd5b8151611df581611ed5565b8315158152606060208201525f6123016060830185611f63565b9050826040830152949350505050565b634e487b7160e01b5f52601160045260245ffd5b808202811582820484141761233c5761233c612311565b92915050565b5f8261235c57634e487b7160e01b5f52601260045260245ffd5b500490565b8181038181111561233c5761233c612311565b602081525f611df56020830184611f6356fea2646970667358221220a5587697bcc74922126baa9adb642f7f241925fc8efc003902b9428f2d1dc8d664736f6c634300081e0033",
  "linkReferences": {},
  "deployedLinkReferences": {},
  "immutableReferences": {},
  "inputSourceName": "project/contracts/escrow/Escrow.sol",
  "buildInfoId": "solc-0_8_30-87b385b6323be1c1bb4523a58b641ebd498ed3a2"
}