{
  "_format": "hh3-artifact-1",
  "contractName": "EscrowFactory",
  "sourceName": "contracts/escrow/EscrowFactory.sol",
  "abi": [
    {
      "inputs": [
        {
          "internalType": "address",
          "name": "_platformFeeRecipient",
          "type": "address"
        },
        {
          "internalType": "contract IArbitrators",
          "name": "_arbitrator",
          "type": "address"
        }
      ],
      "stateMutability": "nonpayable",
      "type": "constructor"
    },
    {
      "inputs": [],
      "name": "AmountMustBeGreaterThanZero",
      "type": "error"
    },
    {
      "inputs": [],
      "name": "BuyerAndArbiterCannotBeTheSame",
      "type": "error"
    },
    {
      "inputs": [],
      "name": "BuyerAndSellerCannotBeTheSame",
      "type": "error"
    },
    {
      "inputs": [],
      "name": "ContractMustBePaused",
      "type": "error"
    },
    {
      "inputs": [],
      "name": "DeadlineMustBeInTheFuture",
      "type": "error"
    },
    {
      "inputs": [],
      "name": "DescriptionCannotBeEmpty",
      "type": "error"
    },
    {
      "inputs": [],
      "name": "DisputeWindowCannotExceedSevenDays",
      "type": "error"
    },
    {
      "inputs": [],
      "name": "DisputeWindowMustBeGreaterThanZero",
      "type": "error"
    },
    {
      "inputs": [],
      "name": "EnforcedPause",
      "type": "error"
    },
    {
      "inputs": [],
      "name": "ErrorSendingToPlatformFeeRecipient",
      "type": "error"
    },
    {
      "inputs": [],
      "name": "ExpectedPause",
      "type": "error"
    },
    {
      "inputs": [
        {
          "internalType": "uint256",
          "name": "valueSent",
          "type": "uint256"
        }
      ],
      "name": "InsufficientCreationFee",
      "type": "error"
    },
    {
      "inputs": [],
      "name": "InvalidAddress",
      "type": "error"
    },
    {
      "inputs": [],
      "name": "InvalidEscrowAddress",
      "type": "error"
    },
    {
      "inputs": [],
      "name": "OffsetOutOfBounds",
      "type": "error"
    },
    {
      "inputs": [
        {
          "internalType": "address",
          "name": "owner",
          "type": "address"
        }
      ],
      "name": "OwnableInvalidOwner",
      "type": "error"
    },
    {
      "inputs": [
        {
          "internalType": "address",
          "name": "account",
          "type": "address"
        }
      ],
      "name": "OwnableUnauthorizedAccount",
      "type": "error"
    },
    {
      "inputs": [],
      "name": "ReentrancyGuardReentrantCall",
      "type": "error"
    },
    {
      "inputs": [],
      "name": "SellerAndArbiterCannotBeTheSame",
      "type": "error"
    },
    {
      "inputs": [],
      "name": "WithdrawalFailed",
      "type": "error"
    },
    {
      "anonymous": false,
      "inputs": [
        {
          "indexed": false,
          "internalType": "uint256",
          "name": "oldWindow",
          "type": "uint256"
        },
        {
          "indexed": false,
          "internalType": "uint256",
          "name": "newWindow",
          "type": "uint256"
        }
      ],
      "name": "DefaultDisputeWindowUpdated",
      "type": "event"
    },
    {
      "anonymous": false,
      "inputs": [
        {
          "indexed": true,
          "internalType": "address",
          "name": "escrowAddress",
          "type": "address"
        },
        {
          "indexed": true,
          "internalType": "address",
          "name": "buyer",
          "type": "address"
        },
        {
          "indexed": true,
          "internalType": "address",
          "name": "seller",
          "type": "address"
        },
        {
          "indexed": false,
          "internalType": "uint256",
          "name": "timestamp",
          "type": "uint256"
        }
      ],
      "name": "EscrowCreated",
      "type": "event"
    },
    {
      "anonymous": false,
      "inputs": [
        {
          "indexed": true,
          "internalType": "address",
          "name": "previousOwner",
          "type": "address"
        },
        {
          "indexed": true,
          "internalType": "address",
          "name": "newOwner",
          "type": "address"
        }
      ],
      "name": "OwnershipTransferred",
      "type": "event"
    },
    {
      "anonymous": false,
      "inputs": [
        {
          "indexed": false,
          "internalType": "address",
          "name": "account",
          "type": "address"
        }
      ],
      "name": "Paused",
      "type": "event"
    },
    {
      "anonymous": false,
      "inputs": [
        {
          "indexed": true,
          "internalType": "address",
          "name": "oldRecipient",
          "type": "address"
        },
        {
          "indexed": true,
          "internalType": "address",
          "name": "newRecipient",
          "type": "address"
        }
      ],
      "name": "PlatformFeeRecipientUpdated",
      "type": "event"
    },
    {
      "anonymous": false,
      "inputs": [
        {
          "indexed": false,
          "internalType": "address",
          "name": "account",
          "type": "address"
        }
      ],
      "name": "Unpaused",
      "type": "event"
    },
    {
      "inputs": [
        {
          "internalType": "address",
          "name": "_buyer",
          "type": "address"
        },
        {
          "internalType": "address",
          "name": "_seller",
          "type": "address"
        },
        {
          "internalType": "address",
          "name": "_assetToken",
          "type": "address"
        },
        {
          "internalType": "uint256",
          "name": "_assetAmount",
          "type": "uint256"
        },
        {
          "internalType": "uint256",
          "name": "_deadline",
          "type": "uint256"
        },
        {
          "internalType": "string",
          "name": "_description",
          "type": "string"
        },
        {
          "internalType": "uint256",
          "name": "_disputeWindowHours",
          "type": "uint256"
        }
      ],
      "name": "createEscrow",
      "outputs": [
        {
          "internalType": "bool",
          "name": "",
          "type": "bool"
        }
      ],
      "stateMutability": "payable",
      "type": "function"
    },
    {
      "inputs": [
        {
          "internalType": "address",
          "name": "_buyer",
          "type": "address"
        },
        {
          "internalType": "address",
          "name": "_seller",
          "type": "address"
        },
        {
          "internalType": "address",
          "name": "_assetToken",
          "type": "address"
        },
        {
          "internalType": "uint256",
          "name": "_assetAmount",
          "type": "uint256"
        },
        {
          "internalType": "uint256",
          "name": "_deadline",
          "type": "uint256"
        },
        {
          "internalType": "string",
          "name": "_description",
          "type": "string"
        }
      ],
      "name": "createEscrowWithDefaultWindow",
      "outputs": [
        {
          "internalType": "bool",
          "name": "",
          "type": "bool"
        }
      ],
      "stateMutability": "payable",
      "type": "function"
    },
    {
      "inputs": [],
      "name": "emergencyWithdraw",
      "outputs": [
        {
          "internalType": "bool",
          "name": "",
          "type": "bool"
        }
      ],
      "stateMutability": "nonpayable",
      "type": "function"
    },
    {
      "inputs": [],
      "name": "getAllEscrows",
      "outputs": [
        {
          "internalType": "address[]",
          "name": "",
          "type": "address[]"
        }
      ],
      "stateMutability": "view",
      "type": "function"
    },
    {
      "inputs": [
        {
          "internalType": "address",
          "name": "arbiter",
          "type": "address"
        }
      ],
      "name": "getArbiterStatus",
      "outputs": [
        {
          "internalType": "bool",
          "name": "",
          "type": "bool"
        },
        {
          "internalType": "uint8",
          "name": "num",
          "type": "uint8"
        }
      ],
      "stateMutability": "view",
      "type": "function"
    },
    {
      "inputs": [
        {
          "internalType": "address",
          "name": "_user",
          "type": "address"
        }
      ],
      "name": "getData",
      "outputs": [
        {
          "components": [
            {
              "internalType": "address[]",
              "name": "allEscrow",
              "type": "address[]"
            },
            {
              "internalType": "address[]",
              "name": "userEscrows",
              "type": "address[]"
            },
            {
              "internalType": "uint256",
              "name": "totalEscrows",
              "type": "uint256"
            },
            {
              "internalType": "uint256",
              "name": "userEscrowCount",
              "type": "uint256"
            },
            {
              "internalType": "address",
              "name": "arbitrator",
              "type": "address"
            },
            {
              "internalType": "address",
              "name": "platformFeeRecipient",
              "type": "address"
            },
            {
              "internalType": "uint256",
              "name": "defaultDisputeWindowHours",
              "type": "uint256"
            },
            {
              "internalType": "uint256",
              "name": "totalEscrowsCreated",
              "type": "uint256"
            },
            {
              "internalType": "uint256",
              "name": "creationFee",
              "type": "uint256"
            }
          ],
          "internalType": "struct IEscrowFactory.ReadData",
          "name": "",
          "type": "tuple"
        }
      ],
      "stateMutability": "view",
      "type": "function"
    },
    {
      "inputs": [
        {
          "internalType": "address payable",
          "name": "_escrowAddress",
          "type": "address"
        }
      ],
      "name": "getEscrowDetails",
      "outputs": [
        {
          "components": [
            {
              "internalType": "address",
              "name": "buyer",
              "type": "address"
            },
            {
              "internalType": "address",
              "name": "seller",
              "type": "address"
            },
            {
              "internalType": "address",
              "name": "arbiter",
              "type": "address"
            },
            {
              "internalType": "address",
              "name": "assetToken",
              "type": "address"
            },
            {
              "internalType": "uint256",
              "name": "assetAmount",
              "type": "uint256"
            },
            {
              "internalType": "uint256",
              "name": "deadline",
              "type": "uint256"
            },
            {
              "internalType": "enum IEscrow.EscrowState",
              "name": "state",
              "type": "uint8"
            },
            {
              "internalType": "uint256",
              "name": "createdAt",
              "type": "uint256"
            },
            {
              "internalType": "uint256",
              "name": "updatedAt",
              "type": "uint256"
            },
            {
              "internalType": "string",
              "name": "description",
              "type": "string"
            },
            {
              "internalType": "uint256",
              "name": "disputeWindowHours",
              "type": "uint256"
            }
          ],
          "internalType": "struct IEscrow.EscrowDetails",
          "name": "",
          "type": "tuple"
        }
      ],
      "stateMutability": "view",
      "type": "function"
    },
    {
      "inputs": [
        {
          "internalType": "address payable",
          "name": "_escrowAddress",
          "type": "address"
        }
      ],
      "name": "getEscrowState",
      "outputs": [
        {
          "internalType": "enum IEscrow.EscrowState",
          "name": "",
          "type": "uint8"
        }
      ],
      "stateMutability": "view",
      "type": "function"
    },
    {
      "inputs": [
        {
          "internalType": "uint256",
          "name": "_offset",
          "type": "uint256"
        },
        {
          "internalType": "uint256",
          "name": "_limit",
          "type": "uint256"
        }
      ],
      "name": "getEscrowsPaginated",
      "outputs": [
        {
          "internalType": "address[]",
          "name": "",
          "type": "address[]"
        }
      ],
      "stateMutability": "view",
      "type": "function"
    },
    {
      "inputs": [],
      "name": "getTotalEscrows",
      "outputs": [
        {
          "internalType": "uint256",
          "name": "",
          "type": "uint256"
        }
      ],
      "stateMutability": "view",
      "type": "function"
    },
    {
      "inputs": [
        {
          "internalType": "address",
          "name": "_user",
          "type": "address"
        }
      ],
      "name": "getUserEscrowCount",
      "outputs": [
        {
          "internalType": "uint256",
          "name": "",
          "type": "uint256"
        }
      ],
      "stateMutability": "view",
      "type": "function"
    },
    {
      "inputs": [
        {
          "internalType": "address",
          "name": "_user",
          "type": "address"
        }
      ],
      "name": "getUserEscrows",
      "outputs": [
        {
          "internalType": "address[]",
          "name": "",
          "type": "address[]"
        }
      ],
      "stateMutability": "view",
      "type": "function"
    },
    {
      "inputs": [
        {
          "internalType": "address",
          "name": "arbiter",
          "type": "address"
        },
        {
          "internalType": "uint8",
          "name": "flag",
          "type": "uint8"
        }
      ],
      "name": "isApprovedArbiter",
      "outputs": [
        {
          "internalType": "bool",
          "name": "",
          "type": "bool"
        }
      ],
      "stateMutability": "nonpayable",
      "type": "function"
    },
    {
      "inputs": [
        {
          "internalType": "address",
          "name": "_escrowAddress",
          "type": "address"
        }
      ],
      "name": "isValidEscrow",
      "outputs": [
        {
          "internalType": "bool",
          "name": "",
          "type": "bool"
        }
      ],
      "stateMutability": "view",
      "type": "function"
    },
    {
      "inputs": [],
      "name": "owner",
      "outputs": [
        {
          "internalType": "address",
          "name": "",
          "type": "address"
        }
      ],
      "stateMutability": "view",
      "type": "function"
    },
    {
      "inputs": [],
      "name": "pause",
      "outputs": [],
      "stateMutability": "nonpayable",
      "type": "function"
    },
    {
      "inputs": [],
      "name": "paused",
      "outputs": [
        {
          "internalType": "bool",
          "name": "",
          "type": "bool"
        }
      ],
      "stateMutability": "view",
      "type": "function"
    },
    {
      "inputs": [],
      "name": "renounceOwnership",
      "outputs": [],
      "stateMutability": "nonpayable",
      "type": "function"
    },
    {
      "inputs": [
        {
          "internalType": "address",
          "name": "newOwner",
          "type": "address"
        }
      ],
      "name": "transferOwnership",
      "outputs": [],
      "stateMutability": "nonpayable",
      "type": "function"
    },
    {
      "inputs": [],
      "name": "unpause",
      "outputs": [],
      "stateMutability": "nonpayable",
      "type": "function"
    },
    {
      "inputs": [
        {
          "internalType": "address",
          "name": "arbiter",
          "type": "address"
        }
      ],
      "name": "updateArbiterStatus",
      "outputs": [
        {
          "internalType": "bool",
          "name": "",
          "type": "bool"
        }
      ],
      "stateMutability": "nonpayable",
      "type": "function"
    },
    {
      "inputs": [
        {
          "internalType": "uint256",
          "name": "_newFee",
          "type": "uint256"
        }
      ],
      "name": "updateCreationFee",
      "outputs": [],
      "stateMutability": "nonpayable",
      "type": "function"
    },
    {
      "inputs": [
        {
          "internalType": "uint256",
          "name": "_newWindow",
          "type": "uint256"
        }
      ],
      "name": "updateDefaultDisputeWindow",
      "outputs": [],
      "stateMutability": "nonpayable",
      "type": "function"
    },
    {
      "inputs": [
        {
          "internalType": "address",
          "name": "_newRecipient",
          "type": "address"
        }
      ],
      "name": "updatePlatformFeeRecipient",
      "outputs": [],
      "stateMutability": "nonpayable",
      "type": "function"
    },
    {
      "stateMutability": "payable",
      "type": "receive"
    }
  ],
  "bytecode": "0x60803461012a57601f613f3638819003918201601f19168301916001600160401b0383118484101761012f57808492604094855283398101031261012a5780516001600160a01b038116919082900361012a57602001516001600160a01b0381169081900361012a5733156101145760008054336001600160a01b0319821681178355604051949290916001600160a01b0316907f8be0079c531659141344cd1fd0a4f28419497f9722a3daafe3b4186f6b6457e09080a360018055601860085566038d7ea4c68000600a5580156101035781156101035760018060a01b0319600754161760075560018060a01b03196003541617600355613df090816101468239f35b63e6c4247b60e01b60005260046000fd5b631e4fbdf760e01b600052600060045260246000fd5b600080fd5b634e487b7160e01b600052604160045260246000fdfe6080604052600436101561001b575b361561001957600080fd5b005b60003560e01c80630544c68014610f6a5780630707950d14610f075780630e6816db14610de15780631f31914f14610b2b5780631f970cec14610a7557806329415a59146108db5780632dabe8e61461089857806338266b22146107255780633f4ba83a146106b45780633f4dbda2146106965780635c975abb146106705780635ccea85e14610636578063646ce6b9146105f75780636b3bad86146105bd5780636fa237951461059c578063715018a614610543578063768163b5146104a85780638456cb59146104465780638da5cb5b1461041d5780639a6ac36f146103ed578063db2e21bc14610374578063e4cfed701461023b578063f2fde38b146101b25763f5fe7f710361000e57346101ad5760203660031901126101ad57610141610fd1565b61014961159d565b6001600160a01b0316801561019c57600780546001600160a01b0319811683179091556001600160a01b03167faf04973bb8004e313cfd09017b963bee1e6f6ffb9be88c07a0c5ce5fafe93403600080a3005b63e6c4247b60e01b60005260046000fd5b600080fd5b346101ad5760203660031901126101ad576101cb610fd1565b6101d361159d565b6001600160a01b0316801561022557600080546001600160a01b03198116831782556001600160a01b0316907f8be0079c531659141344cd1fd0a4f28419497f9722a3daafe3b4186f6b6457e09080a3005b631e4fbdf760e01b600052600060045260246000fd5b346101ad5760403660031901126101ad57600435600254808210156103635760243582019081831161034d57808211610345575b5061027a8282611579565b9161028483611586565b92610292604051948561104b565b8084526102a1601f1991611586565b01366020850137600254815b8381106102ce57604051602080825281906102ca90820188611123565b0390f35b60008282101561033157600290527f405787fa12a823e0f2b7631cc41b3ba8828b3321ca811111fa75cd3aa3bb5ace8101546001600160a01b031660006103158584611579565b908751821015610331575060051b8601602001526001016102ad565b634e487b7160e01b81526032600452602490fd5b90508261026f565b634e487b7160e01b600052601160045260246000fd5b6309605a0160e41b60005260046000fd5b346101ad5760003660031901126101ad5761038d61159d565b60005460ff8160a01c16156103dc5760009081908190819047906001600160a01b03165af16103ba611549565b50156103cb57602060405160018152f35b6327fcd9d160e01b60005260046000fd5b6338ea52e560e11b60005260046000fd5b346101ad5760003660031901126101ad576102ca6104096114a1565b604051918291602083526020830190611123565b346101ad5760003660031901126101ad576000546040516001600160a01b039091168152602090f35b346101ad5760003660031901126101ad5761045f61159d565b6104676115c6565b6000805460ff60a01b1916600160a01b1790556040513381527f62e78cea01bee320cd4e420270b5ea74000d11b0c9f74754ebdbfc544b05a25890602090a1005b346101ad5760203660031901126101ad576104c1610fd1565b33600052600460205260ff6040600020541615610532576001600160a01b0316806104f2575b602060405160018152f35b80600052600660205260ff60406000205416156104e7576000526006602052604060002060ff806000198184541601161660ff19825416179055806104e7565b637398f3f360e11b60005260046000fd5b346101ad5760003660031901126101ad5761055c61159d565b600080546001600160a01b0319811682556001600160a01b03167f8be0079c531659141344cd1fd0a4f28419497f9722a3daafe3b4186f6b6457e08280a3005b346101ad5760203660031901126101ad576105b561159d565b600435600a55005b346101ad5760203660031901126101ad576001600160a01b036105de610fd1565b1660005260056020526020604060002054604051908152f35b346101ad5760203660031901126101ad576001600160a01b03610618610fd1565b166000526004602052602060ff604060002054166040519015158152f35b346101ad5760203660031901126101ad576001600160a01b03610657610fd1565b1660005260056020526102ca61040960406000206114f5565b346101ad5760003660031901126101ad57602060ff60005460a01c166040519015158152f35b346101ad5760003660031901126101ad576020600954604051908152f35b346101ad5760003660031901126101ad576106cd61159d565b60005460ff8160a01c16156107145760ff60a01b19166000556040513381527f5db9ee0a495bf2e6ff9c91a7834c1ba4fdd244a5e8aa4e537bd38aeae4b073aa90602090a1005b638dfc202b60e01b60005260046000fd5b346101ad5760203660031901126101ad57610847610741610fd1565b60006101006040516107528161102f565b60608152606060208201528260408201528260608201528260808201528260a08201528260c08201528260e0820152015260018060a01b03168060005260056020526040600020906009549060005260056020526040600020549060018060a01b03600354169060018060a01b036007541660085490600a54936107eb604051976107dc8961102f565b6107e46114a1565b89526114f5565b956020880196875261085a604089019786895260608a0192835260808a0193845260a08a0194855260c08a0195865260e08a019687526101008a019788526040519a8b9a60208c525161012060208d01526101408c0190611123565b90518a8203601f190160408c0152611123565b96516060890152516080880152516001600160a01b0390811660a088015290511660c08601525160e085015251610100840152516101208301520390f35b346101ad5760203660031901126101ad576001600160a01b036108b9610fd1565b166000526006602052604060ff81600020541681519080151582526020820152f35b346101ad5760203660031901126101ad576004356001600160a01b038116908190036101ad57600061014060405161091281611013565b8281528260208201528260408201528260608201528260808201528260a08201528260c08201528260e0820152826101008201526060610120820152015280600052600460205260ff604060002054161561053257600060049160405192838092630a978b3760e41b82525afa908115610a6957600091610a46575b505160405180916020825260018060a01b03815116602083015260018060a01b03602082015116604083015260018060a01b03604082015116606083015260018060a01b036060820151166080830152608081015160a083015260a081015160c0830152610a0460c082015160e08401906110ce565b60e0810151610100830152610100810151610120830152610140610a39610120830151610160838601526101808501906110fe565b9101516101608301520390f35b610a6391503d806000833e610a5b818361104b565b810190611265565b8161098e565b6040513d6000823e3d90fd5b346101ad5760203660031901126101ad576004356001600160a01b038116908190036101ad5780600052600460205260ff604060002054161561053257600060049160405192838092630a978b3760e41b82525afa8015610a695760c091600091610b10575b505101516005811015610afa57602090610af860405180926110ce565bf35b634e487b7160e01b600052602160045260246000fd5b610b2591503d806000833e610a5b818361104b565b82610adb565b60e03660031901126101ad57610b3f610fd1565b610b47610fe7565b610b4f610ffd565b916064356084359160a4356001600160401b0381116101ad57610b76903690600401611087565b9260c43591600260015414610dd0576002600155610b926115c6565b6001600160a01b031694851561019c576001600160a01b031695861561019c578315610dbf5742821115610dae578215610d9d5760a88311610d8c57600a543410610d7757845115610d6657868614610d555760018060a01b036007541691604051956127d490818801928884106001600160401b03851117610d3f57889760e095610c51946115e78b398b8652602086018d90526001600160a01b031660408601526060850152608084015261010060a084018190528301906110fe565b9360c0820152015203906000f08015610a69576001600160a01b0316610c768161119b565b8060005260046020526040600020600160ff19825416179055816000526005602052610ca68160406000206111e0565b826000526005602052610cbd8160406000206111e0565b600954600019811461034d5760010160095534610d0e575b7fd99c67ae0185d6b0a36717d67d259f252914f7955744e4d81a91685ff480896d6020604051428152a460018055602060405160018152f35b60008080803460018060a01b03600754165af1610d29611549565b50610cd557634e46b67d60e01b60005260046000fd5b634e487b7160e01b600052604160045260246000fd5b636b1a106760e01b60005260046000fd5b632852e1bd60e01b60005260046000fd5b63422d825960e01b6000523460045260246000fd5b63e5af6c4560e01b60005260046000fd5b63268b000760e01b60005260046000fd5b6305d169e960e11b60005260046000fd5b635e85ae7360e01b60005260046000fd5b633ee5aeb560e01b60005260046000fd5b346101ad5760403660031901126101ad57610dfa610fd1565b60243560ff8116918282036101ad5733600052600460205260ff604060002054161561053257600354604051631ce2f06f60e01b81526001600160a01b039283166004820181905290939092909160209185916024918391165afa928315610a6957600093610ec6575b5060016020941480610ebf575b610e82575b50506040519015158152f35b816000526006845260ff806040600020928184541601161660ff1982541617905560005260058252610eb83360406000206111e0565b8280610e76565b5082610e71565b9392506020843d602011610eff575b81610ee26020938361104b565b810103126101ad576001610ef7602095611160565b939450610e64565b3d9150610ed5565b346101ad5760203660031901126101ad57600435610f2361159d565b8015610d9d5760a88111610d8c5760407fd851f9639a02639b24906a1c454dfbfc6eaa4b74daf083840f107403985ecfa491600854908060085582519182526020820152a1005b60c03660031901126101ad57610f7e610fd1565b610f86610fe7565b610f8e610ffd565b916064356084359160a4356001600160401b0381116101ad57610fb5903690600401611087565b9260085491600260015414610dd0576002600155610b926115c6565b600435906001600160a01b03821682036101ad57565b602435906001600160a01b03821682036101ad57565b604435906001600160a01b03821682036101ad57565b61016081019081106001600160401b03821117610d3f57604052565b61012081019081106001600160401b03821117610d3f57604052565b90601f801991011681019081106001600160401b03821117610d3f57604052565b6001600160401b038111610d3f57601f01601f191660200190565b81601f820112156101ad5780359061109e8261106c565b926110ac604051948561104b565b828452602083830101116101ad57816000926020809301838601378301015290565b906005821015610afa5752565b60005b8381106110ee5750506000910152565b81810151838201526020016110de565b90602091611117815180928185528580860191016110db565b601f01601f1916010190565b906020808351928381520192019060005b8181106111415750505090565b82516001600160a01b0316845260209384019390920191600101611134565b519081151582036101ad57565b80548210156111855760005260206000200190600090565b634e487b7160e01b600052603260045260246000fd5b600254600160401b811015610d3f578060016111bc9201600255600261116d565b81546001600160a01b0393841660039290921b91821b9390911b1916919091179055565b8054600160401b811015610d3f576111bc9160018201815561116d565b51906001600160a01b03821682036101ad57565b9092919261121e8161106c565b9161122c604051938461104b565b8294828452828201116101ad5760206112469301906110db565b565b9080601f830112156101ad57815161126292602001611211565b90565b6020818303126101ad578051906001600160401b0382116101ad570160c0818303126101ad576040519160c083018381106001600160401b03821117610d3f5760405281516001600160401b0381116101ad578201610160818303126101ad57604051906112d282611013565b6112db816111fd565b82526112e9602082016111fd565b60208301526112fa604082016111fd565b604083015261130b606082016111fd565b60608301526080810151608083015260a081015160a083015260c081015160058110156101ad5760c083015260e081015160e08301526101008101516101008301526101208101516001600160401b0381116101ad5781019083601f830112156101ad576113828483602061014095519101611211565b6101208401520151610140820152835260208201516001600160401b0381116101ad57820191610100838303126101ad5760405161010081018181106001600160401b03821117610d3f576040526113d984611160565b81526113e7602085016111fd565b602082015260408401516001600160401b0381116101ad578361140b918601611248565b604082015260608401516060820152611426608085016111fd565b608082015261143760a08501611160565b60a082015260c0840151926001600160401b0384116101ad578461146460e09260a0966114999801611248565b60c0840152015160e08201526020850152604081015160408501526060810151606085015260808101516080850152016111fd565b60a082015290565b604051906002548083528260208101600260005260206000209260005b8181106114d35750506112469250038361104b565b84546001600160a01b03168352600194850194879450602090930192016114be565b906040519182815491828252602082019060005260206000209260005b8181106115275750506112469250038361104b565b84546001600160a01b0316835260019485019487945060209093019201611512565b3d15611574573d9061155a8261106c565b91611568604051938461104b565b82523d6000602084013e565b606090565b9190820391821161034d57565b6001600160401b038111610d3f5760051b60200190565b6000546001600160a01b031633036115b157565b63118cdaa760e01b6000523360045260246000fd5b60ff60005460a01c166115d557565b63d93c066560e01b60005260046000fdfe60806040523461076b5760006127d48038038061001b81610770565b9283398101906101008183031261076757610035816107ab565b91610042602083016107ab565b9161004f604082016107ab565b9160608201519060808301519260a081015160018060401b03811161076357810182601f82011215610763578051906001600160401b0382116105435761009f601f8301601f1916602001610770565b938285526020838301011161075f57908991825b828110610748575050602090840101526100d460e060c083015192016107ab565b966001895533156107345760018054336001600160a01b0319821681179092556001600160a01b03167f8be0079c531659141344cd1fd0a4f28419497f9722a3daafe3b4186f6b6457e08b80a36001600160a01b0316958615610725576001600160a01b031696871561071657831561070757428511156106f85781156106e9576001600160a01b03169182156106da5760405161016081016001600160401b038111828210176106c6576040908152888252602082018a905281018a90526001600160a01b03968716606082018190526080820186905260a0820187905260c082018b90524260e0830181905261010083018190526101208301849052610140909201938452600280546001600160a01b03199081168a8c16179091556003805482168a8d1617905560048054821699909c1698909817909a55600580549097168a17909655600684905560078590556008805460ff191690556009869055600a959095558451600098956001600160401b03821161054357610259600b546107bf565b601f8111610678575b50602090601f83116001146106135761029392918b9183610483575b50508160011b916000199060031b1c19161790565b600b555b51600c55601680546001600160a01b0319169190911790556032601355606460145561271060155560405161010081016001600160401b038111828210176105ff576040528681528660208201918183526020926102f484610770565b8381526040830190815260608301848152608084019185835260a085019386855261031e88610770565b87815260c0870190815260e087019788529551600d80549251610100600160a81b0360089190911b1691151560ff166001600160a81b0319909316929092171790555180516001600160401b0381116105eb578d61037d600e546107bf565b89601f82116105bc575b5050508d8890601f831160011461055757906103b793836104835750508160011b916000199060031b1c19161790565b600e555b51600f555160108054925160ff60a01b90151560a01b166001600160a01b039092166001600160a81b031990931692909217179055518051906001600160401b0382116105435761040d6011546107bf565b601f8111610509575b5083908a601f841160011461048e5792806000805160206127b48339815191529997959361045d9360609a9896926104835750508160011b916000199060031b1c19161790565b6011555b516012556040519384528301526040820152a4604051611fa390816108118239f35b01519050388061027e565b5060118b52848b209190601f1984168c5b8181106104f2575092600192859260609a98966000805160206127b48339815191529c9a9896106104d9575b505050811b01601155610461565b015160001960f88460031b161c191690553880806104cb565b92938760018192878601518155019501930161049f565b6105339060118c52858c20601f850160051c810191878610610539575b601f0160051c01906107f9565b38610416565b9091508190610526565b634e487b7160e01b8a52604160045260248afd5b9192601f198416600e84528a8420935b8b8282106105a657505090846001959493921061058d575b505050811b01600e556103bb565b015160001960f88460031b161c1916905538808061057f565b6001859682939686015181550195019301610567565b82600e6105e3945220601f840160051c8101918b851061053957601f0160051c01906107f9565b8d3889610387565b634e487b7160e01b8e52604160045260248efd5b634e487b7160e01b88526041600452602488fd5b600b8b52818b209190601f1984168c5b8181106106605750908460019594939210610647575b505050811b01600b55610297565b015160001960f88460031b161c19169055388080610639565b92936020600181928786015181550195019301610623565b600b8b526106c0907f0175b7a638427703f0dbe7bb9bbf987a2551717b34e79f33b5b1008d1fa01db9601f850160051c8101916020861061053957601f0160051c01906107f9565b38610262565b634e487b7160e01b8b52604160045260248bfd5b637be1c5fb60e01b8952600489fd5b63268b000760e01b8952600489fd5b6305d169e960e11b8952600489fd5b631bcdac3d60e21b8952600489fd5b6341c37f5f60e11b8952600489fd5b634324b9cf60e01b8952600489fd5b631e4fbdf760e01b89526004899052602489fd5b60208282018101518783018201528c9450016100b3565b8980fd5b8880fd5b8280fd5b600080fd5b6040519190601f01601f191682016001600160401b0381118382101761079557604052565b634e487b7160e01b600052604160045260246000fd5b51906001600160a01b038216820361076b57565b90600182811c921680156107ef575b60208310146107d957565b634e487b7160e01b600052602260045260246000fd5b91607f16916107ce565b818110610804575050565b600081556001016107f956fe6080604052600436101561001257600080fd5b60003560e01c806312065fe0146116485780632f13b60c146116285780633f4ba83a146115b757806349569b821461151f5780635c975abb146114f957806369d895751461146e5780636d88b24d1461140e578063715018a6146113b1578063725a3b4b14610f125780637323f71e14610dbc5780637da6ac0d14610d765780638456cb5914610d145780638da5cb5b14610ceb57806393dd201d14610ca1578063a7b4f4ea14610c63578063a978b370146106e8578063d0e30db0146104b7578063d2c9ea0314610455578063db2e21bc1461034f578063dd35dabf14610284578063efd7606514610241578063f2fde38b146101b35763fd3d3b421461011957600080fd5b346101ae5760003660031901126101ae57610132611b88565b61013a611baa565b33600052601760205260ff604060002054161561019d5760ff600854166005811015610187576001036101765761016f611ae3565b6001600055005b635448814d60e11b60005260046000fd5b634e487b7160e01b600052602160045260246000fd5b63446bb9e160e11b60005260046000fd5b600080fd5b346101ae5760203660031901126101ae576004356001600160a01b038116908190036101ae576101e1611b5f565b801561022b57600180546001600160a01b0319811683179091556001600160a01b03167f8be0079c531659141344cd1fd0a4f28419497f9722a3daafe3b4186f6b6457e0600080a3005b631e4fbdf760e01b600052600060045260246000fd5b346101ae5760203660031901126101ae576004356001600160a01b038116908190036101ae576000526017602052602060ff604060002054166040519015158152f35b346101ae5760003660031901126101ae5761029d611b88565b6102a5611baa565b33600052601760205260ff604060002054161561019d5760ff6008541660058110156101875761017657600754421161033e576102ea600160ff196008541617600855565b42600a5560018060a01b036002541660018060a01b0360055416907f5b002da8d5c2ef25521ad3b170995c1632b4a32f8e09e03999004ae2e5763d5760406006548151908152426020820152a36001600055005b6390331c3b60e01b60005260046000fd5b346101ae5760003660031901126101ae57610368611b5f565b60015460ff8160a01c1615610444576005546001600160a01b031690816103c0575050600080808060018060a01b036001541647905af16103a7611b2f565b50156103af57005b63801d5b7d60e01b60005260046000fd5b6040516370a0823160e01b815230600482015291602083602481845afa91821561043857600092610402575b61040093506001600160a01b031690611ed5565b005b91506020833d602011610430575b8161041d602093836116c1565b810103126101ae576104009251916103ec565b3d9150610410565b6040513d6000823e3d90fd5b6338ea52e560e11b60005260046000fd5b346101ae5760003660031901126101ae5761046e611b88565b610476611baa565b6002546001600160a01b031633036104a65760ff600854166005811015610187576001036101765761016f611ae3565b630cc633f560e21b60005260046000fd5b60003660031901126101ae576104cb611b88565b6104d3611baa565b6003546001600160a01b031633036106d75760ff6008541660058110156101875761017657600754421161033e576005546001600160a01b03168061058b5750600654341061057a575b61052f600160ff196008541617600855565b42600a5560018060a01b03600554166006546040519081524260208201527f5b002da8d5c2ef25521ad3b170995c1632b4a32f8e09e03999004ae2e5763d5760403392a36001600055005b63201c04ab60e01b60005260046000fd5b346106c6576040516370a0823160e01b8152336004820152602081602481855afa90811561043857600091610694575b5060065480911061068357604051636eb1769f60e11b8152336004820152306024820152602081604481865afa801561043857829160009161064e575b501061063d5761063891604051916323b872dd60e01b60208401523360248401523060448401526064830152606482526106336084836116c1565b611f12565b61051d565b63a085b77b60e01b60005260046000fd5b9150506020813d60201161067b575b8161066a602093836116c1565b810103126101ae57819051846105f8565b3d915061065d565b637222ae5760e11b60005260046000fd5b90506020813d6020116106be575b816106af602093836116c1565b810103126101ae5751826105bb565b3d91506106a2565b635d48ab7b60e11b60005260046000fd5b63e2a9f60760e01b60005260046000fd5b346101ae5760003660031901126101ae57600060a060405161070981611688565b604051610715816116a4565b83815283602082015283604082015283606082015283608082015283838201528360c08201528360e08201528361010082015260606101208201528361014082015281526040516107658161166b565b838152836020820152606060408201528360608201528360808201528383820152606060c08201528360e0820152602082015282604082015282606082015282608082015201526040516107b881611688565b6040516107c4816116a4565b6002546001600160a01b0390811682526003548116602083015260045481166040830152600580549091166060830152600654608083015260075460a083015260085460ff16908110156101875760c082015260095460e0820152600a54610100820152604051600b5481600061083a83611838565b8083529260018116908115610c445750600114610be4575b61085e925003826116c1565b610120820152600c54610140820152815260405161087b8161166b565b600d5460ff81161515825260081c6001600160a01b03166020820152604051600e548160006108a983611838565b8083529260018116908115610bc55750600114610b65575b6108cd925003826116c1565b6040820152600f54606082015260ff60105460018060a01b038116608084015260a01c16151560a08201526040516000816011549161090b83611838565b8083529260018116908115610b465750600114610ae6575b61092f925003826116c1565b60c082015260125460e08201526020820190815260135460408301908152601454606084019081526015546080850190815260018060a01b03601654169160a086019283526040519560208752519360c0602088015260018060a01b0385511660e088015260018060a01b0360208601511661010088015260018060a01b0360408601511661012088015260018060a01b03606086015116610140880152608085015161016088015260a085015161018088015260c08501519560058710156101875787966101a088015260e08601516101c08801526101008601516101e0880152610140610a316101208801516101606102008b01526102408a0190611782565b9601516102208801525194601f1987820301604088015285511515815260018060a01b03602087015116602082015260e080610abb610a8160408a01516101006040870152610100860190611782565b60608a0151606086015260018060a01b0360808b015116608086015260a08a0151151560a086015260c08a015185820360c0870152611782565b9701519101525160608601525160808501525160a0840152516001600160a01b031660c08301520390f35b506011600090815290917f31ecc21a745e3968a04e9570e4425bc18fa8019c68028196b546d1669c200c685b818310610b2a57505090602061092f92820101610923565b6020919350806001915483858801015201910190918392610b12565b6020925061092f94915060ff191682840152151560051b820101610923565b50600e600090815290917fbb7b4a454dc3493923482f07822329ed19e8244eff582cc204f8554c3620c3fd5b818310610ba95750509060206108cd928201016108c1565b6020919350806001915483858801015201910190918392610b91565b602092506108cd94915060ff191682840152151560051b8201016108c1565b50600b600090815290917f0175b7a638427703f0dbe7bb9bbf987a2551717b34e79f33b5b1008d1fa01db95b818310610c2857505090602061085e92820101610852565b6020919350806001915483858801015201910190918392610c10565b6020925061085e94915060ff191682840152151560051b820101610852565b346101ae57610c7136611746565b610c79611b88565b610c81611baa565b33600052601760205260ff604060002054161561019d5761016f9161188a565b346101ae57610caf36611746565b610cb7611b88565b610cbf611baa565b6004546001600160a01b03163303610cda5761016f9161188a565b63e90ca8f760e01b60005260046000fd5b346101ae5760003660031901126101ae576001546040516001600160a01b039091168152602090f35b346101ae5760003660031901126101ae57610d2d611b5f565b610d35611baa565b6001805460ff60a01b1916600160a01b1790556040513381527f62e78cea01bee320cd4e420270b5ea74000d11b0c9f74754ebdbfc544b05a25890602090a1005b346101ae5760203660031901126101ae576004356001600160a01b038116908190036101ae57610da4611b5f565b6000908152601760205260409020805460ff19169055005b346101ae5760003660031901126101ae576000602060018060a01b0360015416604460405180948193630e6816db60e01b8352336004840152600160248401525af190811561043857600091610ee3575b5015610ed2576004546001600160a01b0316338114610ec15780610e71575b60405160209133907f3c10faad3dc661fd434eb5a5f0d4266ae861fb97b12573d8c1914015746b33c3600080a3600480546001600160a01b0319163317905560018152f35b600d5460ff1615610ea157600f544210610e90576020905b9050610e2c565b63e33f4dbf60e01b60005260046000fd5b601254610eb057602090610e89565b63e54a2f1b60e01b60005260046000fd5b631b62144360e31b60005260046000fd5b63c19f17a960e01b60005260046000fd5b610f05915060203d602011610f0b575b610efd81836116c1565b810190611872565b81610e0d565b503d610ef3565b346101ae5760203660031901126101ae5760043567ffffffffffffffff81116101ae57610f439036906004016116ff565b610f4b611b88565b610f53611baa565b6002546001600160a01b03163314158061139c575b61138b5760ff6008541660058110156101875760010361017657600754421161033e5780511561137a57600260ff19600854161760085542600a55610fac81611eaa565b9060018060a01b036004541690604091610fdf8351610fcb85826116c1565b60028152614e4160f01b6020820152611eaa565b90835190610fec8261166b565b600182523360208301528585830152606082014281526080830191825260e060a08401936000855260c08101958652019660008852600160ff19600d541617600d55600d54610100600160a81b033360081b1690610100600160a81b03191617600d5580519067ffffffffffffffff82116112855761106c600e54611838565b601f8111611315575b50602090601f83116001146112a6576110e295949392916000918361129b575b50508160011b916000199060031b1c191617600e555b51600f555160108054925160ff60a01b90151560a01b166001600160a01b039092166001600160a81b031990931692909217179055565b5192835167ffffffffffffffff811161128557611100601154611838565b601f8111611220575b506020601f82116001146111915790806111729493927fd4882c6b71dfbb8df0a01fa4cd97676f243a56dd525df6b891b2e1700e514e899697600092611186575b50508160011b916000199060031b1c1916176011555b51601255835193808552840190611782565b914260208201528033930390a26001600055005b01519050878061114a565b601f198216956011600052816000209660005b81811061120857509660019284926111729796957fd4882c6b71dfbb8df0a01fa4cd97676f243a56dd525df6b891b2e1700e514e89999a106111ef575b505050811b01601155611160565b015160001960f88460031b161c191690558780806111e1565b838301518955600190980197602093840193016111a4565b60116000527f31ecc21a745e3968a04e9570e4425bc18fa8019c68028196b546d1669c200c68601f830160051c8101916020841061127b575b601f0160051c01905b81811061126f5750611109565b60008155600101611262565b9091508190611259565b634e487b7160e01b600052604160045260246000fd5b015190508a80611095565b90601f19831691600e600052816000209260005b8181106112fd57509160019391856110e29998979694106112e4575b505050811b01600e556110ab565b015160001960f88460031b161c191690558a80806112d6565b929360206001819287860151815501950193016112ba565b600e6000527fbb7b4a454dc3493923482f07822329ed19e8244eff582cc204f8554c3620c3fd601f840160051c81019160208510611370575b601f0160051c01905b8181106113645750611075565b60008155600101611357565b909150819061134e565b630ae1727760e41b60005260046000fd5b6304a31a6b60e11b60005260046000fd5b506003546001600160a01b0316331415610f68565b346101ae5760003660031901126101ae576113ca611b5f565b600180546001600160a01b031981169091556000906001600160a01b03167f8be0079c531659141344cd1fd0a4f28419497f9722a3daafe3b4186f6b6457e08280a3005b346101ae5760203660031901126101ae576004356001600160a01b038116908190036101ae5761143c611b5f565b801561145d576000908152601760205260409020805460ff19166001179055005b635697b36760e01b60005260046000fd5b346101ae5760003660031901126101ae57611487611b88565b61148f611baa565b60ff6008541660058110156101875760010361017657600754421161033e576002546001600160a01b031633036114d6575b60035461016f906001600160a01b0316611bea565b6004546001600160a01b031633146114c1576316f238dd60e01b60005260046000fd5b346101ae5760003660031901126101ae57602060ff60015460a01c166040519015158152f35b346101ae5760003660031901126101ae57611538611b88565b611540611baa565b60ff60085416600581101561018757600103610176576002546001600160a01b03163381148015611594575b61157a575b61016f90611bea565b600754421161157157633376277360e11b60005260046000fd5b6004546001600160a01b0316331461156c576316f238dd60e01b60005260046000fd5b346101ae5760003660031901126101ae576115d0611b5f565b60015460ff8160a01c16156116175760ff60a01b19166001556040513381527f5db9ee0a495bf2e6ff9c91a7834c1ba4fdd244a5e8aa4e537bd38aeae4b073aa90602090a1005b638dfc202b60e01b60005260046000fd5b346101ae5760003660031901126101ae5760206007544211604051908152f35b346101ae5760003660031901126101ae5760206116636117c3565b604051908152f35b610100810190811067ffffffffffffffff82111761128557604052565b60c0810190811067ffffffffffffffff82111761128557604052565b610160810190811067ffffffffffffffff82111761128557604052565b90601f8019910116810190811067ffffffffffffffff82111761128557604052565b67ffffffffffffffff811161128557601f01601f191660200190565b81601f820112156101ae57803590611716826116e3565b9261172460405194856116c1565b828452602083830101116101ae57816000926020809301838601378301015290565b9060406003198301126101ae5760043580151581036101ae57916024359067ffffffffffffffff82116101ae5761177f916004016116ff565b90565b919082519283825260005b8481106117ae575050826000602080949584010152601f8019910116010190565b8060208092840101518282860101520161178d565b6005546001600160a01b0316806117d957504790565b6020602491604051928380926370a0823160e01b82523060048301525afa90811561043857600091611809575090565b90506020813d602011611830575b81611824602093836116c1565b810103126101ae575190565b3d9150611817565b90600182811c92168015611868575b602083101461185257565b634e487b7160e01b600052602260045260246000fd5b91607f1691611847565b908160209103126101ae575180151581036101ae5790565b9060ff600854166005811015610187576002036101765760ff600d541615611ad257805115611ac1576010805460ff60a01b191683151560a01b60ff60a01b161790556118d681611eaa565b80519067ffffffffffffffff8211611285576118f3601154611838565b601f8111611a5c575b50602090601f83116001146119ce5791807f31965f570dee6f4e7e90e64d5d983d6ec3ac08f7cd7324907daa56cb53efe3dd949261199a946000926119c3575b50508160011b916000199060031b1c1916176011555b4260125560ff19600d5416600d5542600a55836000146119a957600354611981906001600160a01b0316611bea565b6040519315158452606060208501526060840190611782565b914260408201528033930390a2565b6002546119be906001600160a01b0316611bea565b611981565b01519050388061193c565b90601f198316916011600052816000209260005b818110611a44575092600192859261199a967f31965f570dee6f4e7e90e64d5d983d6ec3ac08f7cd7324907daa56cb53efe3dd989610611a2b575b505050811b01601155611952565b015160001960f88460031b161c19169055388080611a1d565b929360206001819287860151815501950193016119e2565b60116000527f31ecc21a745e3968a04e9570e4425bc18fa8019c68028196b546d1669c200c68601f840160051c81019160208510611ab7575b601f0160051c01905b818110611aab57506118fc565b60008155600101611a9e565b9091508190611a95565b634b699e6f60e01b60005260046000fd5b633f902c5560e01b60005260046000fd5b600754421161033e57600354611b01906001600160a01b0316611bea565b6040514281527f56eac3f4507c7d844ba38c829b5a76e42fb6a4f532b2e390e5a257f909834d6160203392a2565b3d15611b5a573d90611b40826116e3565b91611b4e60405193846116c1565b82523d6000602084013e565b606090565b6001546001600160a01b03163303611b7357565b63118cdaa760e01b6000523360045260246000fd5b600260005414611b99576002600055565b633ee5aeb560e01b60005260046000fd5b60ff60015460a01c16611bb957565b63d93c066560e01b60005260046000fd5b8115611bd4570490565b634e487b7160e01b600052601260045260246000fd5b60ff6008541660058110156101875760018103611e9957600260009114611e8a57611c3290600654816013548202611c256015548092611bca565b9485916014548502611bca565b6008805460ff1916600317905542600a556005549190930383810395916001600160a01b031680611e2057508303611deb575b80611db2575b509080611d79575b50505b6004546001600160a01b031680611cd0575b5050600554604080519283524260208401526001600160a01b0391821693909116917f156a4978af062770a3b6956fc1ac116b21bff165eaa8d67a555927fd1384c27e9190a3565b60015460405163768163b560e01b815260048101929092526020908290602490829086906001600160a01b03165af1918215611d6d5791611d4e575b5015611d19573880611c88565b60405162461bcd60e51b815260206004820152600d60248201526c155c19185d194819985a5b1959609a1b6044820152606490fd5b611d67915060203d602011610f0b57610efd81836116c1565b38611d0c565b604051903d90823e3d90fd5b600454829182918291906001600160a01b03165af1611d96611b2f565b5015611da3578038611c73565b639935678b60e01b8152600490fd5b601654829182918291906001600160a01b03165af1611dcf611b2f565b5015611ddc578138611c6b565b63075b552d60e01b8252600482fd5b90808080876001600160a01b038a165af1611e04611b2f565b5015611e11578290611c65565b63263b8f0b60e01b8352600483fd5b9392508203611e7a575b80611e5d575b5080611e3e575b5050611c76565b600454611e56926001600160a01b0390911690611ed5565b3880611e37565b601654611e7491906001600160a01b031684611ed5565b38611e30565b611e85858785611ed5565b611e2a565b630318d33960e11b8152600490fd5b630318d33960e11b60005260046000fd5b61177f611ec7916040519283916020808401526040830190611782565b03601f1981018352826116c1565b60405163a9059cbb60e01b60208201526001600160a01b039092166024830152604480830193909352918152611f10916106336064836116c1565b565b906000602091828151910182855af115610438576000513d611f6457506001600160a01b0381163b155b611f435750565b635274afe760e01b60009081526001600160a01b0391909116600452602490fd5b60011415611f3c56fea2646970667358221220b0fd4c2fd10beba853593080840e660a11bfe9d258c26eb04b89f7e1845e715364736f6c634300081e0033ae4afeae517547c89e021ef11c8647b223ef2849e6a4929e9e238dc5945c4e7ca26469706673582212200b0bb9c6c7f3f97f1538304ab2e8bc98fcc157e3f290df9901e89fd372afc9d664736f6c634300081e0033",
  "linkReferences": {},
  "deployedLinkReferences": {},
  "immutableReferences": {},
  "inputSourceName": "project/contracts/escrow/EscrowFactory.sol",
  "buildInfoId": "solc-0_8_30-fe64776f5c7a8a566504ec26d9122214382f36e5"
}