{
  "_format": "hh3-artifact-1",
  "contractName": "TradingAccount",
  "sourceName": "contracts/trading/peripherals/TradingAccount.sol",
  "abi": [
    {
      "inputs": [
        {
          "internalType": "address",
          "name": "_seller",
          "type": "address"
        },
        {
          "internalType": "address",
          "name": "agent",
          "type": "address"
        },
        {
          "internalType": "address",
          "name": "controller",
          "type": "address"
        },
        {
          "internalType": "string",
          "name": "nickname",
          "type": "string"
        },
        {
          "internalType": "address",
          "name": "_pythAddress",
          "type": "address"
        }
      ],
      "stateMutability": "nonpayable",
      "type": "constructor"
    },
    {
      "inputs": [],
      "name": "AddressIsZero",
      "type": "error"
    },
    {
      "inputs": [],
      "name": "BalanceTooLow",
      "type": "error"
    },
    {
      "inputs": [],
      "name": "CooldownNotPassed",
      "type": "error"
    },
    {
      "inputs": [],
      "name": "EnforcedPause",
      "type": "error"
    },
    {
      "inputs": [],
      "name": "ExpectedPause",
      "type": "error"
    },
    {
      "inputs": [],
      "name": "FallbackExecutionFailed",
      "type": "error"
    },
    {
      "inputs": [],
      "name": "FundFaucetFailed",
      "type": "error"
    },
    {
      "inputs": [],
      "name": "InsufficientBalForRequestedToken",
      "type": "error"
    },
    {
      "inputs": [],
      "name": "InsufficientBalance",
      "type": "error"
    },
    {
      "inputs": [],
      "name": "InsufficientOrderDurationFee",
      "type": "error"
    },
    {
      "inputs": [],
      "name": "InsufficientPriceUpdateFee",
      "type": "error"
    },
    {
      "inputs": [],
      "name": "InvalidAmount",
      "type": "error"
    },
    {
      "inputs": [],
      "name": "InvalidCaller",
      "type": "error"
    },
    {
      "inputs": [],
      "name": "InvalidDuration",
      "type": "error"
    },
    {
      "inputs": [],
      "name": "InvalidFallbackTradingAccount",
      "type": "error"
    },
    {
      "inputs": [],
      "name": "InvalidOrderId",
      "type": "error"
    },
    {
      "inputs": [],
      "name": "InvalidParameters",
      "type": "error"
    },
    {
      "inputs": [],
      "name": "InvalidPaymentAsset",
      "type": "error"
    },
    {
      "inputs": [],
      "name": "InvalidPriceFeedId",
      "type": "error"
    },
    {
      "inputs": [],
      "name": "InvalidTokenOut",
      "type": "error"
    },
    {
      "inputs": [],
      "name": "InvalidTotalRequest",
      "type": "error"
    },
    {
      "inputs": [],
      "name": "MinimumFundingRequired",
      "type": "error"
    },
    {
      "inputs": [],
      "name": "NoFundDetected",
      "type": "error"
    },
    {
      "inputs": [],
      "name": "NoWithdrawalRequest",
      "type": "error"
    },
    {
      "inputs": [],
      "name": "OrderExpired",
      "type": "error"
    },
    {
      "inputs": [],
      "name": "OrderNotActive",
      "type": "error"
    },
    {
      "inputs": [],
      "name": "OrderNotFound",
      "type": "error"
    },
    {
      "inputs": [
        {
          "internalType": "address",
          "name": "owner",
          "type": "address"
        }
      ],
      "name": "OwnableInvalidOwner",
      "type": "error"
    },
    {
      "inputs": [
        {
          "internalType": "address",
          "name": "account",
          "type": "address"
        }
      ],
      "name": "OwnableUnauthorizedAccount",
      "type": "error"
    },
    {
      "inputs": [],
      "name": "PendingWithdrawalRequest",
      "type": "error"
    },
    {
      "inputs": [],
      "name": "PriceFeedIdAlreadySetForOrder",
      "type": "error"
    },
    {
      "inputs": [],
      "name": "PriceNotProvided",
      "type": "error"
    },
    {
      "inputs": [],
      "name": "ReentrancyGuardReentrantCall",
      "type": "error"
    },
    {
      "inputs": [
        {
          "internalType": "address",
          "name": "token",
          "type": "address"
        }
      ],
      "name": "SafeERC20FailedOperation",
      "type": "error"
    },
    {
      "inputs": [],
      "name": "TradeUnverified",
      "type": "error"
    },
    {
      "inputs": [],
      "name": "TransferFailed",
      "type": "error"
    },
    {
      "inputs": [],
      "name": "TrickyMove",
      "type": "error"
    },
    {
      "inputs": [],
      "name": "UnrecognizedAsset",
      "type": "error"
    },
    {
      "inputs": [],
      "name": "WithdrawalAlreadyProcessed",
      "type": "error"
    },
    {
      "anonymous": false,
      "inputs": [
        {
          "indexed": true,
          "internalType": "address",
          "name": "",
          "type": "address"
        }
      ],
      "name": "Approval",
      "type": "event"
    },
    {
      "anonymous": false,
      "inputs": [
        {
          "indexed": true,
          "internalType": "address",
          "name": "token",
          "type": "address"
        },
        {
          "indexed": false,
          "internalType": "uint256",
          "name": "amount",
          "type": "uint256"
        },
        {
          "indexed": false,
          "internalType": "uint256",
          "name": "erc20Balance",
          "type": "uint256"
        },
        {
          "indexed": false,
          "internalType": "uint256",
          "name": "nativeBalance",
          "type": "uint256"
        }
      ],
      "name": "AssetDeposited",
      "type": "event"
    },
    {
      "anonymous": false,
      "inputs": [
        {
          "indexed": true,
          "internalType": "address",
          "name": "token",
          "type": "address"
        },
        {
          "indexed": false,
          "internalType": "uint256",
          "name": "amount",
          "type": "uint256"
        },
        {
          "indexed": false,
          "internalType": "uint256",
          "name": "newBalance",
          "type": "uint256"
        }
      ],
      "name": "AssetWithdrawn",
      "type": "event"
    },
    {
      "anonymous": false,
      "inputs": [
        {
          "indexed": true,
          "internalType": "address",
          "name": "seller",
          "type": "address"
        },
        {
          "indexed": false,
          "internalType": "uint256",
          "name": "totalCost",
          "type": "uint256"
        },
        {
          "indexed": false,
          "internalType": "uint256",
          "name": "volume",
          "type": "uint256"
        },
        {
          "indexed": false,
          "internalType": "uint256",
          "name": "pricePerUnit",
          "type": "uint256"
        },
        {
          "indexed": true,
          "internalType": "address",
          "name": "tokenOut",
          "type": "address"
        },
        {
          "indexed": true,
          "internalType": "address",
          "name": "tokenIn",
          "type": "address"
        }
      ],
      "name": "ExchangeSuccess",
      "type": "event"
    },
    {
      "anonymous": false,
      "inputs": [
        {
          "indexed": false,
          "internalType": "bytes32",
          "name": "orderId",
          "type": "bytes32"
        },
        {
          "indexed": false,
          "internalType": "uint256",
          "name": "newDuration",
          "type": "uint256"
        }
      ],
      "name": "OrderActivated",
      "type": "event"
    },
    {
      "anonymous": false,
      "inputs": [
        {
          "indexed": true,
          "internalType": "bytes32",
          "name": "orderId",
          "type": "bytes32"
        },
        {
          "indexed": true,
          "internalType": "address",
          "name": "tokenAddress",
          "type": "address"
        },
        {
          "indexed": false,
          "internalType": "uint256",
          "name": "amount",
          "type": "uint256"
        }
      ],
      "name": "OrderCancelled",
      "type": "event"
    },
    {
      "anonymous": false,
      "inputs": [
        {
          "indexed": true,
          "internalType": "bytes32",
          "name": "orderId",
          "type": "bytes32"
        },
        {
          "indexed": true,
          "internalType": "address",
          "name": "tokenAddress",
          "type": "address"
        },
        {
          "indexed": true,
          "internalType": "uint256",
          "name": "orderIndex",
          "type": "uint256"
        },
        {
          "indexed": false,
          "internalType": "uint256",
          "name": "amount",
          "type": "uint256"
        },
        {
          "indexed": false,
          "internalType": "uint256",
          "name": "price",
          "type": "uint256"
        },
        {
          "indexed": false,
          "internalType": "bool",
          "name": "useLivePrice",
          "type": "bool"
        }
      ],
      "name": "OrderCreated",
      "type": "event"
    },
    {
      "anonymous": false,
      "inputs": [
        {
          "indexed": true,
          "internalType": "bytes32",
          "name": "orderId",
          "type": "bytes32"
        },
        {
          "indexed": true,
          "internalType": "address",
          "name": "buyer",
          "type": "address"
        },
        {
          "indexed": false,
          "internalType": "uint256",
          "name": "amount",
          "type": "uint256"
        }
      ],
      "name": "OrderFulfilled",
      "type": "event"
    },
    {
      "anonymous": false,
      "inputs": [
        {
          "indexed": true,
          "internalType": "address",
          "name": "previousOwner",
          "type": "address"
        },
        {
          "indexed": true,
          "internalType": "address",
          "name": "newOwner",
          "type": "address"
        }
      ],
      "name": "OwnershipTransferred",
      "type": "event"
    },
    {
      "anonymous": false,
      "inputs": [
        {
          "indexed": false,
          "internalType": "address",
          "name": "account",
          "type": "address"
        }
      ],
      "name": "Paused",
      "type": "event"
    },
    {
      "anonymous": false,
      "inputs": [
        {
          "indexed": true,
          "internalType": "address",
          "name": "",
          "type": "address"
        }
      ],
      "name": "UnApproval",
      "type": "event"
    },
    {
      "anonymous": false,
      "inputs": [
        {
          "indexed": false,
          "internalType": "address",
          "name": "account",
          "type": "address"
        }
      ],
      "name": "Unpaused",
      "type": "event"
    },
    {
      "inputs": [
        {
          "internalType": "bytes32",
          "name": "orderId",
          "type": "bytes32"
        },
        {
          "internalType": "uint32",
          "name": "durationInHours",
          "type": "uint32"
        }
      ],
      "name": "activateOrder",
      "outputs": [
        {
          "internalType": "bool",
          "name": "",
          "type": "bool"
        }
      ],
      "stateMutability": "payable",
      "type": "function"
    },
    {
      "inputs": [
        {
          "internalType": "bytes32",
          "name": "orderId",
          "type": "bytes32"
        }
      ],
      "name": "cancelOrder",
      "outputs": [
        {
          "internalType": "bool",
          "name": "",
          "type": "bool"
        }
      ],
      "stateMutability": "nonpayable",
      "type": "function"
    },
    {
      "inputs": [
        {
          "internalType": "address",
          "name": "tokenAddress",
          "type": "address"
        },
        {
          "internalType": "uint256",
          "name": "amount",
          "type": "uint256"
        },
        {
          "internalType": "uint256",
          "name": "price",
          "type": "uint256"
        },
        {
          "internalType": "uint256",
          "name": "expirationHours",
          "type": "uint256"
        },
        {
          "internalType": "bytes32",
          "name": "_priceFeedId",
          "type": "bytes32"
        }
      ],
      "name": "createOrder",
      "outputs": [
        {
          "internalType": "bool",
          "name": "",
          "type": "bool"
        }
      ],
      "stateMutability": "payable",
      "type": "function"
    },
    {
      "inputs": [
        {
          "internalType": "address",
          "name": "token",
          "type": "address"
        }
      ],
      "name": "deposit",
      "outputs": [
        {
          "internalType": "bool",
          "name": "",
          "type": "bool"
        }
      ],
      "stateMutability": "payable",
      "type": "function"
    },
    {
      "inputs": [
        {
          "internalType": "uint256",
          "name": "totalCost",
          "type": "uint256"
        },
        {
          "internalType": "uint256",
          "name": "pricePerUnit",
          "type": "uint256"
        },
        {
          "internalType": "address",
          "name": "tokenIn",
          "type": "address"
        },
        {
          "internalType": "address",
          "name": "tokenOut",
          "type": "address"
        }
      ],
      "name": "exchangeValues",
      "outputs": [
        {
          "internalType": "bool",
          "name": "",
          "type": "bool"
        }
      ],
      "stateMutability": "payable",
      "type": "function"
    },
    {
      "inputs": [
        {
          "internalType": "bytes32",
          "name": "orderId",
          "type": "bytes32"
        },
        {
          "internalType": "address",
          "name": "buyer",
          "type": "address"
        },
        {
          "internalType": "uint256",
          "name": "amount",
          "type": "uint256"
        }
      ],
      "name": "fulfillOrder",
      "outputs": [
        {
          "internalType": "bool",
          "name": "",
          "type": "bool"
        }
      ],
      "stateMutability": "nonpayable",
      "type": "function"
    },
    {
      "inputs": [],
      "name": "getAccountData",
      "outputs": [
        {
          "components": [
            {
              "internalType": "address",
              "name": "owner",
              "type": "address"
            },
            {
              "components": [
                {
                  "internalType": "uint256",
                  "name": "amount",
                  "type": "uint256"
                },
                {
                  "internalType": "uint256",
                  "name": "pricePerUnit",
                  "type": "uint256"
                },
                {
                  "internalType": "uint256",
                  "name": "createdAt",
                  "type": "uint256"
                },
                {
                  "internalType": "uint256",
                  "name": "expiresAt",
                  "type": "uint256"
                },
                {
                  "components": [
                    {
                      "internalType": "uint8",
                      "name": "decimals",
                      "type": "uint8"
                    },
                    {
                      "internalType": "bytes",
                      "name": "name",
                      "type": "bytes"
                    },
                    {
                      "internalType": "bytes",
                      "name": "symbol",
                      "type": "bytes"
                    },
                    {
                      "internalType": "address",
                      "name": "tokenAddress",
                      "type": "address"
                    }
                  ],
                  "internalType": "struct ITradingAccount.AssetDetail",
                  "name": "assetInfo",
                  "type": "tuple"
                },
                {
                  "internalType": "enum ITradingAccount.OrderStatus",
                  "name": "status",
                  "type": "uint8"
                },
                {
                  "internalType": "bytes32",
                  "name": "orderId",
                  "type": "bytes32"
                }
              ],
              "internalType": "struct ITradingAccount.OrderDetails[]",
              "name": "orders",
              "type": "tuple[]"
            },
            {
              "internalType": "uint256",
              "name": "successfulOrders",
              "type": "uint256"
            },
            {
              "internalType": "uint256",
              "name": "cancelledOrders",
              "type": "uint256"
            },
            {
              "components": [
                {
                  "internalType": "bytes",
                  "name": "nickName",
                  "type": "bytes"
                },
                {
                  "internalType": "uint256",
                  "name": "reputation",
                  "type": "uint256"
                },
                {
                  "internalType": "address",
                  "name": "id",
                  "type": "address"
                },
                {
                  "internalType": "bytes32",
                  "name": "agentId",
                  "type": "bytes32"
                }
              ],
              "internalType": "struct ITradingAccount.SellerInfo",
              "name": "sellerInfo",
              "type": "tuple"
            }
          ],
          "internalType": "struct ITradingAccount.AccountData",
          "name": "accountData",
          "type": "tuple"
        }
      ],
      "stateMutability": "view",
      "type": "function"
    },
    {
      "inputs": [
        {
          "internalType": "address",
          "name": "token",
          "type": "address"
        }
      ],
      "name": "getBalance",
      "outputs": [
        {
          "internalType": "uint256",
          "name": "balance",
          "type": "uint256"
        }
      ],
      "stateMutability": "view",
      "type": "function"
    },
    {
      "inputs": [
        {
          "internalType": "address",
          "name": "token",
          "type": "address"
        }
      ],
      "name": "getLockedBalance",
      "outputs": [
        {
          "internalType": "uint256",
          "name": "lockedBalance",
          "type": "uint256"
        }
      ],
      "stateMutability": "view",
      "type": "function"
    },
    {
      "inputs": [
        {
          "internalType": "bytes32",
          "name": "orderId",
          "type": "bytes32"
        }
      ],
      "name": "getPriceFor",
      "outputs": [
        {
          "internalType": "int256",
          "name": "result",
          "type": "int256"
        }
      ],
      "stateMutability": "payable",
      "type": "function"
    },
    {
      "inputs": [
        {
          "internalType": "address",
          "name": "target",
          "type": "address"
        }
      ],
      "name": "isPermitted",
      "outputs": [
        {
          "internalType": "bool",
          "name": "",
          "type": "bool"
        }
      ],
      "stateMutability": "view",
      "type": "function"
    },
    {
      "inputs": [],
      "name": "owner",
      "outputs": [
        {
          "internalType": "address",
          "name": "",
          "type": "address"
        }
      ],
      "stateMutability": "view",
      "type": "function"
    },
    {
      "inputs": [],
      "name": "pause",
      "outputs": [],
      "stateMutability": "nonpayable",
      "type": "function"
    },
    {
      "inputs": [],
      "name": "paused",
      "outputs": [
        {
          "internalType": "bool",
          "name": "",
          "type": "bool"
        }
      ],
      "stateMutability": "view",
      "type": "function"
    },
    {
      "inputs": [
        {
          "internalType": "bytes32",
          "name": "",
          "type": "bytes32"
        }
      ],
      "name": "priceFeedIds",
      "outputs": [
        {
          "internalType": "bytes32",
          "name": "",
          "type": "bytes32"
        }
      ],
      "stateMutability": "view",
      "type": "function"
    },
    {
      "inputs": [],
      "name": "pyth",
      "outputs": [
        {
          "internalType": "contract IPyth",
          "name": "",
          "type": "address"
        }
      ],
      "stateMutability": "view",
      "type": "function"
    },
    {
      "inputs": [],
      "name": "renounceOwnership",
      "outputs": [],
      "stateMutability": "nonpayable",
      "type": "function"
    },
    {
      "inputs": [
        {
          "internalType": "string",
          "name": "nickName",
          "type": "string"
        }
      ],
      "name": "setNickName",
      "outputs": [
        {
          "internalType": "bool",
          "name": "",
          "type": "bool"
        }
      ],
      "stateMutability": "nonpayable",
      "type": "function"
    },
    {
      "inputs": [
        {
          "internalType": "address",
          "name": "target",
          "type": "address"
        }
      ],
      "name": "setPermission",
      "outputs": [],
      "stateMutability": "nonpayable",
      "type": "function"
    },
    {
      "inputs": [
        {
          "internalType": "address",
          "name": "token",
          "type": "address"
        }
      ],
      "name": "toggleTokenVerificationStatus",
      "outputs": [
        {
          "internalType": "bool",
          "name": "",
          "type": "bool"
        }
      ],
      "stateMutability": "nonpayable",
      "type": "function"
    },
    {
      "inputs": [
        {
          "internalType": "address",
          "name": "newOwner",
          "type": "address"
        }
      ],
      "name": "transferOwnership",
      "outputs": [],
      "stateMutability": "nonpayable",
      "type": "function"
    },
    {
      "inputs": [
        {
          "internalType": "address",
          "name": "target",
          "type": "address"
        }
      ],
      "name": "unApprove",
      "outputs": [],
      "stateMutability": "nonpayable",
      "type": "function"
    },
    {
      "inputs": [],
      "name": "unpause",
      "outputs": [],
      "stateMutability": "nonpayable",
      "type": "function"
    },
    {
      "inputs": [
        {
          "internalType": "address",
          "name": "token",
          "type": "address"
        },
        {
          "internalType": "uint256",
          "name": "amount",
          "type": "uint256"
        }
      ],
      "name": "withdraw",
      "outputs": [
        {
          "internalType": "bool",
          "name": "",
          "type": "bool"
        }
      ],
      "stateMutability": "nonpayable",
      "type": "function"
    },
    {
      "stateMutability": "payable",
      "type": "receive"
    }
  ],
  "bytecode": "0x60e0806040523461045f57613121803803809161001c8285610464565b833981019060a08183031261045f5761003481610487565b9161004160208301610487565b9261004e60408401610487565b60608401519091906001600160401b03811161045f5784019383601f8601121561045f578451946001600160401b0386116103c9576040519561009b601f8201601f191660200188610464565b80875260208701956020828401011161045f578560206100bb930161049b565b6001600160a01b03906100d090608001610487565b16801561040e57608052604051606082901b6001600160601b03191660208201908152601482526001600160a01b038316939161010e603482610464565b51902060a052600180556001600160a01b03169081156103f857600280546001600160a01b03198116841790915561017492906001600160a01b03167f8be0079c531659141344cd1fd0a4f28419497f9722a3daafe3b4186f6b6457e0600080a36104be565b6001600160a01b038416801515908290826103ed575b50506103df575b6040516020808201526101cd60608286518060408301526101b5818484018961049b565b601f801991011681010301601f198101835282610464565b8051906001600160401b0382116103c957600a54600181811c911680156103bf575b60208210146103a957601f8111610344575b50602090601f83116001146102d0579282610279969361028a96936054966000926102c5575b50508160011b916000199060031b1c191617600a555b60018060a01b0319600c541617600c55604051948592602084019760018060601b03199060601b1688524260348501525180928585019061049b565b81010301601f198101835282610464565b519020600d553360c052604051612c2890816104f9823960805181818161013e015261244b015260a05181612406015260c0518161125b0152f35b015190503880610227565b90601f19831691600a600052816000209260005b81811061032c57509361028a969360549693600193836102799b9810610313575b505050811b01600a5561023d565b015160001960f88460031b161c19169055388080610305565b929360206001819287860151815501950193016102e4565b600a6000527fc65a7bb8d6351c1cf70c95a316cc6a92839c986682d98bc35f958f4883f9d2a8601f840160051c8101916020851061039f575b601f0160051c01905b8181106103935750610201565b60008155600101610386565b909150819061037d565b634e487b7160e01b600052602260045260246000fd5b90607f16906101ef565b634e487b7160e01b600052604160045260246000fd5b6103e8846104be565b610191565b14159050813861018a565b631e4fbdf760e01b600052600060045260246000fd5b60405162461bcd60e51b815260206004820152602360248201527f507974685072696365466565643a20496e76616c69642050797468206164647260448201526265737360e81b6064820152608490fd5b600080fd5b601f909101601f19168101906001600160401b038211908210176103c957604052565b51906001600160a01b038216820361045f57565b60005b8381106104ae5750506000910152565b818101518382015260200161049e565b6001600160a01b031680156104e75760005260036020526040600020600160ff19825416179055565b63867915ab60e01b60005260046000fdfe6080604052600436101561001b575b361561001957600080fd5b005b60003560e01c806309711ddb1461225a5780630e841eb8146120e457806327e0f61a14611c045780633d7d329414611bd85780633f4ba83a14611b675780633fd8cc4e14611b28578063579971d3146111e65780635c975abb146111c05780636c52075414611149578063715018a6146110ec5780637205a8fb14610e785780637489ec2314610d6b578063812af8ec146109655780638456cb59146109035780638da5cb5b146108da578063b5252f9b1461086d578063b85a35d2146107ec578063c4086893146107b2578063c73ea367146105a8578063f2fde38b1461051e578063f340fa01146102ec578063f3fef3a3146101ac578063f8b2cb4f146101725763f98d06f00361000e573461016d57600036600319011261016d576040517f00000000000000000000000000000000000000000000000000000000000000006001600160a01b03168152602090f35b600080fd5b3461016d57602036600319011261016d576001600160a01b0361019361227b565b1660005260056020526020604060002054604051908152f35b3461016d57604036600319011261016d576101c561227b565b602435903360005260036020526101e360ff6040600020541661262e565b6101eb612aa6565b6001600160a01b03166000818152600560205260409020549091908181106102db576000838152600560205260409020908290039055600c546001600160a01b0316826102a757600080808481945af1610243612851565b50156102965760407fcaf7cfb51337eee96bdf57f81c1fd87ece0a5933a3df024455da2cd35fe3badf915b836000526005602052816000205482519182526020820152a260018055602060405160018152f35b6312171d8360e31b60005260046000fd5b816102d67fcaf7cfb51337eee96bdf57f81c1fd87ece0a5933a3df024455da2cd35fe3badf9360409386612b1e565b61026e565b6351940b3960e11b60005260046000fd5b602036600319011261016d5761030061227b565b33600052600360205261031a60ff6040600020541661262e565b610322612aa6565b61032a612ac8565b600c546001600160a01b0391821691163482156104db5750604051636eb1769f60e11b81526001600160a01b038216600482015230602482015290602082604481865afa918215610498576000926104a4575b50604051636eb1769f60e11b8152336004820152306024820152602081604481875afa90811561049857600091610466575b50821561045c5750905b80801561044b576103ee817f9c43989bbc3ada47dd2ba240e9dd6e85544d2f6439f23824f23272479d4202ec94309087612a34565b83600052600560205260406000209081540190555b600083815260056020908152604080832054928052600080516020612bd38339815191525481519485529184019290925290820152606090a260018055602060405160018152f35b63162908e360e11b60005260046000fd5b91505033906103b9565b90506020813d602011610490575b8161048160209383612345565b8101031261016d5751846103af565b3d9150610474565b6040513d6000823e3d90fd5b90916020823d6020116104d3575b816104bf60209383612345565b810103126104d0575051908361037d565b80fd5b3d91506104b2565b9050341561044b577f9c43989bbc3ada47dd2ba240e9dd6e85544d2f6439f23824f23272479d4202ec908260005260056020526040600020348154019055610403565b3461016d57602036600319011261016d5761053761227b565b61053f612a7d565b6001600160a01b0316801561059257600280546001600160a01b0319811683179091556001600160a01b03167f8be0079c531659141344cd1fd0a4f28419497f9722a3daafe3b4186f6b6457e0600080a3005b631e4fbdf760e01b600052600060045260246000fd5b3461016d57602036600319011261016d576004356001600160401b03811161016d573660238201121561016d578060040135906105e482612366565b6105f16040519182612345565b828152366024848401011161016d5760006020846106489560246106569601838601378301015233600052600360205261063260ff6040600020541661262e565b60405192839160208084015260408301906122b4565b03601f198101835282612345565b80516001600160401b03811161079c57610671600a546128d8565b601f811161072f575b50602091601f82116001146106c0579181926000926106b5575b50508160011b916000199060031b1c191617600a555b602060405160018152f35b015190508280610694565b601f19821692600a600052600080516020612bb38339815191529160005b858110610717575083600195106106fe575b505050811b01600a556106aa565b015160001960f88460031b161c191690558280806106f0565b919260206001819286850151815501940192016106de565b600a600052601f820160051c600080516020612bb3833981519152019060208310610786575b601f0160051c600080516020612bb383398151915201905b81811061077a575061067a565b6000815560010161076d565b600080516020612bb38339815191529150610755565b634e487b7160e01b600052604160045260246000fd5b3461016d57602036600319011261016d576001600160a01b036107d361227b565b1660005260066020526020604060002054604051908152f35b3461016d57602036600319011261016d5761080561227b565b61080d612a7d565b6001600160a01b0316801561085c578060005260036020526040600020600160ff198254161790557f19996ea5aede4d14af17b07567999b4c9d512663cfdaa4b01313d0c4af7a6ce7600080a2005b63867915ab60e01b60005260046000fd5b3461016d57602036600319011261016d5761088661227b565b61088e612a7d565b6001600160a01b0316801561085c57806000526003602052604060002060ff1981541690557fdf982251973669f107e8764c0488f080ceca6d72192314e1f94e347378ce4a01600080a2005b3461016d57600036600319011261016d576002546040516001600160a01b039091168152602090f35b3461016d57600036600319011261016d5761091c612a7d565b610924612ac8565b6002805460ff60a01b1916600160a01b1790556040513381527f62e78cea01bee320cd4e420270b5ea74000d11b0c9f74754ebdbfc544b05a25890602090a1005b3461016d57600036600319011261016d576040516109828161232a565b600081526060602082015260006040820152600060608201526080604051916109aa836122f4565b60608352600060208401526000604084015260006060840152015260018060a01b03600c54166008549060095490604051906109e58261232a565b8152600e54916001600160401b03831161079c5760405192610a0d60208260051b0185612345565b8084526020840190600e6000527fbb7b4a454dc3493923482f07822329ed19e8244eff582cc204f8554c3620c3fd916000905b828210610cb6575050505060208201928352604082019384526060820190815260405190610a6d826122f4565b604051600a54816000610a7f836128d8565b8083529260018116908115610c975750600114610c49575b610aa392500382612345565b8252600b54602083015260018060a01b03600c54166040830152600d54606083015260808301918252604051936020855260c085019360018060a01b039051166020860152519260a06040860152835180915260e0850190602060e08260051b88010195019160005b828110610b70575050505083945160608501525160808401525190601f198382030160a0840152606080610b4984516080855260808501906122b4565b602080860151908501526040808601516001600160a01b0316908501529301519101520390f35b9091929560df19888203018352865180518252602081015160208301526040810151604083015260608101516060830152608081015160e0608084015260ff81511660e0840152610bec610bd5602083015160806101008701526101608601906122b4565b604083015185820360df19016101208701526122b4565b6060909101516001600160a01b031661014084015260a0820151906004821015610c33578360c080602095869560a060019901520151910152980193019101929192610b0c565b634e487b7160e01b600052602160045260246000fd5b50600a60009081529091600080516020612bb38339815191525b818310610c7b575050906020610aa392820101610a97565b6020919350806001915483858801015201910190918392610c63565b60209250610aa394915060ff191682840152151560051b820101610a97565b604051610cc28161230f565b84548152600185015460208201526002850154604082015260038501546060820152604051610cf0816122f4565b60ff6004870154168152610d0660058701612912565b6020820152610d1760068701612912565b604082015260078601546001600160a01b031660608201526080820152600885015460ff166004811015610c33576001928260209260a0600a950152600988015460c0820152815201940191019092610a40565b3461016d57602036600319011261016d576000600435610d89612aa6565b3382526003602052610da160ff60408420541661262e565b610da9612ac8565b610db2816129b4565b9060088201600360ff19825416179055610dcd600954612881565b60095560078201546001600160a01b031680845260066020526040842054835491929190811115610e60575b508254828552600560205260408520908154019055600b5480610e54575b507fb2705df32ac67fc3101f496cd7036bf59074a603544d97d73650b6f09744986a60208454604051908152a35560018055602060405160018152f35b841901600b5584610e17565b82855260066020526040852090815403905584610df9565b608036600319011261016d576044356001600160a01b03811690602435906004359083900361016d576064356001600160a01b038116929083900361016d57610ebf612aa6565b811580156110e4575b6110d35780821015610ee557632b5e2f6d60e11b60005260046000fd5b80156110bd578082049081156110ac57841561108f5784600052600760205260ff604060002054161561107e57604051636eb1769f60e11b8152336004820152306024820152602081604481895afa8015610498578391600091611049575b501061103857610f5682303388612a34565b83610f6c576304b4a0b760e51b60005260046000fd5b83600052600560205282604060002054106110275783600052600560205260406000208054908482039182116110115755610fa8833386612b1e565b600b549160058301809311611011577f19569349d21ab849683a6859b0f5a5da4d630a9eac72899437367fa4333fa2b392600b55610ffe6040519283923396846040919493926060820195825260208201520152565b0390a45b60018055602060405160018152f35b634e487b7160e01b600052601160045260246000fd5b63043adbeb60e01b60005260046000fd5b631236843d60e31b60005260046000fd5b9150506020813d602011611076575b8161106560209383612345565b8101031261016d5782905187610f44565b3d9150611058565b6314bc2cd960e01b60005260046000fd5b509250505034101561100257631236843d60e31b60005260046000fd5b63ddc0c69360e01b60005260046000fd5b634e487b7160e01b600052601260045260246000fd5b630e52390960e41b60005260046000fd5b508015610ec8565b3461016d57600036600319011261016d57611105612a7d565b600280546001600160a01b031981169091556000906001600160a01b03167f8be0079c531659141344cd1fd0a4f28419497f9722a3daafe3b4186f6b6457e08280a3005b3461016d57602036600319011261016d5761116261227b565b33600052600360205261117c60ff6040600020541661262e565b6001600160a01b031680156111b0576000908152600760205260409020805460ff818116151660ff199091161790556106aa565b62db68fd60e51b60005260046000fd5b3461016d57600036600319011261016d57602060ff60025460a01c166040519015158152f35b60a036600319011261016d576111fa61227b565b6024359060443591606435926084359333600052600360205261122460ff6040600020541661262e565b61122c612aa6565b611234612ac8565b821561044b576040516350b00eb360e01b8152336004820152610e108202916000826024817f00000000000000000000000000000000000000000000000000000000000000006001600160a01b03165afa91821561049857600092611b03575b5080611a5557509050606062015180915b015115611a3f575b600c54600e546040519060208201924284526001600160601b03199060601b16604083015260018060a01b038716966001600160601b03199060601b16605483015285606883015260888201526088815261130960a882612345565b51902092821595866119ed575b50600e549561135e60405161132a816122d9565b88815260016020820181815288600052600460205260406000209251835551151591019060ff801983541691151516179055565b604051600061136c826122f4565b808252606060208301526060604083015260608201525085600052600560205281604060002054106119dc578515611978576040516370a0823160e01b81523060048201526020816024818a5afa90811561049857600091611946575b50156118c0575b60405163313ce56760e01b81526020816004818a5afa90811561049857600091611886575b506040516306fdde0360e01b81526000816004818b5afa908115610498576106489161143a9160009161186b575b5060405192839160208084015260408301906122b4565b6040516395d89b4160e01b8152906000826004818c5afa9182156104985761147f9261148d91600091611848575b5060405193849160208084015260408301906122b4565b03601f198101845283612345565b60ff6040519361149c856122f4565b16835260208301526040820152866060820152935b604051946114be8661230f565b838652602086019082825260408701954287526060880190420181526080880191825260a08801966001885260c08901938a8552600e546801000000000000000081101561079c578060016115169201600e556128a3565b9a909a61183257518a555160018a01555160028901555160038801556004870190519060ff82511660ff198254161790556005870160208201518051906001600160401b03821161079c57819061156d84546128d8565b601f81116117df575b50602090601f831160011461177a5760009261176f575b50508160011b916000199060031b1c19161790555b6006870160408201518051906001600160401b03821161079c5781906115c884546128d8565b601f811161171c575b50602090601f83116001146116b7576000926116ac575b50508160011b916000199060031b1c19161790555b6007870190606060018060a01b03910151166001600160601b0360a01b8254161790556008860194516004811015610c33577f229f6a9dcc6f577875da9e2821e5641293ec7703e193a86d8d7f6b39d5e3198896600960409360609860009460ff8019835416911617905551910155888152600560205281812085815403905588815260066020522083815401905560405192835260208301526040820152a460018055602060405160018152f35b015190508d806115e8565b60008581528281209350601f198516905b81811061170457509084600195949392106116eb575b505050811b0190556115fd565b015160001960f88460031b161c191690558d80806116de565b929360206001819287860151815501950193016116c8565b909150836000526020600020601f840160051c81019160208510611765575b90601f859493920160051c01905b81811061175657506115d1565b60008155849350600101611749565b909150819061173b565b015190508d8061158d565b60008581528281209350601f198516905b8181106117c757509084600195949392106117ae575b505050811b0190556115a2565b015160001960f88460031b161c191690558d80806117a1565b9293602060018192878601518155019501930161178b565b909150836000526020600020601f840160051c81019160208510611828575b90601f859493920160051c01905b8181106118195750611576565b6000815584935060010161180c565b90915081906117fe565b634e487b7160e01b600052600060045260246000fd5b61186591503d806000833e61185d8183612345565b810190612ae8565b8c611468565b61188091503d806000833e61185d8183612345565b8b611423565b90506020813d6020116118b8575b816118a160209383612345565b8101031261016d576118b290612692565b886113f5565b3d9150611894565b600c54604051636eb1769f60e11b81526001600160a01b0390911660048201523060248201526020816044818a5afa90811561049857600091611914575b506113d0576311e6257b60e01b60005260046000fd5b90506020813d60201161193e575b8161192f60209383612345565b8101031261016d5751886118fe565b3d9150611922565b90506020813d602011611970575b8161196160209383612345565b8101031261016d5751886113c9565b3d9150611954565b604051611984816122f4565b60128152604080516119968282612345565b6008815267457468657265756d60c01b602082015260208301528051906119bd8183612345565b600382526208aa8960eb1b6020830152820152866060820152936114b1565b631568275f60e31b60005260046000fd5b8460005260006020528060406000205414611a2e578015611a1d5784600052600060205260406000205586611316565b63c7eab9b560e01b60005260046000fd5b63be3d20cd60e01b60005260046000fd5b816112ad57630c8f11ff60e01b60005260046000fd5b601810611a65575b6060906112a5565b604081015160171983010280611a7c575b50611a5d565b803410611aaf575b6002546000918291829182916001600160a01b03165af1611aa3612851565b50156102965786611a76565b600080526005602052600080516020612bd3833981519152548111611af257600080526005602052600080516020612bd383398151915280548290039055611a84565b6316e8ed8f60e31b60005260046000fd5b611b219192503d806000833e611b198183612345565b8101906126f4565b9087611294565b3461016d57602036600319011261016d576001600160a01b03611b4961227b565b166000526003602052602060ff604060002054166040519015158152f35b3461016d57600036600319011261016d57611b80612a7d565b60025460ff8160a01c1615611bc75760ff60a01b19166002556040513381527f5db9ee0a495bf2e6ff9c91a7834c1ba4fdd244a5e8aa4e537bd38aeae4b073aa90602090a1005b638dfc202b60e01b60005260046000fd5b3461016d57602036600319011261016d5760043560005260006020526020604060002054604051908152f35b3461016d57606036600319011261016d576024356001600160a01b038116906004359082900361016d57604435611c3a826129b4565b6008810160ff8154166004811015610c33576001036120d357600382015442116120c257600260ff19825416179055611c74600854612881565b60085560248260018060a01b0360078401541692848154808210156000146120ba57505080546000825591505b8054846000526006602052604060002055600060018060a01b0360025416604051948580926350b00eb360e01b82523360048301525afa9283156104985760009361209a575b50600101805490918161208b575050611d08611d02866123e1565b85612890565b925b608083018051519092906001600160a01b03161561207a57825151604051636eb1769f60e11b81523360048201523060248201526001600160a01b039091169490602081604481895afa8015610498578791600091612045575b5010611dc4575050505090611d7c9130903390612a34565b600b5460028101809111611011577f8fb2c26b66af59de39b1b2f4e1fba157f4408a9b52495599333e37e3191b086991602091600b55604051908152a3602060405160018152f35b60a001805160200151909450919290916001600160a01b031615612034578583611e9c5793516020908101519254915151604051637205a8fb60e01b8152600481019790975260248701929092526001600160a01b039384166044870152908316606486015292849290911690829081608481015b03925af190811561049857600091611e62575b50611d7c57631265e8b960e01b60005260046000fd5b90506020813d602011611e94575b81611e7d60209383612345565b8101031261016d57611e8e90612671565b84611e4c565b3d9150611e70565b508351602090810151604051636eb1769f60e11b81523060048201526001600160a01b039091166024820181905295909182604481885afa91821561049857600092612000575b508782018092116110115760405163095ea7b360e01b60208083019182526001600160a01b0389166024840152604480840195909552938252929660009390919088908590611f33606485612345565b835190828b5af184513d82611fe1575b505015611f9d575b5050518501519254915151604051637205a8fb60e01b8152600481019790975260248701929092526001600160a01b039384166044870152908316606486015284929091169082908160848101611e39565b611fd4611fda926040519063095ea7b360e01b8b830152602482015285604482015260448152611fce606482612345565b88612b57565b86612b57565b8a80611f4b565b909150158514611ff85750863b15155b8d80611f43565b600114611ff1565b90916020823d60201161202c575b8161201b60209383612345565b810103126104d0575051908a611ee3565b3d915061200e565b633f39493760e01b60005260046000fd5b9150506020813d602011612072575b8161206160209383612345565b8101031261016d578690518b611d64565b3d9150612054565b6304b4a0b760e51b60005260046000fd5b61209491612890565b92611d0a565b60019193506120b3903d806000833e611b198183612345565b9290611ce7565b038155611ca1565b6362b439dd60e11b60005260046000fd5b631d4ecc5b60e01b60005260046000fd5b604036600319011261016d5760243563ffffffff811660043581830361016d5733600052600360205261211e60ff6040600020541661262e565b612127816129b4565b918015612249576002546040516350b00eb360e01b81523360048201529190600090839060249082906001600160a01b03165afa908115610498576040610e109263ffffffff9460009161222e575b50015102940216928034106121eb575b6002546000918291829182916001600160a01b03165af16121a5612851565b501561029657827f04625b9c98b31f93beec6797b3e1d8a68bfa0753fe1c22f76313283e525a7baa936003604094015582519182526020820152a1602060405160018152f35b600080526005602052600080516020612bd3833981519152548111611af257600080526005602052600080516020612bd383398151915280548290039055612186565b61224391503d806000833e611b198183612345565b88612176565b637616640160e01b60005260046000fd5b602036600319011261016d5760206122736004356123e1565b604051908152f35b600435906001600160a01b038216820361016d57565b60005b8381106122a45750506000910152565b8181015183820152602001612294565b906020916122cd81518092818552858086019101612291565b601f01601f1916010190565b604081019081106001600160401b0382111761079c57604052565b608081019081106001600160401b0382111761079c57604052565b60e081019081106001600160401b0382111761079c57604052565b60a081019081106001600160401b0382111761079c57604052565b90601f801991011681019081106001600160401b0382111761079c57604052565b6001600160401b03811161079c57601f01601f191660200190565b6020810160208252606051809152604082019060408160051b840101926080926000915b8383106123b457505050505090565b90919293946020806123d2600193603f1986820301875289516122b4565b970193019301919392906123a5565b60405190602082016000923360601b825260148152612401603482612345565b5190207f00000000000000000000000000000000000000000000000000000000000000000361261f5781528060205260408120549081156126105760405163d47eed4560e01b81527f00000000000000000000000000000000000000000000000000000000000000006001600160a01b031692906020818061248560048201612381565b0381875afa9081156125c05783916125de575b508047106125cf57833b156125cb57826040518092631df3cbc560e31b825281806124c560048201612381565b0391885af180156125c0576125ab575b5060809060446040518095819363052571af60e51b83526004830152603c60248301525afa91821561259e578192612511575b50505160070b90565b9091506080813d608011612596575b8161252d60809383612345565b810103126125925760405191612542836122f4565b81518060070b810361259257835260208201516001600160401b03811681036125925760208401526040820151908160030b82036104d05750906060916040840152015160608201523880612508565b5080fd5b3d9150612520565b50604051903d90823e3d90fd5b916125b98160809394612345565b91906124d5565b6040513d85823e3d90fd5b8280fd5b631b9111a760e01b8352600483fd5b90506020813d602011612608575b816125f960209383612345565b810103126125cb575138612498565b3d91506125ec565b63c7eab9b560e01b8152600490fd5b6348f5c3ed60e01b8252600482fd5b1561263557565b60405162461bcd60e51b8152602060048201526014602482015273139bdd08185c1c1c9bdd9959081858d8dbdd5b9d60621b6044820152606490fd5b5190811515820361016d57565b51906001600160a01b038216820361016d57565b519060ff8216820361016d57565b909291926126ad81612366565b916126bb6040519384612345565b82948284528282011161016d5760206126d5930190612291565b565b9080601f8301121561016d5781516126f1926020016126a0565b90565b60208183031261016d578051906001600160401b03821161016d570180820391610100831261016d576040519260c084018481106001600160401b0382111761079c5760405282518452602083015160208501526040830151604085015261275e60608401612671565b606085015260808301516001600160401b03811161016d57830160808184031261016d576040519061278f826122f4565b6127988161267e565b82526127a660208201612692565b602083015260408101516001600160401b03811161016d57846127ca9183016126d7565b60408301526060810151936001600160401b03851161016d576060946127f092016126d7565b818401526080850152609f19011261016d576040519060608201908282106001600160401b0383111761079c5760e09160405261282f60a0820161267e565b835261283d60c0820161267e565b60208401520151604082015260a082015290565b3d1561287c573d9061286282612366565b916128706040519384612345565b82523d6000602084013e565b606090565b60001981146110115760010190565b8181029291811591840414171561101157565b600e548110156128c257600e600052600a602060002091020190600090565b634e487b7160e01b600052603260045260246000fd5b90600182811c92168015612908575b60208310146128f257565b634e487b7160e01b600052602260045260246000fd5b91607f16916128e7565b9060405191826000825492612926846128d8565b8084529360018116908115612992575060011461294b575b506126d592500383612345565b90506000929192526020600020906000915b8183106129765750509060206126d5928201013861293e565b602091935080600191548385890101520191019091849261295d565b9050602092506126d594915060ff191682840152151560051b8201013861293e565b6000526004602052604060002060ff6001604051926129d2846122d9565b805484520154161580156020830152612a23576129ef90516128a3565b50908160ff6008820154166004811015610c33576001036120d3575415612a1257565b63d36d896560e01b60005260046000fd5b635d70603360e01b60005260046000fd5b6040516323b872dd60e01b60208201526001600160a01b0392831660248201529290911660448301526064808301939093529181526126d591612a78608483612345565b612b57565b6002546001600160a01b03163303612a9157565b63118cdaa760e01b6000523360045260246000fd5b600260015414612ab7576002600155565b633ee5aeb560e01b60005260046000fd5b60ff60025460a01c16612ad757565b63d93c066560e01b60005260046000fd5b60208183031261016d578051906001600160401b03821161016d57019080601f8301121561016d5781516126f1926020016126a0565b60405163a9059cbb60e01b60208201526001600160a01b03909216602483015260448201929092526126d591612a78826064810161147f565b906000602091828151910182855af115610498576000513d612ba957506001600160a01b0381163b155b612b885750565b635274afe760e01b60009081526001600160a01b0391909116600452602490fd5b60011415612b8156fec65a7bb8d6351c1cf70c95a316cc6a92839c986682d98bc35f958f4883f9d2a805b8ccbb9d4d8fb16ea74ce3c29a41f1b461fbdaff4714a0d9a8eb05499746bca2646970667358221220c02415bc3d6e88b68948f6d15636d0e310dd15273c82ee338e7fe61036282c3464736f6c634300081e0033",
  "linkReferences": {},
  "deployedLinkReferences": {},
  "immutableReferences": {
    "5880": [
      {
        "length": 32,
        "start": 318
      },
      {
        "length": 32,
        "start": 9291
      }
    ],
    "5887": [
      {
        "length": 32,
        "start": 9222
      }
    ],
    "6788": [
      {
        "length": 32,
        "start": 4699
      }
    ]
  },
  "inputSourceName": "project/contracts/trading/peripherals/TradingAccount.sol",
  "buildInfoId": "solc-0_8_30-4ec5e690bb0903808fa11d68eb66940e8efcf66d"
}