{
  "_format": "hh3-artifact-1",
  "contractName": "VerseToken",
  "sourceName": "contracts/tokens/VerseToken.sol",
  "abi": [
    {
      "inputs": [
        {
          "internalType": "uint256",
          "name": "_maxSupply",
          "type": "uint256"
        },
        {
          "internalType": "uint256",
          "name": "initialSupply",
          "type": "uint256"
        },
        {
          "internalType": "string",
          "name": "name_",
          "type": "string"
        },
        {
          "internalType": "string",
          "name": "symbol_",
          "type": "string"
        },
        {
          "internalType": "address",
          "name": "initialSupplyReceiver",
          "type": "address"
        }
      ],
      "stateMutability": "nonpayable",
      "type": "constructor"
    },
    {
      "inputs": [
        {
          "internalType": "address",
          "name": "spender",
          "type": "address"
        },
        {
          "internalType": "uint256",
          "name": "allowance",
          "type": "uint256"
        },
        {
          "internalType": "uint256",
          "name": "needed",
          "type": "uint256"
        }
      ],
      "name": "ERC20InsufficientAllowance",
      "type": "error"
    },
    {
      "inputs": [
        {
          "internalType": "address",
          "name": "sender",
          "type": "address"
        },
        {
          "internalType": "uint256",
          "name": "balance",
          "type": "uint256"
        },
        {
          "internalType": "uint256",
          "name": "needed",
          "type": "uint256"
        }
      ],
      "name": "ERC20InsufficientBalance",
      "type": "error"
    },
    {
      "inputs": [
        {
          "internalType": "address",
          "name": "approver",
          "type": "address"
        }
      ],
      "name": "ERC20InvalidApprover",
      "type": "error"
    },
    {
      "inputs": [
        {
          "internalType": "address",
          "name": "receiver",
          "type": "address"
        }
      ],
      "name": "ERC20InvalidReceiver",
      "type": "error"
    },
    {
      "inputs": [
        {
          "internalType": "address",
          "name": "sender",
          "type": "address"
        }
      ],
      "name": "ERC20InvalidSender",
      "type": "error"
    },
    {
      "inputs": [
        {
          "internalType": "address",
          "name": "spender",
          "type": "address"
        }
      ],
      "name": "ERC20InvalidSpender",
      "type": "error"
    },
    {
      "inputs": [],
      "name": "MaxSupplyExceeded",
      "type": "error"
    },
    {
      "anonymous": false,
      "inputs": [
        {
          "indexed": true,
          "internalType": "address",
          "name": "owner",
          "type": "address"
        },
        {
          "indexed": true,
          "internalType": "address",
          "name": "spender",
          "type": "address"
        },
        {
          "indexed": false,
          "internalType": "uint256",
          "name": "value",
          "type": "uint256"
        }
      ],
      "name": "Approval",
      "type": "event"
    },
    {
      "anonymous": false,
      "inputs": [
        {
          "indexed": true,
          "internalType": "address",
          "name": "from",
          "type": "address"
        },
        {
          "indexed": true,
          "internalType": "address",
          "name": "to",
          "type": "address"
        },
        {
          "indexed": false,
          "internalType": "uint256",
          "name": "value",
          "type": "uint256"
        }
      ],
      "name": "Transfer",
      "type": "event"
    },
    {
      "inputs": [
        {
          "internalType": "address",
          "name": "owner",
          "type": "address"
        },
        {
          "internalType": "address",
          "name": "spender",
          "type": "address"
        }
      ],
      "name": "allowance",
      "outputs": [
        {
          "internalType": "uint256",
          "name": "",
          "type": "uint256"
        }
      ],
      "stateMutability": "view",
      "type": "function"
    },
    {
      "inputs": [
        {
          "internalType": "address",
          "name": "spender",
          "type": "address"
        },
        {
          "internalType": "uint256",
          "name": "value",
          "type": "uint256"
        }
      ],
      "name": "approve",
      "outputs": [
        {
          "internalType": "bool",
          "name": "",
          "type": "bool"
        }
      ],
      "stateMutability": "nonpayable",
      "type": "function"
    },
    {
      "inputs": [
        {
          "internalType": "address",
          "name": "account",
          "type": "address"
        }
      ],
      "name": "balanceOf",
      "outputs": [
        {
          "internalType": "uint256",
          "name": "",
          "type": "uint256"
        }
      ],
      "stateMutability": "view",
      "type": "function"
    },
    {
      "inputs": [
        {
          "internalType": "uint256",
          "name": "amount",
          "type": "uint256"
        }
      ],
      "name": "burn",
      "outputs": [],
      "stateMutability": "nonpayable",
      "type": "function"
    },
    {
      "inputs": [],
      "name": "decimals",
      "outputs": [
        {
          "internalType": "uint8",
          "name": "",
          "type": "uint8"
        }
      ],
      "stateMutability": "view",
      "type": "function"
    },
    {
      "inputs": [],
      "name": "maxSupply",
      "outputs": [
        {
          "internalType": "uint256",
          "name": "",
          "type": "uint256"
        }
      ],
      "stateMutability": "view",
      "type": "function"
    },
    {
      "inputs": [
        {
          "internalType": "address",
          "name": "to",
          "type": "address"
        },
        {
          "internalType": "uint256",
          "name": "amount",
          "type": "uint256"
        }
      ],
      "name": "mint",
      "outputs": [],
      "stateMutability": "nonpayable",
      "type": "function"
    },
    {
      "inputs": [],
      "name": "name",
      "outputs": [
        {
          "internalType": "string",
          "name": "",
          "type": "string"
        }
      ],
      "stateMutability": "view",
      "type": "function"
    },
    {
      "inputs": [],
      "name": "receiver",
      "outputs": [
        {
          "internalType": "address",
          "name": "",
          "type": "address"
        }
      ],
      "stateMutability": "view",
      "type": "function"
    },
    {
      "inputs": [],
      "name": "symbol",
      "outputs": [
        {
          "internalType": "string",
          "name": "",
          "type": "string"
        }
      ],
      "stateMutability": "view",
      "type": "function"
    },
    {
      "inputs": [],
      "name": "totalSupply",
      "outputs": [
        {
          "internalType": "uint256",
          "name": "",
          "type": "uint256"
        }
      ],
      "stateMutability": "view",
      "type": "function"
    },
    {
      "inputs": [
        {
          "internalType": "address",
          "name": "to",
          "type": "address"
        },
        {
          "internalType": "uint256",
          "name": "value",
          "type": "uint256"
        }
      ],
      "name": "transfer",
      "outputs": [
        {
          "internalType": "bool",
          "name": "",
          "type": "bool"
        }
      ],
      "stateMutability": "nonpayable",
      "type": "function"
    },
    {
      "inputs": [
        {
          "internalType": "address",
          "name": "from",
          "type": "address"
        },
        {
          "internalType": "address",
          "name": "to",
          "type": "address"
        },
        {
          "internalType": "uint256",
          "name": "value",
          "type": "uint256"
        }
      ],
      "name": "transferFrom",
      "outputs": [
        {
          "internalType": "bool",
          "name": "",
          "type": "bool"
        }
      ],
      "stateMutability": "nonpayable",
      "type": "function"
    }
  ],
  "bytecode": "0x60c060405234801561000f575f5ffd5b50604051610e83380380610e8383398101604081905261002e9161034e565b8282600361003c838261046b565b506004610049828261046b565b5050506001600160a01b0381166100c25760405162461bcd60e51b815260206004820152603260248201527f566572736520546f6b656e3a20496e697469616c537570706c795265636569766044820152716572206973207a65726f204164647265737360701b60648201526084015b60405180910390fd5b8484111561011c5760405162461bcd60e51b815260206004820152602160248201527f496e697469616c20737570706c792065786365656473206d617820737570706c6044820152607960f81b60648201526084016100b9565b6001600160a01b03811660a052670de0b6b3a76400008581026080526012906101489083908702610153565b50505050505061054a565b6001600160a01b03821661017c5760405163ec442f0560e01b81525f60048201526024016100b9565b6101875f838361018b565b5050565b6001600160a01b0383166101b5578060025f8282546101aa9190610525565b909155506102259050565b6001600160a01b0383165f90815260208190526040902054818110156102075760405163391434e360e21b81526001600160a01b038516600482015260248101829052604481018390526064016100b9565b6001600160a01b0384165f9081526020819052604090209082900390555b6001600160a01b0382166102415760028054829003905561025f565b6001600160a01b0382165f9081526020819052604090208054820190555b816001600160a01b0316836001600160a01b03167fddf252ad1be2c89b69c2b068fc378daa952ba7f163c4a11628f55a4df523b3ef836040516102a491815260200190565b60405180910390a3505050565b634e487b7160e01b5f52604160045260245ffd5b5f82601f8301126102d4575f5ffd5b81516001600160401b038111156102ed576102ed6102b1565b604051601f8201601f19908116603f011681016001600160401b038111828210171561031b5761031b6102b1565b604052818152838201602001851015610332575f5ffd5b8160208501602083015e5f918101602001919091529392505050565b5f5f5f5f5f60a08688031215610362575f5ffd5b85516020870151604088015191965094506001600160401b03811115610386575f5ffd5b610392888289016102c5565b606088015190945090506001600160401b038111156103af575f5ffd5b6103bb888289016102c5565b608088015190935090506001600160a01b03811681146103d9575f5ffd5b809150509295509295909350565b600181811c908216806103fb57607f821691505b60208210810361041957634e487b7160e01b5f52602260045260245ffd5b50919050565b601f82111561046657805f5260205f20601f840160051c810160208510156104445750805b601f840160051c820191505b81811015610463575f8155600101610450565b50505b505050565b81516001600160401b03811115610484576104846102b1565b6104988161049284546103e7565b8461041f565b6020601f8211600181146104ca575f83156104b35750848201515b5f19600385901b1c1916600184901b178455610463565b5f84815260208120601f198516915b828110156104f957878501518255602094850194600190920191016104d9565b508482101561051657868401515f19600387901b60f8161c191681555b50505050600190811b01905550565b8082018082111561054457634e487b7160e01b5f52601160045260245ffd5b92915050565b60805160a05161090a6105795f395f8181610213015261032401525f81816101b40152610398015261090a5ff3fe608060405234801561000f575f5ffd5b50600436106100cb575f3560e01c806342966c6811610088578063a9059cbb11610063578063a9059cbb1461019c578063d5abeb01146101af578063dd62ed3e146101d6578063f7260d3e1461020e575f5ffd5b806342966c681461015957806370a082311461016c57806395d89b4114610194575f5ffd5b806306fdde03146100cf578063095ea7b3146100ed57806318160ddd1461011057806323b872dd14610122578063313ce5671461013557806340c10f1914610144575b5f5ffd5b6100d761024d565b6040516100e49190610763565b60405180910390f35b6101006100fb3660046107b3565b6102dd565b60405190151581526020016100e4565b6002545b6040519081526020016100e4565b6101006101303660046107db565b6102f6565b604051601281526020016100e4565b6101576101523660046107b3565b610319565b005b610157610167366004610815565b6103ef565b61011461017a36600461082c565b6001600160a01b03165f9081526020819052604090205490565b6100d76103fc565b6101006101aa3660046107b3565b61040b565b6101147f000000000000000000000000000000000000000000000000000000000000000081565b6101146101e436600461084c565b6001600160a01b039182165f90815260016020908152604080832093909416825291909152205490565b6102357f000000000000000000000000000000000000000000000000000000000000000081565b6040516001600160a01b0390911681526020016100e4565b60606003805461025c9061087d565b80601f01602080910402602001604051908101604052809291908181526020018280546102889061087d565b80156102d35780601f106102aa576101008083540402835291602001916102d3565b820191905f5260205f20905b8154815290600101906020018083116102b657829003601f168201915b5050505050905090565b5f336102ea818585610418565b60019150505b92915050565b5f3361030385828561042a565b61030e8585856104a6565b506001949350505050565b336001600160a01b037f000000000000000000000000000000000000000000000000000000000000000016146103965760405162461bcd60e51b815260206004820152601760248201527f4e6f7420616e20617070726f766564206163636f756e7400000000000000000060448201526064015b60405180910390fd5b7f0000000000000000000000000000000000000000000000000000000000000000816103c160025490565b0111156103e157604051638a164f6360e01b815260040160405180910390fd5b6103eb8282610503565b5050565b6103f93382610537565b50565b60606004805461025c9061087d565b5f336102ea8185856104a6565b610425838383600161056b565b505050565b6001600160a01b038381165f908152600160209081526040808320938616835292905220545f198110156104a0578181101561049257604051637dc7a0d960e11b81526001600160a01b0384166004820152602481018290526044810183905260640161038d565b6104a084848484035f61056b565b50505050565b6001600160a01b0383166104cf57604051634b637e8f60e11b81525f600482015260240161038d565b6001600160a01b0382166104f85760405163ec442f0560e01b81525f600482015260240161038d565b61042583838361063d565b6001600160a01b03821661052c5760405163ec442f0560e01b81525f600482015260240161038d565b6103eb5f838361063d565b6001600160a01b03821661056057604051634b637e8f60e11b81525f600482015260240161038d565b6103eb825f8361063d565b6001600160a01b0384166105945760405163e602df0560e01b81525f600482015260240161038d565b6001600160a01b0383166105bd57604051634a1406b160e11b81525f600482015260240161038d565b6001600160a01b038085165f90815260016020908152604080832093871683529290522082905580156104a057826001600160a01b0316846001600160a01b03167f8c5be1e5ebec7d5bd14f71427d1e84f3dd0314c0f7b2291e5b200ac8c7c3b9258460405161062f91815260200190565b60405180910390a350505050565b6001600160a01b038316610667578060025f82825461065c91906108b5565b909155506106d79050565b6001600160a01b0383165f90815260208190526040902054818110156106b95760405163391434e360e21b81526001600160a01b0385166004820152602481018290526044810183905260640161038d565b6001600160a01b0384165f9081526020819052604090209082900390555b6001600160a01b0382166106f357600280548290039055610711565b6001600160a01b0382165f9081526020819052604090208054820190555b816001600160a01b0316836001600160a01b03167fddf252ad1be2c89b69c2b068fc378daa952ba7f163c4a11628f55a4df523b3ef8360405161075691815260200190565b60405180910390a3505050565b602081525f82518060208401528060208501604085015e5f604082850101526040601f19601f83011684010191505092915050565b80356001600160a01b03811681146107ae575f5ffd5b919050565b5f5f604083850312156107c4575f5ffd5b6107cd83610798565b946020939093013593505050565b5f5f5f606084860312156107ed575f5ffd5b6107f684610798565b925061080460208501610798565b929592945050506040919091013590565b5f60208284031215610825575f5ffd5b5035919050565b5f6020828403121561083c575f5ffd5b61084582610798565b9392505050565b5f5f6040838503121561085d575f5ffd5b61086683610798565b915061087460208401610798565b90509250929050565b600181811c9082168061089157607f821691505b6020821081036108af57634e487b7160e01b5f52602260045260245ffd5b50919050565b808201808211156102f057634e487b7160e01b5f52601160045260245ffdfea26469706673582212205c22baa835e3a5ea334d2b0c66ee5f37d50d802c2e5a0b0db3e9f426e66e0cab64736f6c634300081e0033",
  "linkReferences": {},
  "deployedLinkReferences": {},
  "immutableReferences": {
    "798": [
      {
        "length": 32,
        "start": 436
      },
      {
        "length": 32,
        "start": 920
      }
    ],
    "800": [
      {
        "length": 32,
        "start": 531
      },
      {
        "length": 32,
        "start": 804
      }
    ]
  },
  "inputSourceName": "project/contracts/tokens/VerseToken.sol",
  "buildInfoId": "solc-0_8_30-ac6dcf7fc0b1f8724986e7185dabffb5db3444ef"
}