{
  "_format": "hh3-artifact-1",
  "contractName": "TradeFactory",
  "sourceName": "contracts/trading/TradeFactory.sol",
  "abi": [
    {
      "inputs": [],
      "stateMutability": "nonpayable",
      "type": "constructor"
    },
    {
      "inputs": [],
      "name": "AccountAlreadyExists",
      "type": "error"
    },
    {
      "inputs": [],
      "name": "InvalidAddress",
      "type": "error"
    },
    {
      "inputs": [],
      "name": "InvalidAmount",
      "type": "error"
    },
    {
      "inputs": [],
      "name": "InvalidFee",
      "type": "error"
    },
    {
      "inputs": [],
      "name": "InvalidOwner",
      "type": "error"
    },
    {
      "inputs": [
        {
          "internalType": "address",
          "name": "owner",
          "type": "address"
        }
      ],
      "name": "OwnableInvalidOwner",
      "type": "error"
    },
    {
      "inputs": [
        {
          "internalType": "address",
          "name": "account",
          "type": "address"
        }
      ],
      "name": "OwnableUnauthorizedAccount",
      "type": "error"
    },
    {
      "inputs": [],
      "name": "Paused",
      "type": "error"
    },
    {
      "inputs": [],
      "name": "TransferFailed",
      "type": "error"
    },
    {
      "anonymous": false,
      "inputs": [
        {
          "indexed": true,
          "internalType": "address",
          "name": "user",
          "type": "address"
        },
        {
          "indexed": true,
          "internalType": "address",
          "name": "tradingAccount",
          "type": "address"
        },
        {
          "indexed": false,
          "internalType": "uint256",
          "name": "timestamp",
          "type": "uint256"
        }
      ],
      "name": "AccountCreated",
      "type": "event"
    },
    {
      "anonymous": false,
      "inputs": [
        {
          "indexed": false,
          "internalType": "uint256",
          "name": "newFee",
          "type": "uint256"
        },
        {
          "indexed": false,
          "internalType": "enum ITradeFactory.FeeType",
          "name": "feeType",
          "type": "uint8"
        }
      ],
      "name": "FeeSet",
      "type": "event"
    },
    {
      "anonymous": false,
      "inputs": [
        {
          "indexed": false,
          "internalType": "uint256",
          "name": "amount",
          "type": "uint256"
        },
        {
          "indexed": true,
          "internalType": "address",
          "name": "to",
          "type": "address"
        }
      ],
      "name": "FeesWithdrawn",
      "type": "event"
    },
    {
      "anonymous": false,
      "inputs": [
        {
          "indexed": true,
          "internalType": "address",
          "name": "oldPaymentAsset",
          "type": "address"
        },
        {
          "indexed": true,
          "internalType": "address",
          "name": "newPaymentAsset",
          "type": "address"
        }
      ],
      "name": "NewPaymentAssetAdded",
      "type": "event"
    },
    {
      "anonymous": false,
      "inputs": [
        {
          "indexed": true,
          "internalType": "address",
          "name": "previousOwner",
          "type": "address"
        },
        {
          "indexed": true,
          "internalType": "address",
          "name": "newOwner",
          "type": "address"
        }
      ],
      "name": "OwnershipTransferred",
      "type": "event"
    },
    {
      "inputs": [
        {
          "internalType": "address",
          "name": "agent",
          "type": "address"
        },
        {
          "internalType": "string",
          "name": "nickName",
          "type": "string"
        }
      ],
      "name": "createTradingAccount",
      "outputs": [
        {
          "internalType": "address",
          "name": "account",
          "type": "address"
        }
      ],
      "stateMutability": "nonpayable",
      "type": "function"
    },
    {
      "inputs": [
        {
          "internalType": "address",
          "name": "user",
          "type": "address"
        }
      ],
      "name": "getAccountInfo",
      "outputs": [
        {
          "components": [
            {
              "internalType": "address",
              "name": "user",
              "type": "address"
            },
            {
              "internalType": "address",
              "name": "tradingAccount",
              "type": "address"
            },
            {
              "internalType": "uint256",
              "name": "createdAt",
              "type": "uint256"
            }
          ],
          "internalType": "struct ICommon.AccountInfo",
          "name": "",
          "type": "tuple"
        }
      ],
      "stateMutability": "view",
      "type": "function"
    },
    {
      "inputs": [
        {
          "internalType": "address",
          "name": "any",
          "type": "address"
        }
      ],
      "name": "getFactoryData",
      "outputs": [
        {
          "components": [
            {
              "internalType": "address",
              "name": "owner",
              "type": "address"
            },
            {
              "internalType": "uint256",
              "name": "platformFee",
              "type": "uint256"
            },
            {
              "internalType": "uint256",
              "name": "totalFees",
              "type": "uint256"
            },
            {
              "internalType": "uint256",
              "name": "totalAccounts",
              "type": "uint256"
            },
            {
              "components": [
                {
                  "internalType": "address",
                  "name": "user",
                  "type": "address"
                },
                {
                  "internalType": "address",
                  "name": "tradingAccount",
                  "type": "address"
                },
                {
                  "internalType": "uint256",
                  "name": "createdAt",
                  "type": "uint256"
                }
              ],
              "internalType": "struct ICommon.AccountInfo[]",
              "name": "accounts",
              "type": "tuple[]"
            },
            {
              "components": [
                {
                  "internalType": "uint256",
                  "name": "platformFee",
                  "type": "uint256"
                },
                {
                  "internalType": "uint256",
                  "name": "feeDenom",
                  "type": "uint256"
                },
                {
                  "internalType": "uint256",
                  "name": "creationFee",
                  "type": "uint256"
                },
                {
                  "internalType": "bool",
                  "name": "isPythSupported",
                  "type": "bool"
                },
                {
                  "components": [
                    {
                      "internalType": "address",
                      "name": "token",
                      "type": "address"
                    },
                    {
                      "internalType": "uint8",
                      "name": "decimals",
                      "type": "uint8"
                    },
                    {
                      "internalType": "bytes",
                      "name": "name",
                      "type": "bytes"
                    },
                    {
                      "internalType": "bytes",
                      "name": "symbol",
                      "type": "bytes"
                    }
                  ],
                  "internalType": "struct ICommon.SupportPaymentAsset",
                  "name": "supportedPaymentAsset",
                  "type": "tuple"
                },
                {
                  "components": [
                    {
                      "internalType": "address",
                      "name": "user",
                      "type": "address"
                    },
                    {
                      "internalType": "address",
                      "name": "tradingAccount",
                      "type": "address"
                    },
                    {
                      "internalType": "uint256",
                      "name": "createdAt",
                      "type": "uint256"
                    }
                  ],
                  "internalType": "struct ICommon.AccountInfo",
                  "name": "alc",
                  "type": "tuple"
                }
              ],
              "internalType": "struct ICommon.FactoryVariables",
              "name": "variables",
              "type": "tuple"
            },
            {
              "internalType": "bool",
              "name": "isPaused",
              "type": "bool"
            }
          ],
          "internalType": "struct ITradeFactory.FactoryData",
          "name": "factoryData",
          "type": "tuple"
        }
      ],
      "stateMutability": "view",
      "type": "function"
    },
    {
      "inputs": [
        {
          "internalType": "address",
          "name": "any",
          "type": "address"
        }
      ],
      "name": "getVariables",
      "outputs": [
        {
          "components": [
            {
              "internalType": "uint256",
              "name": "platformFee",
              "type": "uint256"
            },
            {
              "internalType": "uint256",
              "name": "feeDenom",
              "type": "uint256"
            },
            {
              "internalType": "uint256",
              "name": "creationFee",
              "type": "uint256"
            },
            {
              "internalType": "bool",
              "name": "isPythSupported",
              "type": "bool"
            },
            {
              "components": [
                {
                  "internalType": "address",
                  "name": "token",
                  "type": "address"
                },
                {
                  "internalType": "uint8",
                  "name": "decimals",
                  "type": "uint8"
                },
                {
                  "internalType": "bytes",
                  "name": "name",
                  "type": "bytes"
                },
                {
                  "internalType": "bytes",
                  "name": "symbol",
                  "type": "bytes"
                }
              ],
              "internalType": "struct ICommon.SupportPaymentAsset",
              "name": "supportedPaymentAsset",
              "type": "tuple"
            },
            {
              "components": [
                {
                  "internalType": "address",
                  "name": "user",
                  "type": "address"
                },
                {
                  "internalType": "address",
                  "name": "tradingAccount",
                  "type": "address"
                },
                {
                  "internalType": "uint256",
                  "name": "createdAt",
                  "type": "uint256"
                }
              ],
              "internalType": "struct ICommon.AccountInfo",
              "name": "alc",
              "type": "tuple"
            }
          ],
          "internalType": "struct ICommon.FactoryVariables",
          "name": "",
          "type": "tuple"
        }
      ],
      "stateMutability": "view",
      "type": "function"
    },
    {
      "inputs": [],
      "name": "owner",
      "outputs": [
        {
          "internalType": "address",
          "name": "",
          "type": "address"
        }
      ],
      "stateMutability": "view",
      "type": "function"
    },
    {
      "inputs": [],
      "name": "renounceOwnership",
      "outputs": [],
      "stateMutability": "nonpayable",
      "type": "function"
    },
    {
      "inputs": [
        {
          "internalType": "uint256",
          "name": "newFee",
          "type": "uint256"
        }
      ],
      "name": "setCreationFee",
      "outputs": [
        {
          "internalType": "bool",
          "name": "",
          "type": "bool"
        }
      ],
      "stateMutability": "nonpayable",
      "type": "function"
    },
    {
      "inputs": [
        {
          "internalType": "uint256",
          "name": "newFee",
          "type": "uint256"
        }
      ],
      "name": "setPlatformFee",
      "outputs": [
        {
          "internalType": "bool",
          "name": "",
          "type": "bool"
        }
      ],
      "stateMutability": "nonpayable",
      "type": "function"
    },
    {
      "inputs": [
        {
          "internalType": "address",
          "name": "newPaymentAsset",
          "type": "address"
        }
      ],
      "name": "setSupportedPaymentAsset",
      "outputs": [
        {
          "internalType": "bool",
          "name": "",
          "type": "bool"
        }
      ],
      "stateMutability": "nonpayable",
      "type": "function"
    },
    {
      "inputs": [
        {
          "internalType": "bool",
          "name": "status",
          "type": "bool"
        }
      ],
      "name": "toggleExecution",
      "outputs": [],
      "stateMutability": "nonpayable",
      "type": "function"
    },
    {
      "inputs": [],
      "name": "toggleIsPythSupportedNetwork",
      "outputs": [
        {
          "internalType": "bool",
          "name": "",
          "type": "bool"
        }
      ],
      "stateMutability": "nonpayable",
      "type": "function"
    },
    {
      "inputs": [
        {
          "internalType": "address",
          "name": "newOwner",
          "type": "address"
        }
      ],
      "name": "transferOwnership",
      "outputs": [],
      "stateMutability": "nonpayable",
      "type": "function"
    },
    {
      "inputs": [],
      "name": "withdrawFees",
      "outputs": [],
      "stateMutability": "nonpayable",
      "type": "function"
    }
  ],
  "bytecode": "0x608060405260326006553480156013575f5ffd5b503380603857604051631e4fbdf760e01b81525f600482015260240160405180910390fd5b603f81604f565b5066038d7ea4c68000600855609e565b5f80546001600160a01b038381166001600160a01b0319831681178455604051919092169283917f8be0079c531659141344cd1fd0a4f28419497f9722a3daafe3b4186f6b6457e09190a35050565b614704806100ab5f395ff3fe608060405234801561000f575f5ffd5b50600436106100cb575f3560e01c8063715018a6116100885780638da5cb5b116100635780638da5cb5b146101ba5780639c7bfea7146101ca578063b7d86225146101d2578063f2fde38b146101e5575f5ffd5b8063715018a61461017f5780637b510fe8146101875780638734744d146101a7575f5ffd5b806312e8e2c3146100cf57806333789aa3146100f7578063401885951461012257806345bdfb1e14610137578063476343ee1461015757806350b00eb31461015f575b5f5ffd5b6100e26100dd366004610e17565b6101f8565b60405190151581526020015b60405180910390f35b61010a610105366004610eb0565b61026c565b6040516001600160a01b0390911681526020016100ee565b610135610130366004610f3b565b6102f9565b005b61014a610145366004610f61565b61031b565b6040516100ee919061106f565b61013561040f565b61017261016d366004610f61565b610524565b6040516100ee9190611128565b610135610535565b61019a610195366004610f61565b610548565b6040516100ee919061113a565b6100e26101b5366004610f61565b61056d565b5f546001600160a01b031661010a565b6100e26107a6565b6100e26101e0366004610e17565b6107c7565b6101356101f3366004610f61565b610808565b5f61020161084a565b611388821115610224576040516358d620b360e01b815260040160405180910390fd5b60068290556040517f1ca9926aa393566df96e0708976a1ac400284b420758ab813dea26ce91242ce89061025b9084905f90611148565b60405180910390a15060015b919050565b6009545f90610100900460ff1615610297576040516313d0ff5960e31b815260040160405180910390fd5b335f818152600160208181526040928390208351808501909452805484529091015460ff16158015918301919091526102e3576040516369783db760e01b815260040160405180910390fd5b6102ee828686610876565b925050505b92915050565b61030161084a565b600980549115156101000261ff0019909216919091179055565b610323610d47565b6040518060e0016040528061033f5f546001600160a01b031690565b6001600160a01b031681526020016006548152602001600754815260200160028054905081526020016002805480602002602001604051908101604052809291908181526020015f905b828210156103e2575f848152602090819020604080516060810182526003860290920180546001600160a01b03908116845260018083015490911684860152600290910154918301919091529083529092019101610389565b5050505081526020016103f484610aa4565b8152600954610100900460ff16151560209091015292915050565b61041761084a565b6007545f81900361043b5760405163162908e360e11b815260040160405180910390fd5b5f6007819055546001600160a01b0316478281108061046257508215801561046257508281115b1561046b578092505b5f826001600160a01b0316846040515f6040518083038185875af1925050503d805f81146104b4576040519150601f19603f3d011682016040523d82523d5f602084013e6104b9565b606091505b50509050806104db576040516312171d8360e31b815260040160405180910390fd5b826001600160a01b03167f812bcf6853ebc81dc0a1d2323893eedad6cd086a4398311a699e0a7acdf187b38560405161051691815260200190565b60405180910390a250505050565b61052c610d8e565b6102f382610aa4565b61053d61084a565b6105465f610c3f565b565b604080516060810182525f80825260208201819052918101919091526102f382610c8e565b5f61057661084a565b6003546040516001600160a01b038085169216907f687e30279b872b0d226d00e225773284d9f8eb6a587e9300bf25d315bceb3fed905f90a35f8290506040518060800160405280846001600160a01b03168152602001826001600160a01b031663313ce5676040518163ffffffff1660e01b8152600401602060405180830381865afa158015610609573d5f5f3e3d5ffd5b505050506040513d601f19601f8201168201806040525081019061062d9190611178565b60ff168152602001826001600160a01b03166306fdde036040518163ffffffff1660e01b81526004015f60405180830381865afa158015610670573d5f5f3e3d5ffd5b505050506040513d5f823e601f3d908101601f191682016040526106979190810190611198565b6040516020016106a7919061120d565b6040516020818303038152906040528152602001826001600160a01b03166395d89b416040518163ffffffff1660e01b81526004015f60405180830381865afa1580156106f6573d5f5f3e3d5ffd5b505050506040513d5f823e601f3d908101601f1916820160405261071d9190810190611198565b60405160200161072d919061120d565b60408051601f198184030181529181529152815160038054602085015160ff16600160a01b026001600160a81b03199091166001600160a01b039093169290921791909117815590820151600490610785908261129d565b506060820151600282019061079a908261129d565b50600195945050505050565b5f6107af61084a565b506009805460ff19811660ff90911615179055600190565b5f6107d061084a565b60088290556040517f1ca9926aa393566df96e0708976a1ac400284b420758ab813dea26ce91242ce89061025b908490600190611148565b61081061084a565b6001600160a01b03811661083e57604051631e4fbdf760e01b81525f60048201526024015b60405180910390fd5b61084781610c3f565b50565b5f546001600160a01b031633146105465760405163118cdaa760e01b8152336004820152602401610835565b5f6001600160a01b03841661089e576040516349e27cff60e01b815260040160405180910390fd5b6001600160a01b0384165f908152600160208181526040928390208351808501909452805484529091015460ff161515908201819052610a67575f544290869086906001600160a01b0316866040516108f690610e0a565b6109039493929190611358565b604051809103905ff08015801561091c573d5f5f3e3d5ffd5b50604080518082018252600280548252600160208084018281526001600160a01b03808e165f818152858552888120975188559251968501805497151560ff199098169790971790965586516060810188528681528189169381018481528189018b815287549687018855969093525160039094027f405787fa12a823e0f2b7631cc41b3ba8828b3321ca811111fa75cd3aa3bb5ace810180549583166001600160a01b031996871617905591517f405787fa12a823e0f2b7631cc41b3ba8828b3321ca811111fa75cd3aa3bb5acf830180549190921694169390931790925591517f405787fa12a823e0f2b7631cc41b3ba8828b3321ca811111fa75cd3aa3bb5ad090910155915192955090917f33310a89c32d8cc00057ad6ef6274d2f8fe22389a992cf89983e09fc84f6cfff90610a599085815260200190565b60405180910390a350610a9c565b6002815f015181548110610a7d57610a7d611395565b5f9182526020909120600160039092020101546001600160a01b031691505b509392505050565b610aac610d8e565b60085460408083019190915261271060208084019190915260095460ff9081161515606085015260065484528251608081018452600380546001600160a01b0381168352600160a01b900490921692810192909252600480549293919291840191610b169061121f565b80601f0160208091040260200160405190810160405280929190818152602001828054610b429061121f565b8015610b8d5780601f10610b6457610100808354040283529160200191610b8d565b820191905f5260205f20905b815481529060010190602001808311610b7057829003601f168201915b50505050508152602001600282018054610ba69061121f565b80601f0160208091040260200160405190810160405280929190818152602001828054610bd29061121f565b8015610c1d5780601f10610bf457610100808354040283529160200191610c1d565b820191905f5260205f20905b815481529060010190602001808311610c0057829003601f168201915b505050919092525050506080820152610c3582610c8e565b60a0820152919050565b5f80546001600160a01b038381166001600160a01b0319831681178455604051919092169283917f8be0079c531659141344cd1fd0a4f28419497f9722a3daafe3b4186f6b6457e09190a35050565b604080516060810182525f80825260208083018290528284018290526001600160a01b03851682526001808252918490208451808601909552805485529091015460ff1615801591840191909152909190610d41576002815f015181548110610cf957610cf9611395565b5f91825260209182902060408051606081018252600390930290910180546001600160a01b039081168452600182015416938301939093526002909201549181019190915291505b50919050565b6040518060e001604052805f6001600160a01b031681526020015f81526020015f81526020015f815260200160608152602001610d82610d8e565b81525f60209091015290565b6040518060c001604052805f81526020015f81526020015f81526020015f15158152602001610de860405180608001604052805f6001600160a01b031681526020015f60ff16815260200160608152602001606081525090565b8152604080516060810182525f80825260208281018290529282015291015290565b613325806113aa83390190565b5f60208284031215610e27575f5ffd5b5035919050565b80356001600160a01b0381168114610267575f5ffd5b634e487b7160e01b5f52604160045260245ffd5b604051601f8201601f1916810167ffffffffffffffff81118282101715610e8157610e81610e44565b604052919050565b5f67ffffffffffffffff821115610ea257610ea2610e44565b50601f01601f191660200190565b5f5f60408385031215610ec1575f5ffd5b610eca83610e2e565b9150602083013567ffffffffffffffff811115610ee5575f5ffd5b8301601f81018513610ef5575f5ffd5b8035610f08610f0382610e89565b610e58565b818152866020838501011115610f1c575f5ffd5b816020840160208301375f602083830101528093505050509250929050565b5f60208284031215610f4b575f5ffd5b81358015158114610f5a575f5ffd5b9392505050565b5f60208284031215610f71575f5ffd5b610f5a82610e2e565b80516001600160a01b03908116835260208083015190911690830152604090810151910152565b5f81518084528060208401602086015e5f602082860101526020601f19601f83011685010191505092915050565b8051825260208101516020830152604081015160408301526060810151151560608301525f6080820151610100608085015260018060a01b0381511661010085015260ff6020820151166101208501526040810151608061014086015261103a610180860182610fa1565b90506060820151915060ff198582030161016086015261105a8183610fa1565b91505060a0830151610a9c60a0860182610f7a565b602081525f610100820160018060a01b038451166020840152602084015160408401526040840151606084015260608401516080840152608084015160e060a0850152818151808452610120860191506020830193505f92505b808310156110f3576110dc828551610f7a565b6060820191506020840193506001830192506110c9565b5060a0860151858203601f190160c087015292506111118184610fcf565b9250505060c0840151610a9c60e085018215159052565b602081525f610f5a6020830184610fcf565b606081016102f38284610f7a565b828152604081016002831061116b57634e487b7160e01b5f52602160045260245ffd5b8260208301529392505050565b5f60208284031215611188575f5ffd5b815160ff81168114610f5a575f5ffd5b5f602082840312156111a8575f5ffd5b815167ffffffffffffffff8111156111be575f5ffd5b8201601f810184136111ce575f5ffd5b80516111dc610f0382610e89565b8181528560208385010111156111f0575f5ffd5b8160208401602083015e5f91810160200191909152949350505050565b602081525f610f5a6020830184610fa1565b600181811c9082168061123357607f821691505b602082108103610d4157634e487b7160e01b5f52602260045260245ffd5b601f82111561129857805f5260205f20601f840160051c810160208510156112765750805b601f840160051c820191505b81811015611295575f8155600101611282565b50505b505050565b815167ffffffffffffffff8111156112b7576112b7610e44565b6112cb816112c5845461121f565b84611251565b6020601f8211600181146112fd575f83156112e65750848201515b5f19600385901b1c1916600184901b178455611295565b5f84815260208120601f198516915b8281101561132c578785015182556020948501946001909201910161130c565b508482101561134957868401515f19600387901b60f8161c191681555b50505050600190811b01905550565b6001600160a01b0385811682528481166020830152831660408201526080606082018190525f9061138b90830184610fa1565b9695505050505050565b634e487b7160e01b5f52603260045260245ffdfe60a060405234801561000f575f5ffd5b5060405161332538038061332583398101604081905261002e91610212565b60015f558184816001600160a01b03811661006257604051631e4fbdf760e01b81525f600482015260240160405180910390fd5b61006b81610141565b50610077816001610192565b50506001600160a01b038316158015906100a35750836001600160a01b0316836001600160a01b031614155b156100b3576100b3836001610192565b806040516020016100c491906102f4565b60408051601f198184030181529190526009906100e190826103ad565b50600b80546001600160a01b0319166001600160a01b038616179055826101054290565b8260405160200161011893929190610467565b60408051601f198184030181529190528051602090910120600c555050336080525061049e9050565b600180546001600160a01b038381166001600160a01b0319831681179093556040519116919082907f8be0079c531659141344cd1fd0a4f28419497f9722a3daafe3b4186f6b6457e0905f90a35050565b6001600160a01b0382166101b95760405163867915ab60e01b815260040160405180910390fd5b6001600160a01b03919091165f908152600260205260409020805460ff1916911515919091179055565b80516001600160a01b03811681146101f9575f5ffd5b919050565b634e487b7160e01b5f52604160045260245ffd5b5f5f5f5f60808587031215610225575f5ffd5b61022e856101e3565b935061023c602086016101e3565b925061024a604086016101e3565b60608601519092506001600160401b03811115610265575f5ffd5b8501601f81018713610275575f5ffd5b80516001600160401b0381111561028e5761028e6101fe565b604051601f8201601f19908116603f011681016001600160401b03811182821017156102bc576102bc6101fe565b6040528181528282016020018910156102d3575f5ffd5b8160208401602083015e5f6020838301015280935050505092959194509250565b602081525f82518060208401528060208501604085015e5f604082850101526040601f19601f83011684010191505092915050565b600181811c9082168061033d57607f821691505b60208210810361035b57634e487b7160e01b5f52602260045260245ffd5b50919050565b601f8211156103a857805f5260205f20601f840160051c810160208510156103865750805b601f840160051c820191505b818110156103a5575f8155600101610392565b50505b505050565b81516001600160401b038111156103c6576103c66101fe565b6103da816103d48454610329565b84610361565b6020601f82116001811461040c575f83156103f55750848201515b5f19600385901b1c1916600184901b1784556103a5565b5f84815260208120601f198516915b8281101561043b578785015182556020948501946001909201910161041b565b508482101561045857868401515f19600387901b60f8161c191681555b50505050600190811b01905550565b606084901b6001600160601b03191681526014810183905281515f908060208501603485015e5f9201603401918252509392505050565b608051612e6f6104b65f395f610b800152612e6f5ff3fe608060405260043610610129575f3560e01c8063812af8ec116100a8578063c40868931161006d578063c4086893146102e0578063c73ea36714610322578063f2fde38b14610341578063f340fa0114610360578063f3fef3a314610373578063f8b2cb4f14610392575f5ffd5b8063812af8ec146102465780638456cb59146102675780638da5cb5b1461027b578063b5252f9b146102a2578063b85a35d2146102c1575f5ffd5b80636c520754116100ee5780636c520754146101ce5780636f652e1a146101ed578063715018a6146102005780637205a8fb146102145780637489ec2314610227575f5ffd5b80630e841eb81461013457806327e0f61a1461015c5780633f4ba83a1461017b5780633fd8cc4e146101915780635c975abb146101b0575f5ffd5b3661013057005b5f5ffd5b6101476101423660046124df565b6103c6565b60405190151581526020015b60405180910390f35b348015610167575f5ffd5b50610147610176366004612529565b610602565b348015610186575f5ffd5b5061018f610a74565b005b34801561019c575f5ffd5b506101476101ab36600461255e565b610a86565b3480156101bb575f5ffd5b50600154600160a01b900460ff16610147565b3480156101d9575f5ffd5b506101476101e836600461255e565b610aa6565b6101476101fb366004612580565b610b22565b34801561020b575f5ffd5b5061018f610f94565b6101476102223660046125b8565b610fa5565b348015610232575f5ffd5b506101476102413660046125ff565b611256565b348015610251575f5ffd5b5061025a61138a565b60405161015391906126be565b348015610272575f5ffd5b5061018f61169a565b348015610286575f5ffd5b506001546040516001600160a01b039091168152602001610153565b3480156102ad575f5ffd5b5061018f6102bc36600461255e565b6116aa565b3480156102cc575f5ffd5b5061018f6102db36600461255e565b6116f2565b3480156102eb575f5ffd5b506103146102fa36600461255e565b6001600160a01b03165f9081526005602052604090205490565b604051908152602001610153565b34801561032d575f5ffd5b5061014761033c3660046128c5565b61173b565b34801561034c575f5ffd5b5061018f61035b36600461255e565b611798565b61014761036e36600461255e565b6117d5565b34801561037e575f5ffd5b5061014761038d36600461293f565b611a45565b34801561039d575f5ffd5b506103146103ac36600461255e565b6001600160a01b03165f9081526004602052604090205490565b5f6103d033611bbd565b6103f55760405162461bcd60e51b81526004016103ec90612969565b60405180910390fd5b5f6103ff84611bda565b90508263ffffffff165f0361042757604051637616640160e01b815260040160405180910390fd5b5f61043a6001546001600160a01b031690565b6001600160a01b03166350b00eb3336040516001600160e01b031960e084901b1681526001600160a01b0390911660048201526024015f60405180830381865afa15801561048a573d5f5f3e3d5ffd5b505050506040513d5f823e601f3d908101601f191682016040526104b19190810190612a76565b90505f8463ffffffff1682604001510290505f85610e100263ffffffff16905081341015610531575f805260046020525f516020612e1a5f395f51905f52548211610518575f805260046020525f516020612e1a5f395f51905f5280548390039055610531565b6040516316e8ed8f60e31b815260040160405180910390fd5b5f6105446001546001600160a01b031690565b6001600160a01b0316836040515f6040518083038185875af1925050503d805f811461058b576040519150601f19603f3d011682016040523d82523d5f602084013e610590565b606091505b50509050806105b2576040516312171d8360e31b815260040160405180910390fd5b6003850182905560408051898152602081018490527f04625b9c98b31f93beec6797b3e1d8a68bfa0753fe1c22f76313283e525a7baa910160405180910390a15050506001925050505b92915050565b5f5f61060d85611bda565b90506001600882015460ff16600381111561062a5761062a612644565b1461064857604051631d4ecc5b60e01b815260040160405180910390fd5b600381015442111561066d576040516362b439dd60e11b815260040160405180910390fd5b60088101805460ff1916600217905560078054905f61068b83612bb9565b90915550506007810154815484916001600160a01b03169082106106b55782545f845591506106bd565b825485900383555b82546001600160a01b038281165f90815260056020526040812092909255600154166001600160a01b03166350b00eb3336040516001600160e01b031960e084901b1681526001600160a01b0390911660048201526024015f60405180830381865afa15801561072f573d5f5f3e3d5ffd5b505050506040513d5f823e601f3d908101601f191682016040526107569190810190612a76565b90505f84600101545f0315610778578385600101546107759190612bd1565b90505b6080820151516001600160a01b03166107a4576040516304b4a0b760e51b815260040160405180910390fd5b608082015151816001600160a01b03821663dd62ed3e336040516001600160e01b031960e084901b1681526001600160a01b039091166004820152306024820152604401602060405180830381865afa158015610803573d5f5f3e3d5ffd5b505050506040513d601f19601f820116820180604052508101906108279190612be8565b1061084857610843335b6001600160a01b038316903085611caa565b610a0a565b60a0830151602001516001600160a01b031661087757604051633f39493760e01b815260040160405180910390fd5b6001600160a01b03841661093a5760a0830151602001516001870154608085015151604051637205a8fb60e01b81526004810186905260248101929092526001600160a01b038781166044840152908116606483015290911690637205a8fb908a9060840160206040518083038185885af11580156108f8573d5f5f3e3d5ffd5b50505050506040513d601f19601f8201168201806040525081019061091d9190612bff565b61084357604051631265e8b960e01b815260040160405180910390fd5b60a083015160200151610958906001600160a01b038616908a611d17565b60a0830151602001516001870154608085015151604051637205a8fb60e01b81526004810186905260248101929092526001600160a01b038781166044840152908116606483015290911690637205a8fb906084016020604051808303815f875af11580156109c9573d5f5f3e3d5ffd5b505050506040513d601f19601f820116820180604052508101906109ed9190612bff565b610a0a57604051631265e8b960e01b815260040160405180910390fd5b600260096001015f828254610a1f9190612c18565b90915550506040518881526001600160a01b038a16908b907f8fb2c26b66af59de39b1b2f4e1fba157f4408a9b52495599333e37e3191b08699060200160405180910390a35060019998505050505050505050565b610a7c611d9e565b610a84611dcb565b565b6001600160a01b0381165f9081526002602052604081205460ff166105fc565b5f610ab033611bbd565b610acc5760405162461bcd60e51b81526004016103ec90612969565b6001600160a01b038216610af25760405162db68fd60e51b815260040160405180910390fd5b506001600160a01b0381165f908152600660205260409020805460ff19811660ff9091161517905560015b919050565b5f610b2c33611bbd565b610b485760405162461bcd60e51b81526004016103ec90612969565b610b50611e20565b610b58611e48565b835f03610b785760405163162908e360e11b815260040160405180910390fd5b610e1082025f7f00000000000000000000000000000000000000000000000000000000000000006001600160a01b03166350b00eb3336040516001600160e01b031960e084901b1681526001600160a01b0390911660048201526024015f60405180830381865afa158015610bef573d5f5f3e3d5ffd5b505050506040513d5f823e601f3d908101601f19168201604052610c169190810190612a76565b9050835f03610c2a57620151809150610d0c565b6018841115610d0c5760408101516017198301028015610d0a5780341015610c87575f805260046020525f516020612e1a5f395f51905f52548111610518575f805260046020525f516020612e1a5f395f51905f52805482900390555b5f610c9a6001546001600160a01b031690565b6001600160a01b0316826040515f6040518083038185875af1925050503d805f8114610ce1576040519150601f19603f3d011682016040523d82523d5f602084013e610ce6565b606091505b5050905080610d08576040516312171d8360e31b815260040160405180910390fd5b505b505b8060600151610d3557845f03610d3557604051630c8f11ff60e01b815260040160405180910390fd5b5f42600b54600d546040805160208101949094526bffffffffffffffffffffffff19606093841b811691850191909152918b901b909116605483015260688201899052608882015260a8016040516020818303038152906040528051906020012090505f610da04290565b600d8054604080518082018252828152600160208083018281525f8a815260038352859020935184555192909101805460ff191692151592909217909155815160e0810183528d81529081018c905290810184905287840160608201529293509160808101610e0f8d8d611e73565b81526020016001815260209081018690528254600180820185555f948552938290208351600a90920201908155828201519381019390935560408201516002840155606082015160038401556080820151805160048501805460ff191660ff909216919091178155918101519293929091906005840190610e909082612ca8565b5060408201516002820190610ea59082612ca8565b5060609190910151600391820180546001600160a01b0319166001600160a01b0390921691909117905560a08301516008830180549192909160ff1916906001908490811115610ef757610ef7612644565b021790555060c091909101516009909101556001600160a01b038a165f81815260046020908152604080832080548e90039055600582529182902080548d01905581518c81529081018b90528a1581830152905183929186917f229f6a9dcc6f577875da9e2821e5641293ec7703e193a86d8d7f6b39d5e319889181900360600190a4600195505050505050610f8c60015f55565b949350505050565b610f9c611d9e565b610a845f6121f3565b5f610fae611e20565b841580610fb9575083155b15610fd757604051630e52390960e41b815260040160405180910390fd5b83851015610ff857604051632b5e2f6d60e11b815260040160405180910390fd5b5f6110038587612d63565b9050805f036110255760405163ddc0c69360e01b815260040160405180910390fd5b6001600160a01b03841615611228576001600160a01b0384165f9081526006602052604090205460ff1661106c576040516314bc2cd960e01b815260040160405180910390fd5b83816001600160a01b03821663dd62ed3e336040516001600160e01b031960e084901b1681526001600160a01b039091166004820152306024820152604401602060405180830381865afa1580156110c6573d5f5f3e3d5ffd5b505050506040513d601f19601f820116820180604052508101906110ea9190612be8565b101561110957604051631236843d60e31b815260040160405180910390fd5b61111233610831565b6001600160a01b038416611139576040516304b4a0b760e51b815260040160405180910390fd5b506001600160a01b0383165f9081526004602052604090205483908711156111745760405163043adbeb60e01b815260040160405180910390fd5b6001600160a01b0384165f908152600460205260408120805489929061119b908490612d82565b909155506111b590506001600160a01b0382163389612244565b600560096001015f8282546111ca9190612c18565b9091555050604080518881526020810184905280820188905290516001600160a01b03878116929087169133917f19569349d21ab849683a6859b0f5a5da4d630a9eac72899437367fa4333fa2b3919081900360600190a450611249565b8034101561124957604051631236843d60e31b815260040160405180910390fd5b50506001610f8c60015f55565b5f61125f611e20565b61126833611bbd565b6112845760405162461bcd60e51b81526004016103ec90612969565b61128c611e48565b5f61129683611bda565b6008818101805460ff1916600317905580549192505f6112b583612bb9565b909155505060078101546001600160a01b03165f81815260056020526040902054825481106113005782546001600160a01b0383165f90815260056020526040902080549190910390555b82546001600160a01b0383165f90815260046020526040902080549091019055600a541561133257600a80545f190190555b50806001600160a01b0316847fb2705df32ac67fc3101f496cd7036bf59074a603544d97d73650b6f09744986a845f015460405161137291815260200190565b60405180910390a3505f9055506001610b1d60015f55565b61139261247c565b6040805160a081018252600b546001600160a01b03168152600d805483516020828102820181019095528181529293808501939291905f9084015b828210156115b6575f8481526020908190206040805160e081018252600a860290920180548352600181015483850152600281015483830152600381015460608401528151608081810190935260048201805460ff1682526005830180549596939594870194929391929184019161144490612c2b565b80601f016020809104026020016040519081016040528092919081815260200182805461147090612c2b565b80156114bb5780601f10611492576101008083540402835291602001916114bb565b820191905f5260205f20905b81548152906001019060200180831161149e57829003601f168201915b505050505081526020016002820180546114d490612c2b565b80601f016020809104026020016040519081016040528092919081815260200182805461150090612c2b565b801561154b5780601f106115225761010080835404028352916020019161154b565b820191905f5260205f20905b81548152906001019060200180831161152e57829003601f168201915b50505091835250506003918201546001600160a01b03166020918201529183526008840154929091019160ff169081111561158857611588612644565b600381111561159957611599612644565b8152602001600982015481525050815260200190600101906113cd565b5050505081526020016007548152602001600854815260200160096040518060800160405290815f820180546115eb90612c2b565b80601f016020809104026020016040519081016040528092919081815260200182805461161790612c2b565b80156116625780601f1061163957610100808354040283529160200191611662565b820191905f5260205f20905b81548152906001019060200180831161164557829003601f168201915b50505091835250506001820154602082015260028201546001600160a01b031660408201526003909101546060909101529052919050565b6116a2611d9e565b610a8461227a565b6116b2611d9e565b6116bc815f6122bd565b6040516001600160a01b038216907fdf982251973669f107e8764c0488f080ceca6d72192314e1f94e347378ce4a01905f90a250565b6116fa611d9e565b6117058160016122bd565b6040516001600160a01b038216907f19996ea5aede4d14af17b07567999b4c9d512663cfdaa4b01313d0c4af7a6ce7905f90a250565b5f61174533611bbd565b6117615760405162461bcd60e51b81526004016103ec90612969565b816040516020016117729190612d95565b60408051601f1981840301815291905260099061178f9082612ca8565b50600192915050565b6117a0611d9e565b6001600160a01b0381166117c957604051631e4fbdf760e01b81525f60048201526024016103ec565b6117d2816121f3565b50565b5f6117df33611bbd565b6117fb5760405162461bcd60e51b81526004016103ec90612969565b611803611e20565b61180b611e48565b600b546001600160a01b0390811690349084161561198757604051636eb1769f60e11b81526001600160a01b03838116600483015230602483015285915f9183169063dd62ed3e90604401602060405180830381865afa158015611871573d5f5f3e3d5ffd5b505050506040513d601f19601f820116820180604052508101906118959190612be8565b90505f6001600160a01b03831663dd62ed3e336040516001600160e01b031960e084901b1681526001600160a01b039091166004820152306024820152604401602060405180830381865afa1580156118f0573d5f5f3e3d5ffd5b505050506040513d601f19601f820116820180604052508101906119149190612be8565b90505f8211611924573381611927565b84825b90955093505f84900361194d5760405163162908e360e11b815260040160405180910390fd5b6119626001600160a01b038416863087611caa565b5050506001600160a01b0384165f9081526004602052604090208054820190556119c5565b805f036119a75760405163162908e360e11b815260040160405180910390fd5b6001600160a01b0384165f9081526004602052604090208054820190555b6001600160a01b0384165f81815260046020526040808220549180525f516020612e1a5f395f51905f525490517f9c43989bbc3ada47dd2ba240e9dd6e85544d2f6439f23824f23272479d4202ec92611a2e928683526020830191909152604082015260600190565b60405180910390a2600192505050610b1d60015f55565b5f611a4f33611bbd565b611a6b5760405162461bcd60e51b81526004016103ec90612969565b611a73611e20565b6001600160a01b0383165f9081526004602052604090205482811015611aac576040516351940b3960e11b815260040160405180910390fd5b6001600160a01b038085165f8181526004602052604090208584039055600b5490911690611b4a575f816001600160a01b0316856040515f6040518083038185875af1925050503d805f8114611b1d576040519150601f19603f3d011682016040523d82523d5f602084013e611b22565b606091505b5050905080611b44576040516312171d8360e31b815260040160405180910390fd5b50611b5e565b611b5e6001600160a01b0386168286612244565b6001600160a01b0385165f81815260046020908152604091829020548251888152918201527fcaf7cfb51337eee96bdf57f81c1fd87ece0a5933a3df024455da2cd35fe3badf910160405180910390a26001925050506105fc60015f55565b6001600160a01b03165f9081526002602052604090205460ff1690565b5f8181526003602090815260408083208151808301909252805482526001015460ff16151591810182905290611c2357604051635d70603360e01b815260040160405180910390fd5b600d815f015181548110611c3957611c39612da7565b5f9182526020909120600a9091020191506001600883015460ff166003811115611c6557611c65612644565b14611c8357604051631d4ecc5b60e01b815260040160405180910390fd5b81545f03611ca45760405163d36d896560e01b815260040160405180910390fd5b50919050565b6040516001600160a01b038481166024830152838116604483015260648201839052611d119186918216906323b872dd906084015b604051602081830303815290604052915060e01b6020820180516001600160e01b03838183161783525050505061230e565b50505050565b604051636eb1769f60e11b81523060048201526001600160a01b0383811660248301525f919085169063dd62ed3e90604401602060405180830381865afa158015611d64573d5f5f3e3d5ffd5b505050506040513d601f19601f82011682018060405250810190611d889190612be8565b9050611d118484611d998585612c18565b61237a565b6001546001600160a01b03163314610a845760405163118cdaa760e01b81523360048201526024016103ec565b611dd3612409565b6001805460ff60a01b191690557f5db9ee0a495bf2e6ff9c91a7834c1ba4fdd244a5e8aa4e537bd38aeae4b073aa335b6040516001600160a01b03909116815260200160405180910390a1565b60025f5403611e4257604051633ee5aeb560e01b815260040160405180910390fd5b60025f55565b600154600160a01b900460ff1615610a845760405163d93c066560e01b815260040160405180910390fd5b611ea860405180608001604052805f60ff16815260200160608152602001606081526020015f6001600160a01b031681525090565b6001600160a01b0383165f90815260046020526040902054821115611ee057604051631568275f60e31b815260040160405180910390fd5b6001600160a01b03831615612182576040516370a0823160e01b815230600482015283906001600160a01b038216906370a0823190602401602060405180830381865afa158015611f33573d5f5f3e3d5ffd5b505050506040513d601f19601f82011682018060405250810190611f579190612be8565b5f03611fee57600b54604051636eb1769f60e11b81526001600160a01b0391821660048201523060248201529082169063dd62ed3e90604401602060405180830381865afa158015611fab573d5f5f3e3d5ffd5b505050506040513d601f19601f82011682018060405250810190611fcf9190612be8565b5f03611fee576040516311e6257b60e01b815260040160405180910390fd5b6040518060800160405280856001600160a01b031663313ce5676040518163ffffffff1660e01b8152600401602060405180830381865afa158015612035573d5f5f3e3d5ffd5b505050506040513d601f19601f820116820180604052508101906120599190612dbb565b60ff168152602001856001600160a01b03166306fdde036040518163ffffffff1660e01b81526004015f60405180830381865afa15801561209c573d5f5f3e3d5ffd5b505050506040513d5f823e601f3d908101601f191682016040526120c39190810190612dd4565b6040516020016120d39190612d95565b6040516020818303038152906040528152602001856001600160a01b03166395d89b416040518163ffffffff1660e01b81526004015f60405180830381865afa158015612122573d5f5f3e3d5ffd5b505050506040513d5f823e601f3d908101601f191682016040526121499190810190612dd4565b6040516020016121599190612d95565b6040516020818303038152906040528152602001856001600160a01b03168152509150506105fc565b6040518060800160405280601260ff16815260200160405180604001604052806008815260200167457468657265756d60c01b81525081526020016040518060400160405280600381526020016208aa8960eb1b8152508152602001846001600160a01b0316815250905092915050565b600180546001600160a01b038381166001600160a01b0319831681179093556040519116919082907f8be0079c531659141344cd1fd0a4f28419497f9722a3daafe3b4186f6b6457e0905f90a35050565b6040516001600160a01b0383811660248301526044820183905261227591859182169063a9059cbb90606401611cdf565b505050565b612282611e48565b6001805460ff60a01b1916600160a01b1790557f62e78cea01bee320cd4e420270b5ea74000d11b0c9f74754ebdbfc544b05a258611e033390565b6001600160a01b0382166122e45760405163867915ab60e01b815260040160405180910390fd5b6001600160a01b03919091165f908152600260205260409020805460ff1916911515919091179055565b5f5f60205f8451602086015f885af18061232d576040513d5f823e3d81fd5b50505f513d91508115612344578060011415612351565b6001600160a01b0384163b155b15611d1157604051635274afe760e01b81526001600160a01b03851660048201526024016103ec565b604080516001600160a01b038416602482015260448082018490528251808303909101815260649091019091526020810180516001600160e01b031663095ea7b360e01b1790526123cb8482612433565b611d11576040516001600160a01b0384811660248301525f60448301526123ff91869182169063095ea7b390606401611cdf565b611d11848261230e565b600154600160a01b900460ff16610a8457604051638dfc202b60e01b815260040160405180910390fd5b5f5f5f5f60205f8651602088015f8a5af192503d91505f519050828015612472575081156124645780600114612472565b5f866001600160a01b03163b115b9695505050505050565b6040518060a001604052805f6001600160a01b03168152602001606081526020015f81526020015f81526020016124da6040518060800160405280606081526020015f81526020015f6001600160a01b031681526020015f81525090565b905290565b5f5f604083850312156124f0575f5ffd5b82359150602083013563ffffffff8116811461250a575f5ffd5b809150509250929050565b6001600160a01b03811681146117d2575f5ffd5b5f5f5f6060848603121561253b575f5ffd5b83359250602084013561254d81612515565b929592945050506040919091013590565b5f6020828403121561256e575f5ffd5b813561257981612515565b9392505050565b5f5f5f5f60808587031215612593575f5ffd5b843561259e81612515565b966020860135965060408601359560600135945092505050565b5f5f5f5f608085870312156125cb575f5ffd5b843593506020850135925060408501356125e481612515565b915060608501356125f481612515565b939692955090935050565b5f6020828403121561260f575f5ffd5b5035919050565b5f81518084528060208401602086015e5f602082860101526020601f19601f83011685010191505092915050565b634e487b7160e01b5f52602160045260245ffd5b6004811061267457634e487b7160e01b5f52602160045260245ffd5b9052565b5f81516080845261268c6080850182612616565b602084810151908601526040808501516001600160a01b03169086015260609384015193909401929092525090919050565b602080825282516001600160a01b0316828201528281015160a06040840152805160c084018190525f9260e0600583901b86018101939091019190850190845b818110156127d15760df19878603018352835180518652602081015160208701526040810151604087015260608101516060870152608081015160e0608088015260ff81511660e088015260208101516080610100890152612764610160890182612616565b9050604082015160df19898303016101208a01526127828282612616565b606093909301516001600160a01b03166101408a0152505060a08281015191906127ae90890183612658565b60c0928301519790920196909652945060209384019392909201916001016126fe565b5050505060408401516060840152606084015160808401526080840151601f198483030160a08501526128048282612678565b95945050505050565b634e487b7160e01b5f52604160045260245ffd5b60405160c0810167ffffffffffffffff811182821017156128445761284461280d565b60405290565b6040516080810167ffffffffffffffff811182821017156128445761284461280d565b604051601f8201601f1916810167ffffffffffffffff811182821017156128965761289661280d565b604052919050565b5f67ffffffffffffffff8211156128b7576128b761280d565b50601f01601f191660200190565b5f602082840312156128d5575f5ffd5b813567ffffffffffffffff8111156128eb575f5ffd5b8201601f810184136128fb575f5ffd5b803561290e6129098261289e565b61286d565b818152856020838501011115612922575f5ffd5b816020840160208301375f91810160200191909152949350505050565b5f5f60408385031215612950575f5ffd5b823561295b81612515565b946020939093013593505050565b602080825260149082015273139bdd08185c1c1c9bdd9959081858d8dbdd5b9d60621b604082015260600190565b80518015158114610b1d575f5ffd5b805160ff81168114610b1d575f5ffd5b5f6129c36129098461289e565b90508281528383830111156129d6575f5ffd5b8282602083015e5f602084830101529392505050565b5f82601f8301126129fb575f5ffd5b612579838351602085016129b6565b5f60608284031215612a1a575f5ffd5b6040516060810167ffffffffffffffff81118282101715612a3d57612a3d61280d565b80604052508091508251612a5081612515565b81526020830151612a6081612515565b6020820152604092830151920191909152919050565b5f60208284031215612a86575f5ffd5b815167ffffffffffffffff811115612a9c575f5ffd5b82016101008185031215612aae575f5ffd5b612ab6612821565b815181526020808301519082015260408083015190820152612ada60608301612997565b6060820152608082015167ffffffffffffffff811115612af8575f5ffd5b820160808187031215612b09575f5ffd5b612b1161284a565b8151612b1c81612515565b8152612b2a602083016129a6565b6020820152604082015167ffffffffffffffff811115612b48575f5ffd5b612b54888285016129ec565b604083015250606082015167ffffffffffffffff811115612b73575f5ffd5b612b7f888285016129ec565b606083015250608083015250612b988560a08401612a0a565b60a0820152949350505050565b634e487b7160e01b5f52601160045260245ffd5b5f60018201612bca57612bca612ba5565b5060010190565b80820281158282048414176105fc576105fc612ba5565b5f60208284031215612bf8575f5ffd5b5051919050565b5f60208284031215612c0f575f5ffd5b61257982612997565b808201808211156105fc576105fc612ba5565b600181811c90821680612c3f57607f821691505b602082108103611ca457634e487b7160e01b5f52602260045260245ffd5b601f82111561227557805f5260205f20601f840160051c81016020851015612c825750805b601f840160051c820191505b81811015612ca1575f8155600101612c8e565b5050505050565b815167ffffffffffffffff811115612cc257612cc261280d565b612cd681612cd08454612c2b565b84612c5d565b6020601f821160018114612d08575f8315612cf15750848201515b5f19600385901b1c1916600184901b178455612ca1565b5f84815260208120601f198516915b82811015612d375787850151825560209485019460019092019101612d17565b5084821015612d5457868401515f19600387901b60f8161c191681555b50505050600190811b01905550565b5f82612d7d57634e487b7160e01b5f52601260045260245ffd5b500490565b818103818111156105fc576105fc612ba5565b602081525f6125796020830184612616565b634e487b7160e01b5f52603260045260245ffd5b5f60208284031215612dcb575f5ffd5b612579826129a6565b5f60208284031215612de4575f5ffd5b815167ffffffffffffffff811115612dfa575f5ffd5b8201601f81018413612e0a575f5ffd5b610f8c848251602084016129b656fe17ef568e3e12ab5b9c7254a8d58478811de00f9e6eb34345acd53bf8fd09d3eca26469706673582212202a91d9b6ce4df2aaafd08cfd9403dede180ee59c1c98f3bce052b9d85419238f64736f6c634300081e0033a2646970667358221220627653395248706b8c475b5a80b9a0c6033a043f37cad8b0d1e292afb824898f64736f6c634300081e0033",
  "linkReferences": {},
  "deployedLinkReferences": {},
  "immutableReferences": {},
  "inputSourceName": "project/contracts/trading/TradeFactory.sol",
  "buildInfoId": "solc-0_8_30-afbce71a58a542f62e5d66a6e800ba5249208d38"
}