{
  "_format": "hh3-artifact-1",
  "contractName": "Arbitrators",
  "sourceName": "contracts/escrow/Arbitrators.sol",
  "abi": [
    {
      "inputs": [],
      "stateMutability": "nonpayable",
      "type": "constructor"
    },
    {
      "inputs": [],
      "name": "ArbiterIsEngaged",
      "type": "error"
    },
    {
      "inputs": [],
      "name": "AribterAlreadyApproved",
      "type": "error"
    },
    {
      "inputs": [],
      "name": "CooldownMode",
      "type": "error"
    },
    {
      "inputs": [],
      "name": "EnforcedPause",
      "type": "error"
    },
    {
      "inputs": [],
      "name": "ExpectedPause",
      "type": "error"
    },
    {
      "inputs": [],
      "name": "FactoryNotSet",
      "type": "error"
    },
    {
      "inputs": [],
      "name": "MinimumAbiterHoldingExceedAllowance",
      "type": "error"
    },
    {
      "inputs": [],
      "name": "NoBalance",
      "type": "error"
    },
    {
      "inputs": [],
      "name": "NoRequestFound",
      "type": "error"
    },
    {
      "inputs": [],
      "name": "NotApproved",
      "type": "error"
    },
    {
      "inputs": [
        {
          "internalType": "address",
          "name": "owner",
          "type": "address"
        }
      ],
      "name": "OwnableInvalidOwner",
      "type": "error"
    },
    {
      "inputs": [
        {
          "internalType": "address",
          "name": "account",
          "type": "address"
        }
      ],
      "name": "OwnableUnauthorizedAccount",
      "type": "error"
    },
    {
      "inputs": [],
      "name": "Requested",
      "type": "error"
    },
    {
      "inputs": [
        {
          "internalType": "address",
          "name": "token",
          "type": "address"
        }
      ],
      "name": "SafeERC20FailedOperation",
      "type": "error"
    },
    {
      "inputs": [],
      "name": "VerseTokenNotSet",
      "type": "error"
    },
    {
      "anonymous": false,
      "inputs": [
        {
          "indexed": true,
          "internalType": "address",
          "name": "previousOwner",
          "type": "address"
        },
        {
          "indexed": true,
          "internalType": "address",
          "name": "newOwner",
          "type": "address"
        }
      ],
      "name": "OwnershipTransferred",
      "type": "event"
    },
    {
      "anonymous": false,
      "inputs": [
        {
          "indexed": false,
          "internalType": "address",
          "name": "account",
          "type": "address"
        }
      ],
      "name": "Paused",
      "type": "event"
    },
    {
      "anonymous": false,
      "inputs": [
        {
          "indexed": false,
          "internalType": "address",
          "name": "account",
          "type": "address"
        }
      ],
      "name": "Unpaused",
      "type": "event"
    },
    {
      "inputs": [
        {
          "internalType": "address",
          "name": "arbiter",
          "type": "address"
        }
      ],
      "name": "approveArbiter",
      "outputs": [
        {
          "internalType": "bool",
          "name": "",
          "type": "bool"
        }
      ],
      "stateMutability": "nonpayable",
      "type": "function"
    },
    {
      "inputs": [
        {
          "internalType": "bytes32",
          "name": "arbiterId",
          "type": "bytes32"
        }
      ],
      "name": "getArbiter",
      "outputs": [
        {
          "components": [
            {
              "internalType": "bytes32",
              "name": "id",
              "type": "bytes32"
            },
            {
              "internalType": "uint256",
              "name": "lockedBalance",
              "type": "uint256"
            },
            {
              "internalType": "bool",
              "name": "isApproved",
              "type": "bool"
            },
            {
              "internalType": "uint256",
              "name": "lastSeen",
              "type": "uint256"
            },
            {
              "internalType": "address",
              "name": "identifier",
              "type": "address"
            }
          ],
          "internalType": "struct IArbitrators.Arbiter",
          "name": "_result",
          "type": "tuple"
        }
      ],
      "stateMutability": "view",
      "type": "function"
    },
    {
      "inputs": [
        {
          "internalType": "address",
          "name": "arbiter",
          "type": "address"
        }
      ],
      "name": "isApprovedArbiter",
      "outputs": [
        {
          "internalType": "bool",
          "name": "",
          "type": "bool"
        }
      ],
      "stateMutability": "view",
      "type": "function"
    },
    {
      "inputs": [],
      "name": "owner",
      "outputs": [
        {
          "internalType": "address",
          "name": "",
          "type": "address"
        }
      ],
      "stateMutability": "view",
      "type": "function"
    },
    {
      "inputs": [],
      "name": "paused",
      "outputs": [
        {
          "internalType": "bool",
          "name": "",
          "type": "bool"
        }
      ],
      "stateMutability": "view",
      "type": "function"
    },
    {
      "inputs": [],
      "name": "readData",
      "outputs": [
        {
          "components": [
            {
              "components": [
                {
                  "internalType": "bytes32",
                  "name": "id",
                  "type": "bytes32"
                },
                {
                  "internalType": "uint256",
                  "name": "lockedBalance",
                  "type": "uint256"
                },
                {
                  "internalType": "bool",
                  "name": "isApproved",
                  "type": "bool"
                },
                {
                  "internalType": "uint256",
                  "name": "lastSeen",
                  "type": "uint256"
                },
                {
                  "internalType": "address",
                  "name": "identifier",
                  "type": "address"
                }
              ],
              "internalType": "struct IArbitrators.Arbiter[]",
              "name": "arbiters",
              "type": "tuple[]"
            },
            {
              "internalType": "contract IERC20",
              "name": "verseToken",
              "type": "address"
            },
            {
              "internalType": "contract IEscrowFactory",
              "name": "factory",
              "type": "address"
            },
            {
              "internalType": "uint256",
              "name": "minimumAbiterHolding",
              "type": "uint256"
            }
          ],
          "internalType": "struct IArbitrators.ReadData",
          "name": "",
          "type": "tuple"
        }
      ],
      "stateMutability": "view",
      "type": "function"
    },
    {
      "inputs": [],
      "name": "renounceOwnership",
      "outputs": [],
      "stateMutability": "nonpayable",
      "type": "function"
    },
    {
      "inputs": [],
      "name": "requestToBeAnArbiter",
      "outputs": [
        {
          "internalType": "bool",
          "name": "",
          "type": "bool"
        }
      ],
      "stateMutability": "nonpayable",
      "type": "function"
    },
    {
      "inputs": [
        {
          "internalType": "address",
          "name": "newOwner",
          "type": "address"
        }
      ],
      "name": "transferOwnership",
      "outputs": [],
      "stateMutability": "nonpayable",
      "type": "function"
    },
    {
      "inputs": [],
      "name": "unlock",
      "outputs": [
        {
          "internalType": "bool",
          "name": "",
          "type": "bool"
        }
      ],
      "stateMutability": "nonpayable",
      "type": "function"
    }
  ],
  "bytecode": "0x6080604052348015600e575f5ffd5b503380603357604051631e4fbdf760e01b81525f600482015260240160405180910390fd5b603a81603f565b50608e565b5f80546001600160a01b038381166001600160a01b0319831681178455604051919092169283917f8be0079c531659141344cd1fd0a4f28419497f9722a3daafe3b4186f6b6457e09190a35050565b610f358061009b5f395ff3fe608060405234801561000f575f5ffd5b506004361061009b575f3560e01c8063a69df4b511610063578063a69df4b514610104578063b2f66bd81461010c578063b592d3a11461012c578063bef55ef31461013f578063f2fde38b14610154575f5ffd5b806318a6a3051461009f5780631ce2f06f146100bc5780635c975abb146100cf578063715018a6146100e05780638da5cb5b146100ea575b5f5ffd5b6100a7610167565b60405190151581526020015b60405180910390f35b6100a76100ca366004610d6c565b61052e565b5f54600160a01b900460ff166100a7565b6100e86105a8565b005b5f546040516001600160a01b0390911681526020016100b3565b6100a76105bb565b61011f61011a366004610d99565b61088e565b6040516100b39190610de8565b6100a761013a366004610d6c565b610972565b610147610a8b565b6040516100b39190610dfc565b6100e8610162366004610d6c565b610b76565b5f610170610bb8565b6001546001600160a01b031661019c576040516001622be5d960e11b0319815260040160405180910390fd5b6002546001600160a01b03166101c5576040516329f7dfeb60e21b815260040160405180910390fd5b335f81815260056020908152604080832081518083018352815460ff16151581526001918201548185015290548251636eb1769f60e11b81526004810187905230602482015292519194936001600160a01b039091169263dd62ed3e92604480830193928290030181865afa158015610240573d5f5f3e3d5ffd5b505050506040513d601f19601f820116820180604052508101906102649190610e93565b90506003548110156102895760405163639106c360e11b815260040160405180910390fd5b600354156102b0576003546001546102b0916001600160a01b039091169085903090610be2565b5f83824260405160609390931b6bffffffffffffffffffffffff1916602084015260348301919091526054820152607401604051602081830303815290604052805190602001209050825f01516104055760018084526004805460208087019182526001600160a01b0388165f9081526005825260408082208951815490151560ff19918216178255855191880191909155878352600684528183208a518154901515921691909117815593519390950192909255835160a0810185528581529081018690529283015290606081016103864290565b81526001600160a01b038781166020928301528354600180820186555f9586529483902084516005909202019081559183015193820193909355604082015160028201805460ff191691151591909117905560608201516003820155608090910151600490910180546001600160a01b03191691909216179055610500565b5f600484602001518154811061041d5761041d610eaa565b5f9182526020918290206040805160a081018252600590930290910180548352600181015493830193909352600283015460ff1615801591830191909152600383015460608301526004909201546001600160a01b03166080820152915061049857604051639d504c5f60e01b815260040160405180910390fd5b600160048560200151815481106104b1576104b1610eaa565b905f5260205f2090600502016002015f6101000a81548160ff0219169083151502179055508160048560200151815481106104ee576104ee610eaa565b5f918252602090912060059091020155505b5f9081526006602090815260409091208351815460ff19169015151781559201516001928301555092915050565b6001600160a01b0381165f9081526005602090815260408083208151808301909252805460ff161515808352600190910154928201929092529061057457505f92915050565b600481602001518154811061058b5761058b610eaa565b5f91825260209091206002600590920201015460ff169392505050565b6105b0610c4f565b6105b95f610c7b565b565b6001545f906001600160a01b03166105e9576040516001622be5d960e11b0319815260040160405180910390fd5b6002546001600160a01b0316610612576040516329f7dfeb60e21b815260040160405180910390fd5b335f81815260056020908152604080832081518083018352815460ff16151581526001909101549281019290925260025481516316d5f47360e11b81526004810186905282519394936001600160a01b0390921692632dabe8e6926024808401938290030181865afa15801561068a573d5f5f3e3d5ffd5b505050506040513d601f19601f820116820180604052508101906106ae9190610ebe565b50905080156106d057604051637ab8f4d760e11b815260040160405180910390fd5b81516106ef57604051631f501ef760e21b815260040160405180910390fd5b5f600483602001518154811061070757610707610eaa565b5f9182526020918290206040805160a081018252600590930290910180548352600181015493830193909352600283015460ff161515908201819052600383015460608301526004909201546001600160a01b0316608082015291506107805760405163c19f17a960e01b815260040160405180910390fd5b80602001515f036107a457604051636165515360e11b815260040160405180910390fd5b6202a30081606001516107b44290565b0310156107d457604051631e598c5b60e31b815260040160405180910390fd5b4260048460200151815481106107ec576107ec610eaa565b905f5260205f209060050201600301819055505f600484602001518154811061081757610817610eaa565b905f5260205f209060050201600101819055505f600484602001518154811061084257610842610eaa565b5f91825260209182902060059190910201600201805460ff191692151592909217909155810151600154610883916001600160a01b03909116908690610cca565b600194505050505090565b6108c66040518060a001604052805f81526020015f81526020015f151581526020015f81526020015f6001600160a01b031681525090565b5f828152600660209081526040918290208251808401909352805460ff1615801584526001909101549183019190915261096c57600481602001518154811061091157610911610eaa565b5f9182526020918290206040805160a081018252600590930290910180548352600181015493830193909352600283015460ff16151590820152600382015460608201526004909101546001600160a01b0316608082015291505b50919050565b5f61097b610c4f565b6001600160a01b0382165f908152600560209081526040918290208251808401909352805460ff161515808452600190910154918301919091526109d2576040516308ae297960e31b815260040160405180910390fd5b60048160200151815481106109e9576109e9610eaa565b5f91825260209091206002600590920201015460ff1615610a1d57604051639d504c5f60e01b815260040160405180910390fd5b60016004826020015181548110610a3657610a36610eaa565b5f9182526020909120600590910201600201805460ff1916911515919091179055426004826020015181548110610a6f57610a6f610eaa565b5f91825260209091206003600590920201015550600192915050565b6040805160808101825260608082525f6020830181905292820183905281019190915260405180608001604052806004805480602002602001604051908101604052809291908181526020015f905b82821015610b45575f8481526020908190206040805160a081018252600586029092018054835260018082015484860152600282015460ff1615159284019290925260038101546060840152600401546001600160a01b031660808301529083529092019101610ada565b505050908252506001546001600160a01b039081166020830152600254166040820152600354606090910152919050565b610b7e610c4f565b6001600160a01b038116610bac57604051631e4fbdf760e01b81525f60048201526024015b60405180910390fd5b610bb581610c7b565b50565b5f54600160a01b900460ff16156105b95760405163d93c066560e01b815260040160405180910390fd5b6040516001600160a01b038481166024830152838116604483015260648201839052610c499186918216906323b872dd906084015b604051602081830303815290604052915060e01b6020820180516001600160e01b038381831617835250505050610d00565b50505050565b5f546001600160a01b031633146105b95760405163118cdaa760e01b8152336004820152602401610ba3565b5f80546001600160a01b038381166001600160a01b0319831681178455604051919092169283917f8be0079c531659141344cd1fd0a4f28419497f9722a3daafe3b4186f6b6457e09190a35050565b6040516001600160a01b03838116602483015260448201839052610cfb91859182169063a9059cbb90606401610c17565b505050565b5f5f60205f8451602086015f885af180610d1f576040513d5f823e3d81fd5b50505f513d91508115610d36578060011415610d43565b6001600160a01b0384163b155b15610c4957604051635274afe760e01b81526001600160a01b0385166004820152602401610ba3565b5f60208284031215610d7c575f5ffd5b81356001600160a01b0381168114610d92575f5ffd5b9392505050565b5f60208284031215610da9575f5ffd5b5035919050565b8051825260208082015190830152604080820151151590830152606080820151908301526080908101516001600160a01b0316910152565b60a08101610df68284610db0565b92915050565b60208082528251608083830152805160a084018190525f929190910190829060c08501905b80831015610e4b57610e34828551610db0565b60a082019150602084019350600183019250610e21565b5060208601516001600160a01b03166040868101919091528601519250610e7d60608601846001600160a01b03169052565b6060860151608086015280935050505092915050565b5f60208284031215610ea3575f5ffd5b5051919050565b634e487b7160e01b5f52603260045260245ffd5b5f5f60408385031215610ecf575f5ffd5b82518015158114610ede575f5ffd5b602084015190925060ff81168114610ef4575f5ffd5b80915050925092905056fea264697066735822122082d659ce0403215b9d32d92d68128832a26e958bf7b0f818ba8f230a5bcd1c1864736f6c634300081e0033",
  "linkReferences": {},
  "deployedLinkReferences": {},
  "immutableReferences": {},
  "inputSourceName": "project/contracts/escrow/Arbitrators.sol",
  "buildInfoId": "solc-0_8_30-103c082366ee56df14d00acb8ad02d38a67233f0"
}