{
  "_format": "hh3-artifact-1",
  "contractName": "EscrowFactory",
  "sourceName": "contracts/escrow/EscrowFactory.sol",
  "abi": [
    {
      "inputs": [
        {
          "internalType": "address",
          "name": "_platformFeeRecipient",
          "type": "address"
        },
        {
          "internalType": "contract IArbitrators",
          "name": "_arbitrator",
          "type": "address"
        }
      ],
      "stateMutability": "nonpayable",
      "type": "constructor"
    },
    {
      "inputs": [],
      "name": "AmountMustBeGreaterThanZero",
      "type": "error"
    },
    {
      "inputs": [],
      "name": "BuyerAndArbiterCannotBeTheSame",
      "type": "error"
    },
    {
      "inputs": [],
      "name": "BuyerAndSellerCannotBeTheSame",
      "type": "error"
    },
    {
      "inputs": [],
      "name": "ContractMustBePaused",
      "type": "error"
    },
    {
      "inputs": [],
      "name": "DeadlineMustBeInTheFuture",
      "type": "error"
    },
    {
      "inputs": [],
      "name": "DescriptionCannotBeEmpty",
      "type": "error"
    },
    {
      "inputs": [],
      "name": "DisputeWindowCannotExceedSevenDays",
      "type": "error"
    },
    {
      "inputs": [],
      "name": "DisputeWindowMustBeGreaterThanZero",
      "type": "error"
    },
    {
      "inputs": [],
      "name": "EnforcedPause",
      "type": "error"
    },
    {
      "inputs": [],
      "name": "ErrorSendingToPlatformFeeRecipient",
      "type": "error"
    },
    {
      "inputs": [],
      "name": "ExpectedPause",
      "type": "error"
    },
    {
      "inputs": [
        {
          "internalType": "uint256",
          "name": "valueSent",
          "type": "uint256"
        }
      ],
      "name": "InsufficientCreationFee",
      "type": "error"
    },
    {
      "inputs": [],
      "name": "InvalidAddress",
      "type": "error"
    },
    {
      "inputs": [],
      "name": "InvalidEscrowAddress",
      "type": "error"
    },
    {
      "inputs": [],
      "name": "OffsetOutOfBounds",
      "type": "error"
    },
    {
      "inputs": [
        {
          "internalType": "address",
          "name": "owner",
          "type": "address"
        }
      ],
      "name": "OwnableInvalidOwner",
      "type": "error"
    },
    {
      "inputs": [
        {
          "internalType": "address",
          "name": "account",
          "type": "address"
        }
      ],
      "name": "OwnableUnauthorizedAccount",
      "type": "error"
    },
    {
      "inputs": [],
      "name": "ReentrancyGuardReentrantCall",
      "type": "error"
    },
    {
      "inputs": [],
      "name": "SellerAndArbiterCannotBeTheSame",
      "type": "error"
    },
    {
      "inputs": [],
      "name": "WithdrawalFailed",
      "type": "error"
    },
    {
      "anonymous": false,
      "inputs": [
        {
          "indexed": false,
          "internalType": "uint256",
          "name": "oldWindow",
          "type": "uint256"
        },
        {
          "indexed": false,
          "internalType": "uint256",
          "name": "newWindow",
          "type": "uint256"
        }
      ],
      "name": "DefaultDisputeWindowUpdated",
      "type": "event"
    },
    {
      "anonymous": false,
      "inputs": [
        {
          "indexed": true,
          "internalType": "address",
          "name": "escrowAddress",
          "type": "address"
        },
        {
          "indexed": true,
          "internalType": "address",
          "name": "buyer",
          "type": "address"
        },
        {
          "indexed": true,
          "internalType": "address",
          "name": "seller",
          "type": "address"
        },
        {
          "indexed": false,
          "internalType": "uint256",
          "name": "timestamp",
          "type": "uint256"
        }
      ],
      "name": "EscrowCreated",
      "type": "event"
    },
    {
      "anonymous": false,
      "inputs": [
        {
          "indexed": true,
          "internalType": "address",
          "name": "previousOwner",
          "type": "address"
        },
        {
          "indexed": true,
          "internalType": "address",
          "name": "newOwner",
          "type": "address"
        }
      ],
      "name": "OwnershipTransferred",
      "type": "event"
    },
    {
      "anonymous": false,
      "inputs": [
        {
          "indexed": false,
          "internalType": "address",
          "name": "account",
          "type": "address"
        }
      ],
      "name": "Paused",
      "type": "event"
    },
    {
      "anonymous": false,
      "inputs": [
        {
          "indexed": true,
          "internalType": "address",
          "name": "oldRecipient",
          "type": "address"
        },
        {
          "indexed": true,
          "internalType": "address",
          "name": "newRecipient",
          "type": "address"
        }
      ],
      "name": "PlatformFeeRecipientUpdated",
      "type": "event"
    },
    {
      "anonymous": false,
      "inputs": [
        {
          "indexed": false,
          "internalType": "address",
          "name": "account",
          "type": "address"
        }
      ],
      "name": "Unpaused",
      "type": "event"
    },
    {
      "inputs": [
        {
          "internalType": "address",
          "name": "_buyer",
          "type": "address"
        },
        {
          "internalType": "address",
          "name": "_seller",
          "type": "address"
        },
        {
          "internalType": "address",
          "name": "_assetToken",
          "type": "address"
        },
        {
          "internalType": "uint256",
          "name": "_assetAmount",
          "type": "uint256"
        },
        {
          "internalType": "uint256",
          "name": "_deadline",
          "type": "uint256"
        },
        {
          "internalType": "string",
          "name": "_description",
          "type": "string"
        },
        {
          "internalType": "uint256",
          "name": "_disputeWindowHours",
          "type": "uint256"
        }
      ],
      "name": "createEscrow",
      "outputs": [
        {
          "internalType": "bool",
          "name": "",
          "type": "bool"
        }
      ],
      "stateMutability": "payable",
      "type": "function"
    },
    {
      "inputs": [
        {
          "internalType": "address",
          "name": "_buyer",
          "type": "address"
        },
        {
          "internalType": "address",
          "name": "_seller",
          "type": "address"
        },
        {
          "internalType": "address",
          "name": "_assetToken",
          "type": "address"
        },
        {
          "internalType": "uint256",
          "name": "_assetAmount",
          "type": "uint256"
        },
        {
          "internalType": "uint256",
          "name": "_deadline",
          "type": "uint256"
        },
        {
          "internalType": "string",
          "name": "_description",
          "type": "string"
        }
      ],
      "name": "createEscrowWithDefaultWindow",
      "outputs": [
        {
          "internalType": "bool",
          "name": "",
          "type": "bool"
        }
      ],
      "stateMutability": "payable",
      "type": "function"
    },
    {
      "inputs": [],
      "name": "emergencyWithdraw",
      "outputs": [
        {
          "internalType": "bool",
          "name": "",
          "type": "bool"
        }
      ],
      "stateMutability": "nonpayable",
      "type": "function"
    },
    {
      "inputs": [],
      "name": "getAllEscrows",
      "outputs": [
        {
          "internalType": "address[]",
          "name": "",
          "type": "address[]"
        }
      ],
      "stateMutability": "view",
      "type": "function"
    },
    {
      "inputs": [
        {
          "internalType": "address",
          "name": "arbiter",
          "type": "address"
        }
      ],
      "name": "getArbiterStatus",
      "outputs": [
        {
          "internalType": "bool",
          "name": "",
          "type": "bool"
        },
        {
          "internalType": "uint8",
          "name": "num",
          "type": "uint8"
        }
      ],
      "stateMutability": "view",
      "type": "function"
    },
    {
      "inputs": [
        {
          "internalType": "address",
          "name": "_user",
          "type": "address"
        }
      ],
      "name": "getData",
      "outputs": [
        {
          "components": [
            {
              "internalType": "address[]",
              "name": "allEscrow",
              "type": "address[]"
            },
            {
              "internalType": "address[]",
              "name": "userEscrows",
              "type": "address[]"
            },
            {
              "internalType": "uint256",
              "name": "totalEscrows",
              "type": "uint256"
            },
            {
              "internalType": "uint256",
              "name": "userEscrowCount",
              "type": "uint256"
            }
          ],
          "internalType": "struct IEscrowFactory.ReadData",
          "name": "",
          "type": "tuple"
        }
      ],
      "stateMutability": "view",
      "type": "function"
    },
    {
      "inputs": [
        {
          "internalType": "address payable",
          "name": "_escrowAddress",
          "type": "address"
        }
      ],
      "name": "getEscrowDetails",
      "outputs": [
        {
          "components": [
            {
              "internalType": "address",
              "name": "buyer",
              "type": "address"
            },
            {
              "internalType": "address",
              "name": "seller",
              "type": "address"
            },
            {
              "internalType": "address",
              "name": "arbiter",
              "type": "address"
            },
            {
              "internalType": "address",
              "name": "assetToken",
              "type": "address"
            },
            {
              "internalType": "uint256",
              "name": "assetAmount",
              "type": "uint256"
            },
            {
              "internalType": "uint256",
              "name": "deadline",
              "type": "uint256"
            },
            {
              "internalType": "enum IEscrow.EscrowState",
              "name": "state",
              "type": "uint8"
            },
            {
              "internalType": "uint256",
              "name": "createdAt",
              "type": "uint256"
            },
            {
              "internalType": "uint256",
              "name": "updatedAt",
              "type": "uint256"
            },
            {
              "internalType": "string",
              "name": "description",
              "type": "string"
            },
            {
              "internalType": "uint256",
              "name": "disputeWindowHours",
              "type": "uint256"
            }
          ],
          "internalType": "struct IEscrow.EscrowDetails",
          "name": "",
          "type": "tuple"
        }
      ],
      "stateMutability": "view",
      "type": "function"
    },
    {
      "inputs": [
        {
          "internalType": "address payable",
          "name": "_escrowAddress",
          "type": "address"
        }
      ],
      "name": "getEscrowState",
      "outputs": [
        {
          "internalType": "enum IEscrow.EscrowState",
          "name": "",
          "type": "uint8"
        }
      ],
      "stateMutability": "view",
      "type": "function"
    },
    {
      "inputs": [
        {
          "internalType": "uint256",
          "name": "_offset",
          "type": "uint256"
        },
        {
          "internalType": "uint256",
          "name": "_limit",
          "type": "uint256"
        }
      ],
      "name": "getEscrowsPaginated",
      "outputs": [
        {
          "internalType": "address[]",
          "name": "",
          "type": "address[]"
        }
      ],
      "stateMutability": "view",
      "type": "function"
    },
    {
      "inputs": [],
      "name": "getTotalEscrows",
      "outputs": [
        {
          "internalType": "uint256",
          "name": "",
          "type": "uint256"
        }
      ],
      "stateMutability": "view",
      "type": "function"
    },
    {
      "inputs": [
        {
          "internalType": "address",
          "name": "_user",
          "type": "address"
        }
      ],
      "name": "getUserEscrowCount",
      "outputs": [
        {
          "internalType": "uint256",
          "name": "",
          "type": "uint256"
        }
      ],
      "stateMutability": "view",
      "type": "function"
    },
    {
      "inputs": [
        {
          "internalType": "address",
          "name": "_user",
          "type": "address"
        }
      ],
      "name": "getUserEscrows",
      "outputs": [
        {
          "internalType": "address[]",
          "name": "",
          "type": "address[]"
        }
      ],
      "stateMutability": "view",
      "type": "function"
    },
    {
      "inputs": [
        {
          "internalType": "address",
          "name": "arbiter",
          "type": "address"
        },
        {
          "internalType": "uint8",
          "name": "flag",
          "type": "uint8"
        }
      ],
      "name": "isApprovedArbiter",
      "outputs": [
        {
          "internalType": "bool",
          "name": "",
          "type": "bool"
        }
      ],
      "stateMutability": "nonpayable",
      "type": "function"
    },
    {
      "inputs": [
        {
          "internalType": "address",
          "name": "_escrowAddress",
          "type": "address"
        }
      ],
      "name": "isValidEscrow",
      "outputs": [
        {
          "internalType": "bool",
          "name": "",
          "type": "bool"
        }
      ],
      "stateMutability": "view",
      "type": "function"
    },
    {
      "inputs": [],
      "name": "owner",
      "outputs": [
        {
          "internalType": "address",
          "name": "",
          "type": "address"
        }
      ],
      "stateMutability": "view",
      "type": "function"
    },
    {
      "inputs": [],
      "name": "pause",
      "outputs": [],
      "stateMutability": "nonpayable",
      "type": "function"
    },
    {
      "inputs": [],
      "name": "paused",
      "outputs": [
        {
          "internalType": "bool",
          "name": "",
          "type": "bool"
        }
      ],
      "stateMutability": "view",
      "type": "function"
    },
    {
      "inputs": [],
      "name": "renounceOwnership",
      "outputs": [],
      "stateMutability": "nonpayable",
      "type": "function"
    },
    {
      "inputs": [
        {
          "internalType": "address",
          "name": "newOwner",
          "type": "address"
        }
      ],
      "name": "transferOwnership",
      "outputs": [],
      "stateMutability": "nonpayable",
      "type": "function"
    },
    {
      "inputs": [],
      "name": "unpause",
      "outputs": [],
      "stateMutability": "nonpayable",
      "type": "function"
    },
    {
      "inputs": [
        {
          "internalType": "address",
          "name": "arbiter",
          "type": "address"
        }
      ],
      "name": "updateArbiterStatus",
      "outputs": [
        {
          "internalType": "bool",
          "name": "",
          "type": "bool"
        }
      ],
      "stateMutability": "nonpayable",
      "type": "function"
    },
    {
      "inputs": [
        {
          "internalType": "uint256",
          "name": "_newFee",
          "type": "uint256"
        }
      ],
      "name": "updateCreationFee",
      "outputs": [],
      "stateMutability": "nonpayable",
      "type": "function"
    },
    {
      "inputs": [
        {
          "internalType": "uint256",
          "name": "_newWindow",
          "type": "uint256"
        }
      ],
      "name": "updateDefaultDisputeWindow",
      "outputs": [],
      "stateMutability": "nonpayable",
      "type": "function"
    },
    {
      "inputs": [
        {
          "internalType": "address",
          "name": "_newRecipient",
          "type": "address"
        }
      ],
      "name": "updatePlatformFeeRecipient",
      "outputs": [],
      "stateMutability": "nonpayable",
      "type": "function"
    },
    {
      "stateMutability": "payable",
      "type": "receive"
    }
  ],
  "bytecode": "0x6080604052601860085566038d7ea4c68000600a5534801561001f575f5ffd5b50604051614aaa380380614aaa83398101604081905261003e9161015a565b338061006357604051631e4fbdf760e01b81525f600482015260240160405180910390fd5b61006c816100f4565b5060018055816001600160a01b0381166100995760405163e6c4247b60e01b815260040160405180910390fd5b816001600160a01b0381166100c15760405163e6c4247b60e01b815260040160405180910390fd5b5050600780546001600160a01b039384166001600160a01b03199182161790915560038054929093169116179055610192565b5f80546001600160a01b038381166001600160a01b0319831681178455604051919092169283917f8be0079c531659141344cd1fd0a4f28419497f9722a3daafe3b4186f6b6457e09190a35050565b6001600160a01b0381168114610157575f5ffd5b50565b5f5f6040838503121561016b575f5ffd5b825161017681610143565b602084015190925061018781610143565b809150509250929050565b61490b8061019f5f395ff3fe60806040526004361061014a575f3560e01c8063646ce6b9116100b35780638da5cb5b1161006d5780638da5cb5b146103f35780639a6ac36f14610419578063db2e21bc1461042d578063e4cfed7014610441578063f2fde38b14610460578063f5fe7f711461047f575f5ffd5b8063646ce6b9146103225780636b3bad86146103595780636fa237951461038d578063715018a6146103ac578063768163b5146103c05780638456cb59146103df575f5ffd5b80632dabe8e6116101045780632dabe8e61461022857806338266b221461027b5780633f4ba83a146102a75780633f4dbda2146102bb5780635c975abb146102d95780635ccea85e146102f6575f5ffd5b80630544c680146101555780630707950d1461017d5780630e6816db1461019e5780631f31914f146101bd5780631f970cec146101d057806329415a59146101fc575f5ffd5b3661015157005b5f5ffd5b610168610163366004611405565b61049e565b60405190151581526020015b60405180910390f35b348015610188575f5ffd5b5061019c610197366004611486565b6104be565b005b3480156101a9575f5ffd5b506101686101b836600461149d565b61054f565b6101686101cb3660046114d9565b610679565b3480156101db575f5ffd5b506101ef6101ea366004611567565b610698565b60405161017491906115a9565b348015610207575f5ffd5b5061021b610216366004611567565b610740565b60405161017491906115e5565b348015610233575f5ffd5b50610262610242366004611567565b6001600160a01b03165f9081526006602052604090205460ff1680151591565b60408051921515835260ff909116602083015201610174565b348015610286575f5ffd5b5061029a610295366004611567565b61083d565b60405161017491906116fb565b3480156102b2575f5ffd5b5061019c61096a565b3480156102c6575f5ffd5b506009545b604051908152602001610174565b3480156102e4575f5ffd5b505f54600160a01b900460ff16610168565b348015610301575f5ffd5b50610315610310366004611567565b61097c565b6040516101749190611754565b34801561032d575f5ffd5b5061016861033c366004611567565b6001600160a01b03165f9081526004602052604090205460ff1690565b348015610364575f5ffd5b506102cb610373366004611567565b6001600160a01b03165f9081526005602052604090205490565b348015610398575f5ffd5b5061019c6103a7366004611486565b6109ef565b3480156103b7575f5ffd5b5061019c6109fc565b3480156103cb575f5ffd5b506101686103da366004611567565b610a0d565b3480156103ea575f5ffd5b5061019c610aa4565b3480156103fe575f5ffd5b505f546040516001600160a01b039091168152602001610174565b348015610424575f5ffd5b50610315610ab4565b348015610438575f5ffd5b50610168610b14565b34801561044c575f5ffd5b5061031561045b36600461179f565b610bbf565b34801561046b575f5ffd5b5061019c61047a366004611567565b610cc6565b34801561048a575f5ffd5b5061019c610499366004611567565b610d08565b5f6104b187878787878760085434610d8a565b5060019695505050505050565b6104c6610f11565b80805f036104e75760405163268b000760e01b815260040160405180910390fd5b60a88111156105095760405163e5af6c4560e01b815260040160405180910390fd5b600880549083905560408051828152602081018590527fd851f9639a02639b24906a1c454dfbfc6eaa4b74daf083840f107403985ecfa4910160405180910390a1505050565b335f8181526004602052604081205490919060ff1661058157604051637398f3f360e11b815260040160405180910390fd5b600354604051631ce2f06f60e01b81526001600160a01b0386811660048301525f921690631ce2f06f90602401602060405180830381865afa1580156105c9573d5f5f3e3d5ffd5b505050506040513d601f19601f820116820180604052508101906105ed91906117d3565b90508360ff1660011480156105ff5750805b15610671576001600160a01b0385165f908152600660209081526040808320805460ff8082168a011660ff199091161790556005909152902061063f3390565b81546001810183555f928352602090922090910180546001600160a01b0319166001600160a01b039092169190911790555b949350505050565b5f61068a8888888888888834610d8a565b506001979650505050505050565b6001600160a01b0381165f90815260046020526040812054829060ff166106d257604051637398f3f360e11b815260040160405180910390fd5b826001600160a01b031663a978b3706040518163ffffffff1660e01b81526004015f60405180830381865afa15801561070d573d5f5f3e3d5ffd5b505050506040513d5f823e601f3d908101601f1916820160405261073491908101906119ef565b5160c001519392505050565b61079960408051610160810182525f80825260208201819052918101829052606081018290526080810182905260a081018290529060c082019081526020015f81526020015f8152602001606081526020015f81525090565b6001600160a01b0382165f90815260046020526040902054829060ff166107d357604051637398f3f360e11b815260040160405180910390fd5b826001600160a01b031663a978b3706040518163ffffffff1660e01b81526004015f60405180830381865afa15801561080e573d5f5f3e3d5ffd5b505050506040513d5f823e601f3d908101601f1916820160405261083591908101906119ef565b519392505050565b610866604051806080016040528060608152602001606081526020015f81526020015f81525090565b604080516002805460a0602082028401810190945260808301818152929384939291908401828280156108c057602002820191905f5260205f20905b81546001600160a01b031681526001909101906020018083116108a2575b50505091835250506001600160a01b0384165f90815260056020908152604091829020805483518184028101840190945280845293820193909183018282801561093157602002820191905f5260205f20905b81546001600160a01b03168152600190910190602001808311610913575b50505091835250506009546020808301919091526001600160a01b039094165f9081526005909452604093849020549301929092525090565b610972610f11565b61097a610f3d565b565b6001600160a01b0381165f908152600560209081526040918290208054835181840281018401909452808452606093928301828280156109e357602002820191905f5260205f20905b81546001600160a01b031681526001909101906020018083116109c5575b50505050509050919050565b6109f7610f11565b600a55565b610a04610f11565b61097a5f610f91565b335f8181526004602052604081205490919060ff16610a3f57604051637398f3f360e11b815260040160405180910390fd5b6001600160a01b03831615610a9b576001600160a01b0383165f9081526006602052604090205460ff1615610a9b576001600160a01b0383165f908152600660205260409020805460ff19811660ff9182165f19019091161790555b50600192915050565b610aac610f11565b61097a610fe0565b60606002805480602002602001604051908101604052809291908181526020018280548015610b0a57602002820191905f5260205f20905b81546001600160a01b03168152600190910190602001808311610aec575b5050505050905090565b5f610b1d610f11565b5f54600160a01b900460ff16610b46576040516338ea52e560e11b815260040160405180910390fd5b5f80546040516001600160a01b039091169047908381818185875af1925050503d805f8114610b90576040519150601f19603f3d011682016040523d82523d5f602084013e610b95565b606091505b5050905080610bb7576040516327fcd9d160e01b815260040160405180910390fd5b600191505090565b6002546060908310610be4576040516309605a0160e41b815260040160405180910390fd5b5f610bef8385611ac6565b600254909150811115610c0157506002545b5f610c0c8583611ad9565b6001600160401b03811115610c2357610c236112db565b604051908082528060200260200182016040528015610c4c578160200160208202803683370190505b509050845b82811015610cbb5760028181548110610c6c57610c6c611aec565b5f918252602090912001546001600160a01b031682610c8b8884611ad9565b81518110610c9b57610c9b611aec565b6001600160a01b0390921660209283029190910190910152600101610c51565b509150505b92915050565b610cce610f11565b6001600160a01b038116610cfc57604051631e4fbdf760e01b81525f60048201526024015b60405180910390fd5b610d0581610f91565b50565b610d10610f11565b806001600160a01b038116610d385760405163e6c4247b60e01b815260040160405180910390fd5b600780546001600160a01b038481166001600160a01b0319831681179093556040519116919082907faf04973bb8004e313cfd09017b963bee1e6f6ffb9be88c07a0c5ce5fafe93403905f90a3505050565b610d92611022565b610d9a61104c565b876001600160a01b038116610dc25760405163e6c4247b60e01b815260040160405180910390fd5b876001600160a01b038116610dea5760405163e6c4247b60e01b815260040160405180910390fd5b86805f03610e0b57604051635e85ae7360e01b815260040160405180910390fd5b86428111610e2c576040516305d169e960e11b815260040160405180910390fd5b85805f03610e4d5760405163268b000760e01b815260040160405180910390fd5b60a8811115610e6f5760405163e5af6c4560e01b815260040160405180910390fd5b610e7b8d8d8a89611076565b5f610e8b8e8e8e8e8e8e8e6110f5565b9050610e98818f8f611155565b610ea187611216565b8c6001600160a01b03168e6001600160a01b0316826001600160a01b03167fd99c67ae0185d6b0a36717d67d259f252914f7955744e4d81a91685ff480896d42604051610ef091815260200190565b60405180910390a4505050505050610f0760018055565b5050505050505050565b5f546001600160a01b0316331461097a5760405163118cdaa760e01b8152336004820152602401610cf3565b610f45611291565b5f805460ff60a01b191690557f5db9ee0a495bf2e6ff9c91a7834c1ba4fdd244a5e8aa4e537bd38aeae4b073aa335b6040516001600160a01b03909116815260200160405180910390a1565b5f80546001600160a01b038381166001600160a01b0319831681178455604051919092169283917f8be0079c531659141344cd1fd0a4f28419497f9722a3daafe3b4186f6b6457e09190a35050565b610fe861104c565b5f805460ff60a01b1916600160a01b1790557f62e78cea01bee320cd4e420270b5ea74000d11b0c9f74754ebdbfc544b05a258610f743390565b60026001540361104557604051633ee5aeb560e01b815260040160405180910390fd5b6002600155565b5f54600160a01b900460ff161561097a5760405163d93c066560e01b815260040160405180910390fd5b600a5481101561109c5760405163422d825960e01b815260048101829052602401610cf3565b81515f036110bd57604051632852e1bd60e01b815260040160405180910390fd5b826001600160a01b0316846001600160a01b0316036110ef57604051636b1a106760e01b815260040160405180910390fd5b50505050565b5f8787878787878760075f9054906101000a90046001600160a01b031660405161111e906112ba565b61112f989796959493929190611b00565b604051809103905ff080158015611148573d5f5f3e3d5ffd5b5098975050505050505050565b6002805460018181019092557f405787fa12a823e0f2b7631cc41b3ba8828b3321ca811111fa75cd3aa3bb5ace0180546001600160a01b038087166001600160a01b031992831681179093555f838152600460209081526040808320805460ff19168817905588841683526005825280832080548089018255908452828420018054861687179055928716825291812080549586018155815290812090930180549091169091179055600980549161120c83611b67565b9190505550505050565b8015610d05576007546040515f916001600160a01b03169083908381818185875af1925050503d805f8114611266576040519150601f19603f3d011682016040523d82523d5f602084013e61126b565b606091505b505090508061128d57604051634e46b67d60e01b815260040160405180910390fd5b5050565b5f54600160a01b900460ff1661097a57604051638dfc202b60e01b815260040160405180910390fd5b612d5680611b8083390190565b6001600160a01b0381168114610d05575f5ffd5b634e487b7160e01b5f52604160045260245ffd5b60405161016081016001600160401b0381118282101715611312576113126112db565b60405290565b60405161010081016001600160401b0381118282101715611312576113126112db565b60405160c081016001600160401b0381118282101715611312576113126112db565b604051601f8201601f191681016001600160401b0381118282101715611385576113856112db565b604052919050565b5f6001600160401b038211156113a5576113a56112db565b50601f01601f191660200190565b5f82601f8301126113c2575f5ffd5b81356113d56113d08261138d565b61135d565b8181528460208386010111156113e9575f5ffd5b816020850160208301375f918101602001919091529392505050565b5f5f5f5f5f5f60c0878903121561141a575f5ffd5b8635611425816112c7565b95506020870135611435816112c7565b94506040870135611445816112c7565b9350606087013592506080870135915060a08701356001600160401b0381111561146d575f5ffd5b61147989828a016113b3565b9150509295509295509295565b5f60208284031215611496575f5ffd5b5035919050565b5f5f604083850312156114ae575f5ffd5b82356114b9816112c7565b9150602083013560ff811681146114ce575f5ffd5b809150509250929050565b5f5f5f5f5f5f5f60e0888a0312156114ef575f5ffd5b87356114fa816112c7565b9650602088013561150a816112c7565b9550604088013561151a816112c7565b9450606088013593506080880135925060a08801356001600160401b03811115611542575f5ffd5b61154e8a828b016113b3565b979a969950949793969295929450505060c09091013590565b5f60208284031215611577575f5ffd5b8135611582816112c7565b9392505050565b600581106115a557634e487b7160e01b5f52602160045260245ffd5b9052565b60208101610cc08284611589565b5f81518084528060208401602086015e5f602082860101526020601f19601f83011685010191505092915050565b602081526115ff6020820183516001600160a01b03169052565b5f602083015161161a60408401826001600160a01b03169052565b5060408301516001600160a01b03811660608401525060608301516001600160a01b038116608084015250608083015160a083015260a083015160c083015260c083015161166b60e0840182611589565b5060e08301516101008301526101008301516101208301526101208301516101606101408401526116a06101808401826115b7565b90506101408401516101608401528091505092915050565b5f8151808452602084019350602083015f5b828110156116f15781516001600160a01b03168652602095860195909101906001016116ca565b5093949350505050565b602081525f82516080602084015261171660a08401826116b8565b90506020840151601f1984830301604085015261173382826116b8565b91505060408401516060840152606084015160808401528091505092915050565b602080825282518282018190525f918401906040840190835b818110156117945783516001600160a01b031683526020938401939092019160010161176d565b509095945050505050565b5f5f604083850312156117b0575f5ffd5b50508035926020909101359150565b805180151581146117ce575f5ffd5b919050565b5f602082840312156117e3575f5ffd5b611582826117bf565b80516117ce816112c7565b8051600581106117ce575f5ffd5b5f82601f830112611814575f5ffd5b8151602083015f6118276113d08461138d565b905082815285838301111561183a575f5ffd5b8282602083015e5f92810160200192909252509392505050565b5f6101608284031215611865575f5ffd5b61186d6112ef565b9050611878826117ec565b8152611886602083016117ec565b6020820152611897604083016117ec565b60408201526118a8606083016117ec565b60608201526080828101519082015260a080830151908201526118cd60c083016117f7565b60c082015260e0828101519082015261010080830151908201526101208201516001600160401b03811115611900575f5ffd5b61190c84828501611805565b610120830152506101409182015191810191909152919050565b5f6101008284031215611937575f5ffd5b61193f611318565b905061194a826117bf565b8152611958602083016117ec565b602082015260408201516001600160401b03811115611975575f5ffd5b61198184828501611805565b6040830152506060828101519082015261199d608083016117ec565b60808201526119ae60a083016117bf565b60a082015260c08201516001600160401b038111156119cb575f5ffd5b6119d784828501611805565b60c08301525060e09182015191810191909152919050565b5f602082840312156119ff575f5ffd5b81516001600160401b03811115611a14575f5ffd5b820160c08185031215611a25575f5ffd5b611a2d61133b565b81516001600160401b03811115611a42575f5ffd5b611a4e86828501611854565b82525060208201516001600160401b03811115611a69575f5ffd5b611a7586828501611926565b602083015250604082810151908201526060808301519082015260808083015190820152611aa560a083016117ec565b60a0820152949350505050565b634e487b7160e01b5f52601160045260245ffd5b80820180821115610cc057610cc0611ab2565b81810381811115610cc057610cc0611ab2565b634e487b7160e01b5f52603260045260245ffd5b6001600160a01b038981168252888116602083015287166040820152606081018690526080810185905261010060a082018190525f90611b42908301866115b7565b60c0830194909452506001600160a01b039190911660e0909101529695505050505050565b5f60018201611b7857611b78611ab2565b506001019056fe608060405234801561000f575f5ffd5b50604051612d56380380612d5683398101604081905261002e91610393565b60015f55338061005757604051631e4fbdf760e01b81525f600482015260240160405180910390fd5b61006081610313565b506001600160a01b03881661008857604051634324b9cf60e01b815260040160405180910390fd5b6001600160a01b0387166100af576040516341c37f5f60e11b815260040160405180910390fd5b845f036100cf57604051631bcdac3d60e21b815260040160405180910390fd5b4284116100ef576040516305d169e960e11b815260040160405180910390fd5b815f0361010f5760405163268b000760e01b815260040160405180910390fd5b6001600160a01b03811661013657604051637be1c5fb60e01b815260040160405180910390fd5b604051806101600160405280896001600160a01b03168152602001886001600160a01b031681526020015f6001600160a01b03168152602001876001600160a01b031681526020018681526020018581526020015f600481111561019c5761019c6104a4565b8152602001428152602001428152602080820186905260409182018590528251600280546001600160a01b03199081166001600160a01b039384161782559285015160038054851691841691909117905592840151600480548416918316919091178155606085015160058054909416921691909117909155608083015160065560a083015160075560c0830151600880549192909160ff191690600190849081111561024b5761024b6104a4565b021790555060e082015160078201556101008201516008820155610120820151600982019061027a908261053c565b506101409190910151600a90910155601680546001600160a01b0319166001600160a01b038381169190911790915560326013556064601455612710601555604080518883168152602081018890529081018690525f9189811691908b16907fae4afeae517547c89e021ef11c8647b223ef2849e6a4929e9e238dc5945c4e7c9060600160405180910390a450505050505050506105f6565b600180546001600160a01b038381166001600160a01b0319831681179093556040519116919082907f8be0079c531659141344cd1fd0a4f28419497f9722a3daafe3b4186f6b6457e0905f90a35050565b80516001600160a01b038116811461037a575f5ffd5b919050565b634e487b7160e01b5f52604160045260245ffd5b5f5f5f5f5f5f5f5f610100898b0312156103ab575f5ffd5b6103b489610364565b97506103c260208a01610364565b96506103d060408a01610364565b60608a015160808b015160a08c015192985090965094506001600160401b038111156103fa575f5ffd5b8901601f81018b1361040a575f5ffd5b80516001600160401b038111156104235761042361037f565b604051601f8201601f19908116603f011681016001600160401b03811182821017156104515761045161037f565b6040528181528282016020018d1015610468575f5ffd5b8160208401602083015e5f9181016020019190915260c08b01519094509250610495905060e08a01610364565b90509295985092959890939650565b634e487b7160e01b5f52602160045260245ffd5b600181811c908216806104cc57607f821691505b6020821081036104ea57634e487b7160e01b5f52602260045260245ffd5b50919050565b601f82111561053757805f5260205f20601f840160051c810160208510156105155750805b601f840160051c820191505b81811015610534575f8155600101610521565b50505b505050565b81516001600160401b038111156105555761055561037f565b6105698161056384546104b8565b846104f0565b6020601f82116001811461059b575f83156105845750848201515b5f19600385901b1c1916600184901b178455610534565b5f84815260208120601f198516915b828110156105ca57878501518255602094850194600190920191016105aa565b50848210156105e757868401515f19600387901b60f8161c191681555b50505050600190811b01905550565b612753806106035f395ff3fe60806040526004361061014a575f3560e01c80638456cb59116100b3578063d2c9ea031161006d578063d2c9ea0314610347578063db2e21bc1461035b578063dd35dabf1461036f578063efd7606514610383578063f2fde38b146103b1578063fd3d3b42146103d0575f5ffd5b80638456cb59146102a55780638da5cb5b146102b957806393dd201d146102e0578063a7b4f4ea146102ff578063a978b3701461031e578063d0e30db01461033f575f5ffd5b80636d88b24d116101045780636d88b24d146101fa578063715018a614610219578063725a3b4b1461022d5780637323f71e1461024c57806373d4a13a146102605780637da6ac0d14610286575f5ffd5b806312065fe0146101555780632f13b60c1461017c5780633f4ba83a1461019e57806349569b82146101b45780635c975abb146101c857806369d89575146101e6575f5ffd5b3661015157005b5f5ffd5b348015610160575f5ffd5b506101696103e4565b6040519081526020015b60405180910390f35b348015610187575f5ffd5b5060075442115b6040519015158152602001610173565b3480156101a9575f5ffd5b506101b261046a565b005b3480156101bf575f5ffd5b506101b261047c565b3480156101d3575f5ffd5b50600154600160a01b900460ff1661018e565b3480156101f1575f5ffd5b506101b261056d565b348015610205575f5ffd5b506101b26102143660046120ef565b610643565b348015610224575f5ffd5b506101b2610695565b348015610238575f5ffd5b506101b26102473660046121bb565b6106a6565b348015610257575f5ffd5b5061018e610916565b34801561026b575f5ffd5b50610274610aa8565b604051610173969594939291906123cb565b348015610291575f5ffd5b506101b26102a03660046120ef565b610d97565b3480156102b0575f5ffd5b506101b2610dbf565b3480156102c4575f5ffd5b506001546040516001600160a01b039091168152602001610173565b3480156102eb575f5ffd5b506101b26102fa36600461242b565b610dcf565b34801561030a575f5ffd5b506101b261031936600461242b565b610f5b565b348015610329575f5ffd5b50610332610f9a565b6040516101739190612478565b6101b26112b1565b348015610352575f5ffd5b506101b261156a565b348015610366575f5ffd5b506101b2611665565b34801561037a575f5ffd5b506101b26117c0565b34801561038e575f5ffd5b5061018e61039d3660046120ef565b60176020525f908152604090205460ff1681565b3480156103bc575f5ffd5b506101b26103cb3660046120ef565b6118bb565b3480156103db575f5ffd5b506101b26118fa565b6005545f906001600160a01b03166103fb57504790565b6005546040516370a0823160e01b81523060048201526001600160a01b03909116906370a0823190602401602060405180830381865afa158015610441573d5f5f3e3d5ffd5b505050506040513d601f19601f8201168201806040525081019061046591906124ed565b905090565b610472611939565b61047a611966565b565b6104846119bb565b61048c6119e3565b60018060085460ff1660048111156104a6576104a66121f5565b146104c457604051635448814d60e11b815260040160405180910390fd5b6002546001600160a01b0316336001600160a01b0316141580156104fc57506004546001600160a01b0316336001600160a01b031614155b1561051a576040516316f238dd60e01b815260040160405180910390fd5b6002546001600160a01b0316330361054e57600754421161054e57604051633376277360e11b815260040160405180910390fd5b600254610563906001600160a01b0316611a0e565b5061047a60015f55565b6105756119bb565b61057d6119e3565b60018060085460ff166004811115610597576105976121f5565b146105b557604051635448814d60e11b815260040160405180910390fd5b6007544211156105d8576040516390331c3b60e01b815260040160405180910390fd5b6002546001600160a01b0316336001600160a01b03161415801561061057506004546001600160a01b0316336001600160a01b031614155b1561062e576040516336d8077160e21b815260040160405180910390fd5b600354610563906001600160a01b0316611a0e565b61064b611939565b6001600160a01b03811661067257604051635697b36760e01b815260040160405180910390fd5b6001600160a01b03165f908152601760205260409020805460ff19166001179055565b61069d611939565b61047a5f611e0f565b6106ae6119bb565b6106b66119e3565b6002546001600160a01b0316336001600160a01b0316141580156106ee57506003546001600160a01b0316336001600160a01b031614155b1561070c576040516304a31a6b60e11b815260040160405180910390fd5b60018060085460ff166004811115610726576107266121f5565b1461074457604051635448814d60e11b815260040160405180910390fd5b600754421115610767576040516390331c3b60e01b815260040160405180910390fd5b81515f0361078857604051630ae1727760e41b815260040160405180910390fd5b6008805460ff1916600217905542600a8190556040805161010081018252600181523360208201529081016107bc85611e60565b815260208082018490526004546001600160a01b03166040808401919091525f6060840152805180820190915260028152614e4160f01b9181019190915260809091019061080990611e60565b81525f6020918201528151600d8054928401516001600160a01b031661010002610100600160a81b0319921515929092166001600160a81b0319909316929092171781556040820151600e9061085f9082612587565b5060608201516002820155608082015160038201805460a08501511515600160a01b026001600160a81b03199091166001600160a01b039093169290921791909117905560c082015160048201906108b79082612587565b5060e09190910151600590910155336001600160a01b03167fd4882c6b71dfbb8df0a01fa4cd97676f243a56dd525df6b891b2e1700e514e898483604051610900929190612642565b60405180910390a2505061091360015f55565b50565b6001545f9033906001600160a01b0316604051630e6816db60e01b81526001600160a01b038381166004830152600160248301529190911690630e6816db906044016020604051808303815f875af1158015610974573d5f5f3e3d5ffd5b505050506040513d601f19601f820116820180604052508101906109989190612663565b6109b55760405163c19f17a960e01b815260040160405180910390fd5b6004546001600160a01b03908116908216036109e457604051631b62144360e31b815260040160405180910390fd5b6004546001600160a01b031615610a4957600d5460ff1615610a2857600f54421015610a235760405163e33f4dbf60e01b815260040160405180910390fd5b610a49565b60125415610a495760405163e54a2f1b60e01b815260040160405180910390fd5b6004546040516001600160a01b038084169216907f3c10faad3dc661fd434eb5a5f0d4266ae861fb97b12573d8c1914015746b33c3905f90a3600480546001600160a01b0319166001600160a01b039290921691909117905550600190565b6040805161016081018252600280546001600160a01b0390811683526003548116602084015260048054821694840194909452600554166060830152600654608083015260075460a08301526008549092839160c084019160ff90911690811115610b1557610b156121f5565b6004811115610b2657610b266121f5565b81526020016007820154815260200160088201548152602001600982018054610b4e90612504565b80601f0160208091040260200160405190810160405280929190818152602001828054610b7a90612504565b8015610bc55780601f10610b9c57610100808354040283529160200191610bc5565b820191905f5260205f20905b815481529060010190602001808311610ba857829003601f168201915b5050509183525050600a9190910154602091820152604080516101008082018352600b8601805460ff811615158452919091046001600160a01b031693820193909352600c85018054949594919392840191610c2090612504565b80601f0160208091040260200160405190810160405280929190818152602001828054610c4c90612504565b8015610c975780601f10610c6e57610100808354040283529160200191610c97565b820191905f5260205f20905b815481529060010190602001808311610c7a57829003601f168201915b50505091835250506002820154602082015260038201546001600160a01b0381166040830152600160a01b900460ff1615156060820152600482018054608090920191610ce390612504565b80601f0160208091040260200160405190810160405280929190818152602001828054610d0f90612504565b8015610d5a5780601f10610d3157610100808354040283529160200191610d5a565b820191905f5260205f20905b815481529060010190602001808311610d3d57829003601f168201915b505050918352505060059190910154602090910152601182015460128301546013840154601490940154929391929091906001600160a01b031686565b610d9f611939565b6001600160a01b03165f908152601760205260409020805460ff19169055565b610dc7611939565b61047a611e89565b610dd76119bb565b610ddf6119e3565b6004546001600160a01b0316336001600160a01b031614610e135760405163e90ca8f760e01b815260040160405180910390fd5b60028060085460ff166004811115610e2d57610e2d6121f5565b14610e4b57604051635448814d60e11b815260040160405180910390fd5b600d5460ff16610e6e57604051633f902c5560e01b815260040160405180910390fd5b81515f03610e8f57604051634b699e6f60e01b815260040160405180910390fd5b6010805460ff60a01b1916600160a01b8515150217905542610eb083611e60565b601190610ebd9082612587565b506012819055600d805460ff19169055600a8190558315610ef257600354610eed906001600160a01b0316611a0e565b610f07565b600254610f07906001600160a01b0316611a0e565b336001600160a01b03167f31965f570dee6f4e7e90e64d5d983d6ec3ac08f7cd7324907daa56cb53efe3dd858584604051610f449392919061267e565b60405180910390a25050610f5760015f55565b5050565b610f636119bb565b610f6b6119e3565b335f9081526017602052604090205460ff16610e135760405163446bb9e160e11b815260040160405180910390fd5b610fa2612005565b604080516102208101909152600280546001600160a01b0390811660c08401908152600354821660e08501526004805483166101008601526005549092166101208501526006546101408501526007546101608501526008548492849161018085019160ff9091169081111561101a5761101a6121f5565b600481111561102b5761102b6121f5565b8152602001600782015481526020016008820154815260200160098201805461105390612504565b80601f016020809104026020016040519081016040528092919081815260200182805461107f90612504565b80156110ca5780601f106110a1576101008083540402835291602001916110ca565b820191905f5260205f20905b8154815290600101906020018083116110ad57829003601f168201915b5050509183525050600a9190910154602091820152908252604080516101008082018352600b8601805460ff811615158452919091046001600160a01b031682850152600c8601805495909401949193909284019161112890612504565b80601f016020809104026020016040519081016040528092919081815260200182805461115490612504565b801561119f5780601f106111765761010080835404028352916020019161119f565b820191905f5260205f20905b81548152906001019060200180831161118257829003601f168201915b50505091835250506002820154602082015260038201546001600160a01b0381166040830152600160a01b900460ff16151560608201526004820180546080909201916111eb90612504565b80601f016020809104026020016040519081016040528092919081815260200182805461121790612504565b80156112625780601f1061123957610100808354040283529160200191611262565b820191905f5260205f20905b81548152906001019060200180831161124557829003601f168201915b50505091835250506005919091015460209182015290825260118301549082015260128201546040820152601382015460608201526014909101546001600160a01b0316608090910152919050565b6112b96119bb565b6112c16119e3565b6002546001600160a01b0316336001600160a01b0316146112f557604051630cc633f560e21b815260040160405180910390fd5b5f8060085460ff16600481111561130e5761130e6121f5565b1461132c57604051635448814d60e11b815260040160405180910390fd5b60075442111561134f576040516390331c3b60e01b815260040160405180910390fd5b6005546001600160a01b0316611387576006543410156113825760405163201c04ab60e01b815260040160405180910390fd5b6114fe565b34156113a657604051635d48ab7b60e11b815260040160405180910390fd5b6005546006546001600160a01b0390911690816370a08231336040516001600160e01b031960e084901b1681526001600160a01b039091166004820152602401602060405180830381865afa158015611401573d5f5f3e3d5ffd5b505050506040513d601f19601f8201168201806040525081019061142591906124ed565b101561144457604051637222ae5760e11b815260040160405180910390fd5b6006546001600160a01b03821663dd62ed3e336040516001600160e01b031960e084901b1681526001600160a01b039091166004820152306024820152604401602060405180830381865afa15801561149f573d5f5f3e3d5ffd5b505050506040513d601f19601f820116820180604052508101906114c391906124ed565b10156114e25760405163a085b77b60e01b815260040160405180910390fd5b6114fc336006546001600160a01b03841691903090611ecc565b505b6008805460ff1916600117905542600a81905560055460065460408051918252602082018490526001600160a01b039092169133917f5b002da8d5c2ef25521ad3b170995c1632b4a32f8e09e03999004ae2e5763d5791015b60405180910390a3505061047a60015f55565b6115726119bb565b61157a6119e3565b6002546001600160a01b0316336001600160a01b0316146115ae57604051630cc633f560e21b815260040160405180910390fd5b60018060085460ff1660048111156115c8576115c86121f5565b146115e657604051635448814d60e11b815260040160405180910390fd5b600754421115611609576040516390331c3b60e01b815260040160405180910390fd5b60035461161e906001600160a01b0316611a0e565b336001600160a01b03167f56eac3f4507c7d844ba38c829b5a76e42fb6a4f532b2e390e5a257f909834d614260405190815260200160405180910390a25061047a60015f55565b61166d611939565b600154600160a01b900460ff16611697576040516338ea52e560e11b815260040160405180910390fd5b6005546001600160a01b0316611728575f6116ba6001546001600160a01b031690565b6001600160a01b0316476040515f6040518083038185875af1925050503d805f8114611701576040519150601f19603f3d011682016040523d82523d5f602084013e611706565b606091505b50509050806109135760405163801d5b7d60e01b815260040160405180910390fd5b6005546001600160a01b03166109136117496001546001600160a01b031690565b6040516370a0823160e01b81523060048201526001600160a01b038416906370a0823190602401602060405180830381865afa15801561178b573d5f5f3e3d5ffd5b505050506040513d601f19601f820116820180604052508101906117af91906124ed565b6001600160a01b0384169190611f39565b6117c86119bb565b6117d06119e3565b335f9081526017602052604090205460ff166117ff5760405163446bb9e160e11b815260040160405180910390fd5b5f8060085460ff166004811115611818576118186121f5565b1461183657604051635448814d60e11b815260040160405180910390fd5b600754421115611859576040516390331c3b60e01b815260040160405180910390fd5b6008805460ff1916600117905542600a81905560055460025460065460408051918252602082018590526001600160a01b0393841693909216917f5b002da8d5c2ef25521ad3b170995c1632b4a32f8e09e03999004ae2e5763d579101611557565b6118c3611939565b6001600160a01b0381166118f157604051631e4fbdf760e01b81525f60048201526024015b60405180910390fd5b61091381611e0f565b6119026119bb565b61190a6119e3565b335f9081526017602052604090205460ff166115ae5760405163446bb9e160e11b815260040160405180910390fd5b6001546001600160a01b0316331461047a5760405163118cdaa760e01b81523360048201526024016118e8565b61196e611f6f565b6001805460ff60a01b191690557f5db9ee0a495bf2e6ff9c91a7834c1ba4fdd244a5e8aa4e537bd38aeae4b073aa335b6040516001600160a01b03909116815260200160405180910390a1565b60025f54036119dd57604051633ee5aeb560e01b815260040160405180910390fd5b60025f55565b600154600160a01b900460ff161561047a5760405163d93c066560e01b815260040160405180910390fd5b600160085460ff166004811115611a2757611a276121f5565b14158015611a4c5750600260085460ff166004811115611a4957611a496121f5565b14155b15611a6a57604051630318d33960e11b815260040160405180910390fd5b6006546015546013545f9190611a8090846126bc565b611a8a91906126d9565b6015546014549192505f91611a9f90856126bc565b611aa991906126d9565b90505f81611ab784866126f8565b611ac191906126f8565b60035490915042906001600160a01b03878116911614611ae2576004611ae5565b60035b6008805460ff19166001836004811115611b0157611b016121f5565b0217905550600a8190556005546001600160a01b0316611c8a578115611b93575f866001600160a01b0316836040515f6040518083038185875af1925050503d805f8114611b6a576040519150601f19603f3d011682016040523d82523d5f602084013e611b6f565b606091505b5050905080611b915760405163263b8f0b60e01b815260040160405180910390fd5b505b8315611c0c576016546040515f916001600160a01b03169086908381818185875af1925050503d805f8114611be3576040519150601f19603f3d011682016040523d82523d5f602084013e611be8565b606091505b5050905080611c0a5760405163075b552d60e01b815260040160405180910390fd5b505b8215611c85576004546040515f916001600160a01b03169085908381818185875af1925050503d805f8114611c5c576040519150601f19603f3d011682016040523d82523d5f602084013e611c61565b606091505b5050905080611c8357604051639935678b60e01b815260040160405180910390fd5b505b611cf2565b6005546001600160a01b03168215611cb057611cb06001600160a01b0382168885611f39565b8415611cd057601654611cd0906001600160a01b03838116911687611f39565b8315611cf057600454611cf0906001600160a01b03838116911686611f39565b505b6004546001600160a01b031615611dbc576001546001600160a01b03166004805460405163768163b560e01b81526001600160a01b0391821692810192909252919091169063768163b5906024016020604051808303815f875af1158015611d5c573d5f5f3e3d5ffd5b505050506040513d601f19601f82011682018060405250810190611d809190612663565b611dbc5760405162461bcd60e51b815260206004820152600d60248201526c155c19185d194819985a5b1959609a1b60448201526064016118e8565b60055460408051848152602081018490526001600160a01b03928316928916917f156a4978af062770a3b6956fc1ac116b21bff165eaa8d67a555927fd1384c27e910160405180910390a3505050505050565b600180546001600160a01b038381166001600160a01b0319831681179093556040519116919082907f8be0079c531659141344cd1fd0a4f28419497f9722a3daafe3b4186f6b6457e0905f90a35050565b606081604051602001611e73919061270b565b6040516020818303038152906040529050919050565b611e916119e3565b6001805460ff60a01b1916600160a01b1790557f62e78cea01bee320cd4e420270b5ea74000d11b0c9f74754ebdbfc544b05a25861199e3390565b6040516001600160a01b038481166024830152838116604483015260648201839052611f339186918216906323b872dd906084015b604051602081830303815290604052915060e01b6020820180516001600160e01b038381831617835250505050611f99565b50505050565b6040516001600160a01b03838116602483015260448201839052611f6a91859182169063a9059cbb90606401611f01565b505050565b600154600160a01b900460ff1661047a57604051638dfc202b60e01b815260040160405180910390fd5b5f5f60205f8451602086015f885af180611fb8576040513d5f823e3d81fd5b50505f513d91508115611fcf578060011415611fdc565b6001600160a01b0384163b155b15611f3357604051635274afe760e01b81526001600160a01b03851660048201526024016118e8565b6040805161022081019091525f60c0820181815260e08301829052610100830182905261012083018290526101408301829052610160830182905261018083018290526101a083018290526101c0830182905260606101e0840152610200830191909152819081526020016120c86040518061010001604052805f151581526020015f6001600160a01b03168152602001606081526020015f81526020015f6001600160a01b031681526020015f15158152602001606081526020015f81525090565b81526020015f81526020015f81526020015f81526020015f6001600160a01b031681525090565b5f602082840312156120ff575f5ffd5b81356001600160a01b0381168114612115575f5ffd5b9392505050565b634e487b7160e01b5f52604160045260245ffd5b5f82601f83011261213f575f5ffd5b813567ffffffffffffffff8111156121595761215961211c565b604051601f8201601f19908116603f0116810167ffffffffffffffff811182821017156121885761218861211c565b60405281815283820160200185101561219f575f5ffd5b816020850160208301375f918101602001919091529392505050565b5f602082840312156121cb575f5ffd5b813567ffffffffffffffff8111156121e1575f5ffd5b6121ed84828501612130565b949350505050565b634e487b7160e01b5f52602160045260245ffd5b6005811061222557634e487b7160e01b5f52602160045260245ffd5b9052565b5f81518084528060208401602086015e5f602082860101526020601f19601f83011685010191505092915050565b80516001600160a01b031682525f602082015161227f60208501826001600160a01b03169052565b50604082015161229a60408501826001600160a01b03169052565b5060608201516122b560608501826001600160a01b03169052565b506080820151608084015260a082015160a084015260c08201516122dc60c0850182612209565b5060e082015160e0840152610100820151610100840152610120820151610160610120850152612310610160850182612229565b61014093840151949093019390935250919050565b8051151582525f602082015161234660208501826001600160a01b03169052565b5060408201516101006040850152612362610100850182612229565b905060608301516060850152608083015161238860808601826001600160a01b03169052565b5060a083015161239c60a086018215159052565b5060c083015184820360c08601526123b48282612229565b91505060e083015160e08501528091505092915050565b60c081525f6123dd60c0830189612257565b82810360208401526123ef8189612325565b60408401979097525050606081019390935260808301919091526001600160a01b031660a09091015292915050565b8015158114610913575f5ffd5b5f5f6040838503121561243c575f5ffd5b82356124478161241e565b9150602083013567ffffffffffffffff811115612462575f5ffd5b61246e85828601612130565b9150509250929050565b602081525f825160c0602084015261249360e0840182612257565b90506020840151601f198483030160408501526124b08282612325565b9150506040840151606084015260608401516080840152608084015160a084015260018060a01b0360a08501511660c08401528091505092915050565b5f602082840312156124fd575f5ffd5b5051919050565b600181811c9082168061251857607f821691505b60208210810361253657634e487b7160e01b5f52602260045260245ffd5b50919050565b601f821115611f6a57805f5260205f20601f840160051c810160208510156125615750805b601f840160051c820191505b81811015612580575f815560010161256d565b5050505050565b815167ffffffffffffffff8111156125a1576125a161211c565b6125b5816125af8454612504565b8461253c565b6020601f8211600181146125e7575f83156125d05750848201515b5f19600385901b1c1916600184901b178455612580565b5f84815260208120601f198516915b8281101561261657878501518255602094850194600190920191016125f6565b508482101561263357868401515f19600387901b60f8161c191681555b50505050600190811b01905550565b604081525f6126546040830185612229565b90508260208301529392505050565b5f60208284031215612673575f5ffd5b81516121158161241e565b8315158152606060208201525f6126986060830185612229565b9050826040830152949350505050565b634e487b7160e01b5f52601160045260245ffd5b80820281158282048414176126d3576126d36126a8565b92915050565b5f826126f357634e487b7160e01b5f52601260045260245ffd5b500490565b818103818111156126d3576126d36126a8565b602081525f612115602083018461222956fea264697066735822122029a7ac5921088c4bc7a5d67f560156c8e9901b00de3f63c83183e1e8ec559b4564736f6c634300081e0033a26469706673582212206c8cf6ff768563ae9bfa03bd0ac9dcf869e6b63b444521af4bf70eec3b278c9464736f6c634300081e0033",
  "linkReferences": {},
  "deployedLinkReferences": {},
  "immutableReferences": {},
  "inputSourceName": "project/contracts/escrow/EscrowFactory.sol",
  "buildInfoId": "solc-0_8_30-c03a5e39af071f41f4166f9316dbc0ff868ee5d8"
}